{
	"AMM.sol": {
		"AMM": {
			"abi": [
				{
					"inputs": [
						{
							"internalType": "uint256",
							"name": "_amountToken1",
							"type": "uint256"
						},
						{
							"internalType": "uint256",
							"name": "_amountToken2",
							"type": "uint256"
						}
					],
					"name": "faucet",
					"outputs": [],
					"stateMutability": "nonpayable",
					"type": "function"
				},
				{
					"inputs": [
						{
							"internalType": "uint256",
							"name": "_amountToken2",
							"type": "uint256"
						}
					],
					"name": "getEquivalentToken1Estimate",
					"outputs": [
						{
							"internalType": "uint256",
							"name": "reqToken1",
							"type": "uint256"
						}
					],
					"stateMutability": "view",
					"type": "function"
				},
				{
					"inputs": [
						{
							"internalType": "uint256",
							"name": "_amountToken1",
							"type": "uint256"
						}
					],
					"name": "getEquivalentToken2Estimate",
					"outputs": [
						{
							"internalType": "uint256",
							"name": "reqToken2",
							"type": "uint256"
						}
					],
					"stateMutability": "view",
					"type": "function"
				},
				{
					"inputs": [],
					"name": "getMyHoldings",
					"outputs": [
						{
							"internalType": "uint256",
							"name": "amountToken1",
							"type": "uint256"
						},
						{
							"internalType": "uint256",
							"name": "amountToken2",
							"type": "uint256"
						},
						{
							"internalType": "uint256",
							"name": "myShare",
							"type": "uint256"
						}
					],
					"stateMutability": "view",
					"type": "function"
				},
				{
					"inputs": [],
					"name": "getPoolDetails",
					"outputs": [
						{
							"internalType": "uint256",
							"name": "",
							"type": "uint256"
						},
						{
							"internalType": "uint256",
							"name": "",
							"type": "uint256"
						},
						{
							"internalType": "uint256",
							"name": "",
							"type": "uint256"
						}
					],
					"stateMutability": "view",
					"type": "function"
				},
				{
					"inputs": [
						{
							"internalType": "uint256",
							"name": "_amountToken1",
							"type": "uint256"
						}
					],
					"name": "getSwapToken1Estimate",
					"outputs": [
						{
							"internalType": "uint256",
							"name": "amountToken2",
							"type": "uint256"
						}
					],
					"stateMutability": "view",
					"type": "function"
				},
				{
					"inputs": [
						{
							"internalType": "uint256",
							"name": "_amountToken2",
							"type": "uint256"
						}
					],
					"name": "getSwapToken1EstimateGivenToken2",
					"outputs": [
						{
							"internalType": "uint256",
							"name": "amountToken1",
							"type": "uint256"
						}
					],
					"stateMutability": "view",
					"type": "function"
				},
				{
					"inputs": [
						{
							"internalType": "uint256",
							"name": "_amountToken2",
							"type": "uint256"
						}
					],
					"name": "getSwapToken2Estimate",
					"outputs": [
						{
							"internalType": "uint256",
							"name": "amountToken1",
							"type": "uint256"
						}
					],
					"stateMutability": "view",
					"type": "function"
				},
				{
					"inputs": [
						{
							"internalType": "uint256",
							"name": "_amountToken1",
							"type": "uint256"
						}
					],
					"name": "getSwapToken2EstimateGivenToken1",
					"outputs": [
						{
							"internalType": "uint256",
							"name": "amountToken2",
							"type": "uint256"
						}
					],
					"stateMutability": "view",
					"type": "function"
				},
				{
					"inputs": [
						{
							"internalType": "uint256",
							"name": "_share",
							"type": "uint256"
						}
					],
					"name": "getWithdrawEstimate",
					"outputs": [
						{
							"internalType": "uint256",
							"name": "amountToken1",
							"type": "uint256"
						},
						{
							"internalType": "uint256",
							"name": "amountToken2",
							"type": "uint256"
						}
					],
					"stateMutability": "view",
					"type": "function"
				},
				{
					"inputs": [
						{
							"internalType": "uint256",
							"name": "_amountToken1",
							"type": "uint256"
						},
						{
							"internalType": "uint256",
							"name": "_amountToken2",
							"type": "uint256"
						}
					],
					"name": "provide",
					"outputs": [
						{
							"internalType": "uint256",
							"name": "share",
							"type": "uint256"
						}
					],
					"stateMutability": "nonpayable",
					"type": "function"
				},
				{
					"inputs": [
						{
							"internalType": "uint256",
							"name": "_amountToken1",
							"type": "uint256"
						}
					],
					"name": "swapToken1",
					"outputs": [
						{
							"internalType": "uint256",
							"name": "amountToken2",
							"type": "uint256"
						}
					],
					"stateMutability": "nonpayable",
					"type": "function"
				},
				{
					"inputs": [
						{
							"internalType": "uint256",
							"name": "_amountToken2",
							"type": "uint256"
						}
					],
					"name": "swapToken2",
					"outputs": [
						{
							"internalType": "uint256",
							"name": "amountToken1",
							"type": "uint256"
						}
					],
					"stateMutability": "nonpayable",
					"type": "function"
				},
				{
					"inputs": [
						{
							"internalType": "uint256",
							"name": "_share",
							"type": "uint256"
						}
					],
					"name": "withdraw",
					"outputs": [
						{
							"internalType": "uint256",
							"name": "amountToken1",
							"type": "uint256"
						},
						{
							"internalType": "uint256",
							"name": "amountToken2",
							"type": "uint256"
						}
					],
					"stateMutability": "nonpayable",
					"type": "function"
				}
			],
			"devdoc": {
				"kind": "dev",
				"methods": {},
				"version": 1
			},
			"evm": {
				"assembly": "    /* \"AMM.sol\":124:7961  contract AMM {... */\n  mstore(0x40, 0x80)\n  callvalue\n  dup1\n  iszero\n  tag_1\n  jumpi\n  0x00\n  dup1\n  revert\ntag_1:\n  pop\n  dataSize(sub_0)\n  dup1\n  dataOffset(sub_0)\n  0x00\n  codecopy\n  0x00\n  return\nstop\n\nsub_0: assembly {\n        /* \"AMM.sol\":124:7961  contract AMM {... */\n      mstore(0x40, 0x80)\n      callvalue\n      dup1\n      iszero\n      tag_1\n      jumpi\n      0x00\n      dup1\n      revert\n    tag_1:\n      pop\n      jumpi(tag_2, lt(calldatasize, 0x04))\n      shr(0xe0, calldataload(0x00))\n      dup1\n      0xaca34c11\n      gt\n      tag_17\n      jumpi\n      dup1\n      0xd3817b4a\n      gt\n      tag_18\n      jumpi\n      dup1\n      0xd3817b4a\n      eq\n      tag_13\n      jumpi\n      dup1\n      0xe8c3c54f\n      eq\n      tag_14\n      jumpi\n      dup1\n      0xf4cb34d4\n      eq\n      tag_15\n      jumpi\n      dup1\n      0xf9813798\n      eq\n      tag_16\n      jumpi\n      jump(tag_2)\n    tag_18:\n      dup1\n      0xaca34c11\n      eq\n      tag_10\n      jumpi\n      dup1\n      0xb3244041\n      eq\n      tag_11\n      jumpi\n      dup1\n      0xd212b440\n      eq\n      tag_12\n      jumpi\n      jump(tag_2)\n    tag_17:\n      dup1\n      0x450177c6\n      gt\n      tag_19\n      jumpi\n      dup1\n      0x450177c6\n      eq\n      tag_6\n      jumpi\n      dup1\n      0x7565a92b\n      eq\n      tag_7\n      jumpi\n      dup1\n      0x91e0dbb8\n      eq\n      tag_8\n      jumpi\n      dup1\n      0x980d69d3\n      eq\n      tag_9\n      jumpi\n      jump(tag_2)\n    tag_19:\n      dup1\n      0x078b7fdc\n      eq\n      tag_3\n      jumpi\n      dup1\n      0x2e1a7d4d\n      eq\n      tag_4\n      jumpi\n      dup1\n      0x319bb38f\n      eq\n      tag_5\n      jumpi\n    tag_2:\n      0x00\n      dup1\n      revert\n        /* \"AMM.sol\":2366:2552  function getEquivalentToken1Estimate(uint256 _amountToken2) public view activePool returns(uint256 reqToken1) {... */\n    tag_3:\n      tag_20\n      0x04\n      dup1\n      calldatasize\n      sub\n      dup2\n      add\n      swap1\n      tag_21\n      swap2\n      swap1\n      tag_22\n      jump\t// in\n    tag_21:\n      tag_23\n      jump\t// in\n    tag_20:\n      mload(0x40)\n      tag_24\n      swap2\n      swap1\n      tag_25\n      jump\t// in\n    tag_24:\n      mload(0x40)\n      dup1\n      swap2\n      sub\n      swap1\n      return\n        /* \"AMM.sol\":4475:4987  function withdraw(uint256 _share) external activePool validAmountCheck(shares, _share) returns(uint256 amountToken1, uint256 amountToken2) {... */\n    tag_4:\n      tag_26\n      0x04\n      dup1\n      calldatasize\n      sub\n      dup2\n      add\n      swap1\n      tag_27\n      swap2\n      swap1\n      tag_22\n      jump\t// in\n    tag_27:\n      tag_28\n      jump\t// in\n    tag_26:\n      mload(0x40)\n      tag_29\n      swap3\n      swap2\n      swap1\n      tag_30\n      jump\t// in\n    tag_29:\n      mload(0x40)\n      dup1\n      swap2\n      sub\n      swap1\n      return\n        /* \"AMM.sol\":2662:2848  function getEquivalentToken2Estimate(uint256 _amountToken1) public view activePool returns(uint256 reqToken2) {... */\n    tag_5:\n      tag_31\n      0x04\n      dup1\n      calldatasize\n      sub\n      dup2\n      add\n      swap1\n      tag_32\n      swap2\n      swap1\n      tag_22\n      jump\t// in\n    tag_32:\n      tag_33\n      jump\t// in\n    tag_31:\n      mload(0x40)\n      tag_34\n      swap2\n      swap1\n      tag_25\n      jump\t// in\n    tag_34:\n      mload(0x40)\n      dup1\n      swap2\n      sub\n      swap1\n      return\n        /* \"AMM.sol\":5102:5528  function getSwapToken1Estimate(uint256 _amountToken1) public view activePool returns(uint256 amountToken2) {... */\n    tag_6:\n      tag_35\n      0x04\n      dup1\n      calldatasize\n      sub\n      dup2\n      add\n      swap1\n      tag_36\n      swap2\n      swap1\n      tag_22\n      jump\t// in\n    tag_36:\n      tag_37\n      jump\t// in\n    tag_35:\n      mload(0x40)\n      tag_38\n      swap2\n      swap1\n      tag_25\n      jump\t// in\n    tag_38:\n      mload(0x40)\n      dup1\n      swap2\n      sub\n      swap1\n      return\n        /* \"AMM.sol\":7117:7482  function getSwapToken2EstimateGivenToken1(uint256 _amountToken1) public view activePool returns(uint256 amountToken2) {... */\n    tag_7:\n      tag_39\n      0x04\n      dup1\n      calldatasize\n      sub\n      dup2\n      add\n      swap1\n      tag_40\n      swap2\n      swap1\n      tag_22\n      jump\t// in\n    tag_40:\n      tag_41\n      jump\t// in\n    tag_39:\n      mload(0x40)\n      tag_42\n      swap2\n      swap1\n      tag_25\n      jump\t// in\n    tag_42:\n      mload(0x40)\n      dup1\n      swap2\n      sub\n      swap1\n      return\n        /* \"AMM.sol\":1746:1999  function getMyHoldings() external view returns(uint256 amountToken1, uint256 amountToken2, uint256 myShare) {... */\n    tag_8:\n      tag_43\n      tag_44\n      jump\t// in\n    tag_43:\n      mload(0x40)\n      tag_45\n      swap4\n      swap3\n      swap2\n      swap1\n      tag_46\n      jump\t// in\n    tag_45:\n      mload(0x40)\n      dup1\n      swap2\n      sub\n      swap1\n      return\n        /* \"AMM.sol\":7572:7959  function swapToken2(uint256 _amountToken2) external activePool validAmountCheck(token2Balance, _amountToken2) returns(uint256 amountToken1) {... */\n    tag_9:\n      tag_47\n      0x04\n      dup1\n      calldatasize\n      sub\n      dup2\n      add\n      swap1\n      tag_48\n      swap2\n      swap1\n      tag_22\n      jump\t// in\n    tag_48:\n      tag_49\n      jump\t// in\n    tag_47:\n      mload(0x40)\n      tag_50\n      swap2\n      swap1\n      tag_25\n      jump\t// in\n    tag_50:\n      mload(0x40)\n      dup1\n      swap2\n      sub\n      swap1\n      return\n        /* \"AMM.sol\":2118:2256  function getPoolDetails() external view returns(uint256, uint256, uint256) {... */\n    tag_10:\n      tag_51\n      tag_52\n      jump\t// in\n    tag_51:\n      mload(0x40)\n      tag_53\n      swap4\n      swap3\n      swap2\n      swap1\n      tag_46\n      jump\t// in\n    tag_53:\n      mload(0x40)\n      dup1\n      swap2\n      sub\n      swap1\n      return\n        /* \"AMM.sol\":4032:4369  function getWithdrawEstimate(uint256 _share) public view activePool returns(uint256 amountToken1, uint256 amountToken2) {... */\n    tag_11:\n      tag_54\n      0x04\n      dup1\n      calldatasize\n      sub\n      dup2\n      add\n      swap1\n      tag_55\n      swap2\n      swap1\n      tag_22\n      jump\t// in\n    tag_55:\n      tag_56\n      jump\t// in\n    tag_54:\n      mload(0x40)\n      tag_57\n      swap3\n      swap2\n      swap1\n      tag_30\n      jump\t// in\n    tag_57:\n      mload(0x40)\n      dup1\n      swap2\n      sub\n      swap1\n      return\n        /* \"AMM.sol\":5631:5996  function getSwapToken1EstimateGivenToken2(uint256 _amountToken2) public view activePool returns(uint256 amountToken1) {... */\n    tag_12:\n      tag_58\n      0x04\n      dup1\n      calldatasize\n      sub\n      dup2\n      add\n      swap1\n      tag_59\n      swap2\n      swap1\n      tag_22\n      jump\t// in\n    tag_59:\n      tag_60\n      jump\t// in\n    tag_58:\n      mload(0x40)\n      tag_61\n      swap2\n      swap1\n      tag_25\n      jump\t// in\n    tag_61:\n      mload(0x40)\n      dup1\n      swap2\n      sub\n      swap1\n      return\n        /* \"AMM.sol\":6588:7014  function getSwapToken2Estimate(uint256 _amountToken2) public view activePool returns(uint256 amountToken1) {... */\n    tag_13:\n      tag_62\n      0x04\n      dup1\n      calldatasize\n      sub\n      dup2\n      add\n      swap1\n      tag_63\n      swap2\n      swap1\n      tag_22\n      jump\t// in\n    tag_63:\n      tag_64\n      jump\t// in\n    tag_62:\n      mload(0x40)\n      tag_65\n      swap2\n      swap1\n      tag_25\n      jump\t// in\n    tag_65:\n      mload(0x40)\n      dup1\n      swap2\n      sub\n      swap1\n      return\n        /* \"AMM.sol\":2961:3933  function provide(uint256 _amountToken1, uint256 _amountToken2) external validAmountCheck(token1Balance, _amountToken1) validAmountCheck(token2Balance, _amountToken2) returns(uint256 share) {... */\n    tag_14:\n      tag_66\n      0x04\n      dup1\n      calldatasize\n      sub\n      dup2\n      add\n      swap1\n      tag_67\n      swap2\n      swap1\n      tag_68\n      jump\t// in\n    tag_67:\n      tag_69\n      jump\t// in\n    tag_66:\n      mload(0x40)\n      tag_70\n      swap2\n      swap1\n      tag_25\n      jump\t// in\n    tag_70:\n      mload(0x40)\n      dup1\n      swap2\n      sub\n      swap1\n      return\n        /* \"AMM.sol\":6086:6473  function swapToken1(uint256 _amountToken1) external activePool validAmountCheck(token1Balance, _amountToken1) returns(uint256 amountToken2) {... */\n    tag_15:\n      tag_71\n      0x04\n      dup1\n      calldatasize\n      sub\n      dup2\n      add\n      swap1\n      tag_72\n      swap2\n      swap1\n      tag_22\n      jump\t// in\n    tag_72:\n      tag_73\n      jump\t// in\n    tag_71:\n      mload(0x40)\n      tag_74\n      swap2\n      swap1\n      tag_25\n      jump\t// in\n    tag_74:\n      mload(0x40)\n      dup1\n      swap2\n      sub\n      swap1\n      return\n        /* \"AMM.sol\":1455:1697  function faucet(uint256 _amountToken1, uint256 _amountToken2) external {... */\n    tag_16:\n      tag_75\n      0x04\n      dup1\n      calldatasize\n      sub\n      dup2\n      add\n      swap1\n      tag_76\n      swap2\n      swap1\n      tag_68\n      jump\t// in\n    tag_76:\n      tag_77\n      jump\t// in\n    tag_75:\n      stop\n        /* \"AMM.sol\":2366:2552  function getEquivalentToken1Estimate(uint256 _amountToken2) public view activePool returns(uint256 reqToken1) {... */\n    tag_23:\n        /* \"AMM.sol\":2457:2474  uint256 reqToken1 */\n      0x00\n        /* \"AMM.sol\":1369:1370  0 */\n      dup1\n        /* \"AMM.sol\":1355:1366  totalShares */\n      sload(0x00)\n        /* \"AMM.sol\":1355:1370  totalShares > 0 */\n      gt\n        /* \"AMM.sol\":1347:1389  require(totalShares > 0, \"Zero Liquidity\") */\n      tag_79\n      jumpi\n      mload(0x40)\n      0x08c379a000000000000000000000000000000000000000000000000000000000\n      dup2\n      mstore\n      0x04\n      add\n      tag_80\n      swap1\n      tag_81\n      jump\t// in\n    tag_80:\n      mload(0x40)\n      dup1\n      swap2\n      sub\n      swap1\n      revert\n    tag_79:\n        /* \"AMM.sol\":2498:2545  totalToken1.mul(_amountToken2).div(totalToken2) */\n      tag_83\n        /* \"AMM.sol\":2533:2544  totalToken2 */\n      sload(0x02)\n        /* \"AMM.sol\":2498:2528  totalToken1.mul(_amountToken2) */\n      tag_84\n        /* \"AMM.sol\":2514:2527  _amountToken2 */\n      dup5\n        /* \"AMM.sol\":2498:2509  totalToken1 */\n      sload(0x01)\n        /* \"AMM.sol\":2498:2513  totalToken1.mul */\n      tag_85\n      swap1\n        /* \"AMM.sol\":2498:2528  totalToken1.mul(_amountToken2) */\n      swap2\n      swap1\n      0xffffffff\n      and\n      jump\t// in\n    tag_84:\n        /* \"AMM.sol\":2498:2532  totalToken1.mul(_amountToken2).div */\n      tag_86\n      swap1\n        /* \"AMM.sol\":2498:2545  totalToken1.mul(_amountToken2).div(totalToken2) */\n      swap2\n      swap1\n      0xffffffff\n      and\n      jump\t// in\n    tag_83:\n        /* \"AMM.sol\":2486:2545  reqToken1 = totalToken1.mul(_amountToken2).div(totalToken2) */\n      swap1\n      pop\n        /* \"AMM.sol\":2366:2552  function getEquivalentToken1Estimate(uint256 _amountToken2) public view activePool returns(uint256 reqToken1) {... */\n      swap2\n      swap1\n      pop\n      jump\t// out\n        /* \"AMM.sol\":4475:4987  function withdraw(uint256 _share) external activePool validAmountCheck(shares, _share) returns(uint256 amountToken1, uint256 amountToken2) {... */\n    tag_28:\n        /* \"AMM.sol\":4570:4590  uint256 amountToken1 */\n      0x00\n        /* \"AMM.sol\":4592:4612  uint256 amountToken2 */\n      dup1\n        /* \"AMM.sol\":1369:1370  0 */\n      0x00\n        /* \"AMM.sol\":1355:1366  totalShares */\n      dup1\n      sload\n        /* \"AMM.sol\":1355:1370  totalShares > 0 */\n      gt\n        /* \"AMM.sol\":1347:1389  require(totalShares > 0, \"Zero Liquidity\") */\n      tag_88\n      jumpi\n      mload(0x40)\n      0x08c379a000000000000000000000000000000000000000000000000000000000\n      dup2\n      mstore\n      0x04\n      add\n      tag_89\n      swap1\n      tag_81\n      jump\t// in\n    tag_89:\n      mload(0x40)\n      dup1\n      swap2\n      sub\n      swap1\n      revert\n    tag_88:\n        /* \"AMM.sol\":4546:4552  shares */\n      0x04\n        /* \"AMM.sol\":4554:4560  _share */\n      dup4\n        /* \"AMM.sol\":1113:1114  0 */\n      0x00\n        /* \"AMM.sol\":1106:1110  _qty */\n      dup2\n        /* \"AMM.sol\":1106:1114  _qty > 0 */\n      gt\n        /* \"AMM.sol\":1098:1141  require(_qty > 0, \"Amount cannot be zero!\") */\n      tag_91\n      jumpi\n      mload(0x40)\n      0x08c379a000000000000000000000000000000000000000000000000000000000\n      dup2\n      mstore\n      0x04\n      add\n      tag_92\n      swap1\n      tag_93\n      jump\t// in\n    tag_92:\n      mload(0x40)\n      dup1\n      swap2\n      sub\n      swap1\n      revert\n    tag_91:\n        /* \"AMM.sol\":1167:1175  _balance */\n      dup2\n        /* \"AMM.sol\":1167:1187  _balance[msg.sender] */\n      0x00\n        /* \"AMM.sol\":1176:1186  msg.sender */\n      caller\n        /* \"AMM.sol\":1167:1187  _balance[msg.sender] */\n      0xffffffffffffffffffffffffffffffffffffffff\n      and\n      0xffffffffffffffffffffffffffffffffffffffff\n      and\n      dup2\n      mstore\n      0x20\n      add\n      swap1\n      dup2\n      mstore\n      0x20\n      add\n      0x00\n      keccak256\n      sload\n        /* \"AMM.sol\":1159:1163  _qty */\n      dup2\n        /* \"AMM.sol\":1159:1187  _qty <= _balance[msg.sender] */\n      gt\n      iszero\n        /* \"AMM.sol\":1151:1211  require(_qty <= _balance[msg.sender], \"Insufficient amount\") */\n      tag_94\n      jumpi\n      mload(0x40)\n      0x08c379a000000000000000000000000000000000000000000000000000000000\n      dup2\n      mstore\n      0x04\n      add\n      tag_95\n      swap1\n      tag_96\n      jump\t// in\n    tag_95:\n      mload(0x40)\n      dup1\n      swap2\n      sub\n      swap1\n      revert\n    tag_94:\n        /* \"AMM.sol\":4655:4682  getWithdrawEstimate(_share) */\n      tag_98\n        /* \"AMM.sol\":4675:4681  _share */\n      dup6\n        /* \"AMM.sol\":4655:4674  getWithdrawEstimate */\n      tag_56\n        /* \"AMM.sol\":4655:4682  getWithdrawEstimate(_share) */\n      jump\t// in\n    tag_98:\n        /* \"AMM.sol\":4624:4682  (amountToken1, amountToken2) = getWithdrawEstimate(_share) */\n      dup1\n      swap5\n      pop\n      dup2\n      swap6\n      pop\n      pop\n      pop\n        /* \"AMM.sol\":4723:4729  _share */\n      dup5\n        /* \"AMM.sol\":4701:4707  shares */\n      0x04\n        /* \"AMM.sol\":4701:4719  shares[msg.sender] */\n      0x00\n        /* \"AMM.sol\":4708:4718  msg.sender */\n      caller\n        /* \"AMM.sol\":4701:4719  shares[msg.sender] */\n      0xffffffffffffffffffffffffffffffffffffffff\n      and\n      0xffffffffffffffffffffffffffffffffffffffff\n      and\n      dup2\n      mstore\n      0x20\n      add\n      swap1\n      dup2\n      mstore\n      0x20\n      add\n      0x00\n      keccak256\n      0x00\n        /* \"AMM.sol\":4701:4729  shares[msg.sender] -= _share */\n      dup3\n      dup3\n      sload\n      tag_99\n      swap2\n      swap1\n      tag_100\n      jump\t// in\n    tag_99:\n      swap3\n      pop\n      pop\n      dup2\n      swap1\n      sstore\n      pop\n        /* \"AMM.sol\":4754:4760  _share */\n      dup5\n        /* \"AMM.sol\":4739:4750  totalShares */\n      0x00\n      dup1\n        /* \"AMM.sol\":4739:4760  totalShares -= _share */\n      dup3\n      dup3\n      sload\n      tag_101\n      swap2\n      swap1\n      tag_100\n      jump\t// in\n    tag_101:\n      swap3\n      pop\n      pop\n      dup2\n      swap1\n      sstore\n      pop\n        /* \"AMM.sol\":4786:4798  amountToken1 */\n      dup4\n        /* \"AMM.sol\":4771:4782  totalToken1 */\n      0x01\n      0x00\n        /* \"AMM.sol\":4771:4798  totalToken1 -= amountToken1 */\n      dup3\n      dup3\n      sload\n      tag_102\n      swap2\n      swap1\n      tag_100\n      jump\t// in\n    tag_102:\n      swap3\n      pop\n      pop\n      dup2\n      swap1\n      sstore\n      pop\n        /* \"AMM.sol\":4823:4835  amountToken2 */\n      dup3\n        /* \"AMM.sol\":4808:4819  totalToken2 */\n      0x02\n      0x00\n        /* \"AMM.sol\":4808:4835  totalToken2 -= amountToken2 */\n      dup3\n      dup3\n      sload\n      tag_103\n      swap2\n      swap1\n      tag_100\n      jump\t// in\n    tag_103:\n      swap3\n      pop\n      pop\n      dup2\n      swap1\n      sstore\n      pop\n        /* \"AMM.sol\":4849:4877  totalToken1.mul(totalToken2) */\n      tag_104\n        /* \"AMM.sol\":4865:4876  totalToken2 */\n      sload(0x02)\n        /* \"AMM.sol\":4849:4860  totalToken1 */\n      sload(0x01)\n        /* \"AMM.sol\":4849:4864  totalToken1.mul */\n      tag_85\n      swap1\n        /* \"AMM.sol\":4849:4877  totalToken1.mul(totalToken2) */\n      swap2\n      swap1\n      0xffffffff\n      and\n      jump\t// in\n    tag_104:\n        /* \"AMM.sol\":4845:4846  K */\n      0x03\n        /* \"AMM.sol\":4845:4877  K = totalToken1.mul(totalToken2) */\n      dup2\n      swap1\n      sstore\n      pop\n        /* \"AMM.sol\":4917:4929  amountToken1 */\n      dup4\n        /* \"AMM.sol\":4888:4901  token1Balance */\n      0x05\n        /* \"AMM.sol\":4888:4913  token1Balance[msg.sender] */\n      0x00\n        /* \"AMM.sol\":4902:4912  msg.sender */\n      caller\n        /* \"AMM.sol\":4888:4913  token1Balance[msg.sender] */\n      0xffffffffffffffffffffffffffffffffffffffff\n      and\n      0xffffffffffffffffffffffffffffffffffffffff\n      and\n      dup2\n      mstore\n      0x20\n      add\n      swap1\n      dup2\n      mstore\n      0x20\n      add\n      0x00\n      keccak256\n      0x00\n        /* \"AMM.sol\":4888:4929  token1Balance[msg.sender] += amountToken1 */\n      dup3\n      dup3\n      sload\n      tag_105\n      swap2\n      swap1\n      tag_106\n      jump\t// in\n    tag_105:\n      swap3\n      pop\n      pop\n      dup2\n      swap1\n      sstore\n      pop\n        /* \"AMM.sol\":4968:4980  amountToken2 */\n      dup3\n        /* \"AMM.sol\":4939:4952  token2Balance */\n      0x06\n        /* \"AMM.sol\":4939:4964  token2Balance[msg.sender] */\n      0x00\n        /* \"AMM.sol\":4953:4963  msg.sender */\n      caller\n        /* \"AMM.sol\":4939:4964  token2Balance[msg.sender] */\n      0xffffffffffffffffffffffffffffffffffffffff\n      and\n      0xffffffffffffffffffffffffffffffffffffffff\n      and\n      dup2\n      mstore\n      0x20\n      add\n      swap1\n      dup2\n      mstore\n      0x20\n      add\n      0x00\n      keccak256\n      0x00\n        /* \"AMM.sol\":4939:4980  token2Balance[msg.sender] += amountToken2 */\n      dup3\n      dup3\n      sload\n      tag_107\n      swap2\n      swap1\n      tag_106\n      jump\t// in\n    tag_107:\n      swap3\n      pop\n      pop\n      dup2\n      swap1\n      sstore\n      pop\n        /* \"AMM.sol\":1399:1400  _ */\n      pop\n      pop\n        /* \"AMM.sol\":4475:4987  function withdraw(uint256 _share) external activePool validAmountCheck(shares, _share) returns(uint256 amountToken1, uint256 amountToken2) {... */\n      swap2\n      pop\n      swap2\n      jump\t// out\n        /* \"AMM.sol\":2662:2848  function getEquivalentToken2Estimate(uint256 _amountToken1) public view activePool returns(uint256 reqToken2) {... */\n    tag_33:\n        /* \"AMM.sol\":2753:2770  uint256 reqToken2 */\n      0x00\n        /* \"AMM.sol\":1369:1370  0 */\n      dup1\n        /* \"AMM.sol\":1355:1366  totalShares */\n      sload(0x00)\n        /* \"AMM.sol\":1355:1370  totalShares > 0 */\n      gt\n        /* \"AMM.sol\":1347:1389  require(totalShares > 0, \"Zero Liquidity\") */\n      tag_109\n      jumpi\n      mload(0x40)\n      0x08c379a000000000000000000000000000000000000000000000000000000000\n      dup2\n      mstore\n      0x04\n      add\n      tag_110\n      swap1\n      tag_81\n      jump\t// in\n    tag_110:\n      mload(0x40)\n      dup1\n      swap2\n      sub\n      swap1\n      revert\n    tag_109:\n        /* \"AMM.sol\":2794:2841  totalToken2.mul(_amountToken1).div(totalToken1) */\n      tag_112\n        /* \"AMM.sol\":2829:2840  totalToken1 */\n      sload(0x01)\n        /* \"AMM.sol\":2794:2824  totalToken2.mul(_amountToken1) */\n      tag_113\n        /* \"AMM.sol\":2810:2823  _amountToken1 */\n      dup5\n        /* \"AMM.sol\":2794:2805  totalToken2 */\n      sload(0x02)\n        /* \"AMM.sol\":2794:2809  totalToken2.mul */\n      tag_85\n      swap1\n        /* \"AMM.sol\":2794:2824  totalToken2.mul(_amountToken1) */\n      swap2\n      swap1\n      0xffffffff\n      and\n      jump\t// in\n    tag_113:\n        /* \"AMM.sol\":2794:2828  totalToken2.mul(_amountToken1).div */\n      tag_86\n      swap1\n        /* \"AMM.sol\":2794:2841  totalToken2.mul(_amountToken1).div(totalToken1) */\n      swap2\n      swap1\n      0xffffffff\n      and\n      jump\t// in\n    tag_112:\n        /* \"AMM.sol\":2782:2841  reqToken2 = totalToken2.mul(_amountToken1).div(totalToken1) */\n      swap1\n      pop\n        /* \"AMM.sol\":2662:2848  function getEquivalentToken2Estimate(uint256 _amountToken1) public view activePool returns(uint256 reqToken2) {... */\n      swap2\n      swap1\n      pop\n      jump\t// out\n        /* \"AMM.sol\":5102:5528  function getSwapToken1Estimate(uint256 _amountToken1) public view activePool returns(uint256 amountToken2) {... */\n    tag_37:\n        /* \"AMM.sol\":5187:5207  uint256 amountToken2 */\n      0x00\n        /* \"AMM.sol\":1369:1370  0 */\n      dup1\n        /* \"AMM.sol\":1355:1366  totalShares */\n      sload(0x00)\n        /* \"AMM.sol\":1355:1370  totalShares > 0 */\n      gt\n        /* \"AMM.sol\":1347:1389  require(totalShares > 0, \"Zero Liquidity\") */\n      tag_115\n      jumpi\n      mload(0x40)\n      0x08c379a000000000000000000000000000000000000000000000000000000000\n      dup2\n      mstore\n      0x04\n      add\n      tag_116\n      swap1\n      tag_81\n      jump\t// in\n    tag_116:\n      mload(0x40)\n      dup1\n      swap2\n      sub\n      swap1\n      revert\n    tag_115:\n        /* \"AMM.sol\":5219:5238  uint256 token1After */\n      0x00\n        /* \"AMM.sol\":5241:5271  totalToken1.add(_amountToken1) */\n      tag_118\n        /* \"AMM.sol\":5257:5270  _amountToken1 */\n      dup4\n        /* \"AMM.sol\":5241:5252  totalToken1 */\n      sload(0x01)\n        /* \"AMM.sol\":5241:5256  totalToken1.add */\n      tag_119\n      swap1\n        /* \"AMM.sol\":5241:5271  totalToken1.add(_amountToken1) */\n      swap2\n      swap1\n      0xffffffff\n      and\n      jump\t// in\n    tag_118:\n        /* \"AMM.sol\":5219:5271  uint256 token1After = totalToken1.add(_amountToken1) */\n      swap1\n      pop\n        /* \"AMM.sol\":5281:5300  uint256 token2After */\n      0x00\n        /* \"AMM.sol\":5303:5321  K.div(token1After) */\n      tag_120\n        /* \"AMM.sol\":5309:5320  token1After */\n      dup3\n        /* \"AMM.sol\":5303:5304  K */\n      sload(0x03)\n        /* \"AMM.sol\":5303:5308  K.div */\n      tag_86\n      swap1\n        /* \"AMM.sol\":5303:5321  K.div(token1After) */\n      swap2\n      swap1\n      0xffffffff\n      and\n      jump\t// in\n    tag_120:\n        /* \"AMM.sol\":5281:5321  uint256 token2After = K.div(token1After) */\n      swap1\n      pop\n        /* \"AMM.sol\":5346:5374  totalToken2.sub(token2After) */\n      tag_121\n        /* \"AMM.sol\":5362:5373  token2After */\n      dup2\n        /* \"AMM.sol\":5346:5357  totalToken2 */\n      sload(0x02)\n        /* \"AMM.sol\":5346:5361  totalToken2.sub */\n      tag_122\n      swap1\n        /* \"AMM.sol\":5346:5374  totalToken2.sub(token2After) */\n      swap2\n      swap1\n      0xffffffff\n      and\n      jump\t// in\n    tag_121:\n        /* \"AMM.sol\":5331:5374  amountToken2 = totalToken2.sub(token2After) */\n      swap3\n      pop\n        /* \"AMM.sol\":5494:5505  totalToken2 */\n      sload(0x02)\n        /* \"AMM.sol\":5478:5490  amountToken2 */\n      dup4\n        /* \"AMM.sol\":5478:5505  amountToken2 == totalToken2 */\n      sub\n        /* \"AMM.sol\":5475:5521  if(amountToken2 == totalToken2) amountToken2-- */\n      tag_123\n      jumpi\n        /* \"AMM.sol\":5507:5521  amountToken2-- */\n      dup3\n      dup1\n      tag_124\n      swap1\n      tag_125\n      jump\t// in\n    tag_124:\n      swap4\n      pop\n      pop\n        /* \"AMM.sol\":5475:5521  if(amountToken2 == totalToken2) amountToken2-- */\n    tag_123:\n        /* \"AMM.sol\":5209:5528  {... */\n      pop\n      pop\n        /* \"AMM.sol\":5102:5528  function getSwapToken1Estimate(uint256 _amountToken1) public view activePool returns(uint256 amountToken2) {... */\n      swap2\n      swap1\n      pop\n      jump\t// out\n        /* \"AMM.sol\":7117:7482  function getSwapToken2EstimateGivenToken1(uint256 _amountToken1) public view activePool returns(uint256 amountToken2) {... */\n    tag_41:\n        /* \"AMM.sol\":7213:7233  uint256 amountToken2 */\n      0x00\n        /* \"AMM.sol\":1369:1370  0 */\n      dup1\n        /* \"AMM.sol\":1355:1366  totalShares */\n      sload(0x00)\n        /* \"AMM.sol\":1355:1370  totalShares > 0 */\n      gt\n        /* \"AMM.sol\":1347:1389  require(totalShares > 0, \"Zero Liquidity\") */\n      tag_127\n      jumpi\n      mload(0x40)\n      0x08c379a000000000000000000000000000000000000000000000000000000000\n      dup2\n      mstore\n      0x04\n      add\n      tag_128\n      swap1\n      tag_81\n      jump\t// in\n    tag_128:\n      mload(0x40)\n      dup1\n      swap2\n      sub\n      swap1\n      revert\n    tag_127:\n        /* \"AMM.sol\":7269:7280  totalToken1 */\n      sload(0x01)\n        /* \"AMM.sol\":7253:7266  _amountToken1 */\n      dup3\n        /* \"AMM.sol\":7253:7280  _amountToken1 < totalToken1 */\n      lt\n        /* \"AMM.sol\":7245:7310  require(_amountToken1 < totalToken1, \"Insufficient pool balance\") */\n      tag_130\n      jumpi\n      mload(0x40)\n      0x08c379a000000000000000000000000000000000000000000000000000000000\n      dup2\n      mstore\n      0x04\n      add\n      tag_131\n      swap1\n      tag_132\n      jump\t// in\n    tag_131:\n      mload(0x40)\n      dup1\n      swap2\n      sub\n      swap1\n      revert\n    tag_130:\n        /* \"AMM.sol\":7320:7339  uint256 token1After */\n      0x00\n        /* \"AMM.sol\":7342:7372  totalToken1.sub(_amountToken1) */\n      tag_133\n        /* \"AMM.sol\":7358:7371  _amountToken1 */\n      dup4\n        /* \"AMM.sol\":7342:7353  totalToken1 */\n      sload(0x01)\n        /* \"AMM.sol\":7342:7357  totalToken1.sub */\n      tag_122\n      swap1\n        /* \"AMM.sol\":7342:7372  totalToken1.sub(_amountToken1) */\n      swap2\n      swap1\n      0xffffffff\n      and\n      jump\t// in\n    tag_133:\n        /* \"AMM.sol\":7320:7372  uint256 token1After = totalToken1.sub(_amountToken1) */\n      swap1\n      pop\n        /* \"AMM.sol\":7382:7401  uint256 token2After */\n      0x00\n        /* \"AMM.sol\":7404:7422  K.div(token1After) */\n      tag_134\n        /* \"AMM.sol\":7410:7421  token1After */\n      dup3\n        /* \"AMM.sol\":7404:7405  K */\n      sload(0x03)\n        /* \"AMM.sol\":7404:7409  K.div */\n      tag_86\n      swap1\n        /* \"AMM.sol\":7404:7422  K.div(token1After) */\n      swap2\n      swap1\n      0xffffffff\n      and\n      jump\t// in\n    tag_134:\n        /* \"AMM.sol\":7382:7422  uint256 token2After = K.div(token1After) */\n      swap1\n      pop\n        /* \"AMM.sol\":7447:7475  token2After.sub(totalToken2) */\n      tag_135\n        /* \"AMM.sol\":7463:7474  totalToken2 */\n      sload(0x02)\n        /* \"AMM.sol\":7447:7458  token2After */\n      dup3\n        /* \"AMM.sol\":7447:7462  token2After.sub */\n      tag_122\n      swap1\n        /* \"AMM.sol\":7447:7475  token2After.sub(totalToken2) */\n      swap2\n      swap1\n      0xffffffff\n      and\n      jump\t// in\n    tag_135:\n        /* \"AMM.sol\":7432:7475  amountToken2 = token2After.sub(totalToken2) */\n      swap3\n      pop\n        /* \"AMM.sol\":7235:7482  {... */\n      pop\n      pop\n        /* \"AMM.sol\":7117:7482  function getSwapToken2EstimateGivenToken1(uint256 _amountToken1) public view activePool returns(uint256 amountToken2) {... */\n      swap2\n      swap1\n      pop\n      jump\t// out\n        /* \"AMM.sol\":1746:1999  function getMyHoldings() external view returns(uint256 amountToken1, uint256 amountToken2, uint256 myShare) {... */\n    tag_44:\n        /* \"AMM.sol\":1793:1813  uint256 amountToken1 */\n      0x00\n        /* \"AMM.sol\":1815:1835  uint256 amountToken2 */\n      dup1\n        /* \"AMM.sol\":1837:1852  uint256 myShare */\n      0x00\n        /* \"AMM.sol\":1879:1892  token1Balance */\n      0x05\n        /* \"AMM.sol\":1879:1904  token1Balance[msg.sender] */\n      0x00\n        /* \"AMM.sol\":1893:1903  msg.sender */\n      caller\n        /* \"AMM.sol\":1879:1904  token1Balance[msg.sender] */\n      0xffffffffffffffffffffffffffffffffffffffff\n      and\n      0xffffffffffffffffffffffffffffffffffffffff\n      and\n      dup2\n      mstore\n      0x20\n      add\n      swap1\n      dup2\n      mstore\n      0x20\n      add\n      0x00\n      keccak256\n      sload\n        /* \"AMM.sol\":1864:1904  amountToken1 = token1Balance[msg.sender] */\n      swap3\n      pop\n        /* \"AMM.sol\":1929:1942  token2Balance */\n      0x06\n        /* \"AMM.sol\":1929:1954  token2Balance[msg.sender] */\n      0x00\n        /* \"AMM.sol\":1943:1953  msg.sender */\n      caller\n        /* \"AMM.sol\":1929:1954  token2Balance[msg.sender] */\n      0xffffffffffffffffffffffffffffffffffffffff\n      and\n      0xffffffffffffffffffffffffffffffffffffffff\n      and\n      dup2\n      mstore\n      0x20\n      add\n      swap1\n      dup2\n      mstore\n      0x20\n      add\n      0x00\n      keccak256\n      sload\n        /* \"AMM.sol\":1914:1954  amountToken2 = token2Balance[msg.sender] */\n      swap2\n      pop\n        /* \"AMM.sol\":1974:1980  shares */\n      0x04\n        /* \"AMM.sol\":1974:1992  shares[msg.sender] */\n      0x00\n        /* \"AMM.sol\":1981:1991  msg.sender */\n      caller\n        /* \"AMM.sol\":1974:1992  shares[msg.sender] */\n      0xffffffffffffffffffffffffffffffffffffffff\n      and\n      0xffffffffffffffffffffffffffffffffffffffff\n      and\n      dup2\n      mstore\n      0x20\n      add\n      swap1\n      dup2\n      mstore\n      0x20\n      add\n      0x00\n      keccak256\n      sload\n        /* \"AMM.sol\":1964:1992  myShare = shares[msg.sender] */\n      swap1\n      pop\n        /* \"AMM.sol\":1746:1999  function getMyHoldings() external view returns(uint256 amountToken1, uint256 amountToken2, uint256 myShare) {... */\n      swap1\n      swap2\n      swap3\n      jump\t// out\n        /* \"AMM.sol\":7572:7959  function swapToken2(uint256 _amountToken2) external activePool validAmountCheck(token2Balance, _amountToken2) returns(uint256 amountToken1) {... */\n    tag_49:\n        /* \"AMM.sol\":7690:7710  uint256 amountToken1 */\n      0x00\n        /* \"AMM.sol\":1369:1370  0 */\n      dup1\n        /* \"AMM.sol\":1355:1366  totalShares */\n      sload(0x00)\n        /* \"AMM.sol\":1355:1370  totalShares > 0 */\n      gt\n        /* \"AMM.sol\":1347:1389  require(totalShares > 0, \"Zero Liquidity\") */\n      tag_138\n      jumpi\n      mload(0x40)\n      0x08c379a000000000000000000000000000000000000000000000000000000000\n      dup2\n      mstore\n      0x04\n      add\n      tag_139\n      swap1\n      tag_81\n      jump\t// in\n    tag_139:\n      mload(0x40)\n      dup1\n      swap2\n      sub\n      swap1\n      revert\n    tag_138:\n        /* \"AMM.sol\":7652:7665  token2Balance */\n      0x06\n        /* \"AMM.sol\":7667:7680  _amountToken2 */\n      dup3\n        /* \"AMM.sol\":1113:1114  0 */\n      0x00\n        /* \"AMM.sol\":1106:1110  _qty */\n      dup2\n        /* \"AMM.sol\":1106:1114  _qty > 0 */\n      gt\n        /* \"AMM.sol\":1098:1141  require(_qty > 0, \"Amount cannot be zero!\") */\n      tag_141\n      jumpi\n      mload(0x40)\n      0x08c379a000000000000000000000000000000000000000000000000000000000\n      dup2\n      mstore\n      0x04\n      add\n      tag_142\n      swap1\n      tag_93\n      jump\t// in\n    tag_142:\n      mload(0x40)\n      dup1\n      swap2\n      sub\n      swap1\n      revert\n    tag_141:\n        /* \"AMM.sol\":1167:1175  _balance */\n      dup2\n        /* \"AMM.sol\":1167:1187  _balance[msg.sender] */\n      0x00\n        /* \"AMM.sol\":1176:1186  msg.sender */\n      caller\n        /* \"AMM.sol\":1167:1187  _balance[msg.sender] */\n      0xffffffffffffffffffffffffffffffffffffffff\n      and\n      0xffffffffffffffffffffffffffffffffffffffff\n      and\n      dup2\n      mstore\n      0x20\n      add\n      swap1\n      dup2\n      mstore\n      0x20\n      add\n      0x00\n      keccak256\n      sload\n        /* \"AMM.sol\":1159:1163  _qty */\n      dup2\n        /* \"AMM.sol\":1159:1187  _qty <= _balance[msg.sender] */\n      gt\n      iszero\n        /* \"AMM.sol\":1151:1211  require(_qty <= _balance[msg.sender], \"Insufficient amount\") */\n      tag_143\n      jumpi\n      mload(0x40)\n      0x08c379a000000000000000000000000000000000000000000000000000000000\n      dup2\n      mstore\n      0x04\n      add\n      tag_144\n      swap1\n      tag_96\n      jump\t// in\n    tag_144:\n      mload(0x40)\n      dup1\n      swap2\n      sub\n      swap1\n      revert\n    tag_143:\n        /* \"AMM.sol\":7737:7773  getSwapToken2Estimate(_amountToken2) */\n      tag_146\n        /* \"AMM.sol\":7759:7772  _amountToken2 */\n      dup5\n        /* \"AMM.sol\":7737:7758  getSwapToken2Estimate */\n      tag_64\n        /* \"AMM.sol\":7737:7773  getSwapToken2Estimate(_amountToken2) */\n      jump\t// in\n    tag_146:\n        /* \"AMM.sol\":7722:7773  amountToken1 = getSwapToken2Estimate(_amountToken2) */\n      swap3\n      pop\n        /* \"AMM.sol\":7813:7826  _amountToken2 */\n      dup4\n        /* \"AMM.sol\":7784:7797  token2Balance */\n      0x06\n        /* \"AMM.sol\":7784:7809  token2Balance[msg.sender] */\n      0x00\n        /* \"AMM.sol\":7798:7808  msg.sender */\n      caller\n        /* \"AMM.sol\":7784:7809  token2Balance[msg.sender] */\n      0xffffffffffffffffffffffffffffffffffffffff\n      and\n      0xffffffffffffffffffffffffffffffffffffffff\n      and\n      dup2\n      mstore\n      0x20\n      add\n      swap1\n      dup2\n      mstore\n      0x20\n      add\n      0x00\n      keccak256\n      0x00\n        /* \"AMM.sol\":7784:7826  token2Balance[msg.sender] -= _amountToken2 */\n      dup3\n      dup3\n      sload\n      tag_147\n      swap2\n      swap1\n      tag_100\n      jump\t// in\n    tag_147:\n      swap3\n      pop\n      pop\n      dup2\n      swap1\n      sstore\n      pop\n        /* \"AMM.sol\":7851:7864  _amountToken2 */\n      dup4\n        /* \"AMM.sol\":7836:7847  totalToken2 */\n      0x02\n      0x00\n        /* \"AMM.sol\":7836:7864  totalToken2 += _amountToken2 */\n      dup3\n      dup3\n      sload\n      tag_148\n      swap2\n      swap1\n      tag_106\n      jump\t// in\n    tag_148:\n      swap3\n      pop\n      pop\n      dup2\n      swap1\n      sstore\n      pop\n        /* \"AMM.sol\":7889:7901  amountToken1 */\n      dup3\n        /* \"AMM.sol\":7874:7885  totalToken1 */\n      0x01\n      0x00\n        /* \"AMM.sol\":7874:7901  totalToken1 -= amountToken1 */\n      dup3\n      dup3\n      sload\n      tag_149\n      swap2\n      swap1\n      tag_100\n      jump\t// in\n    tag_149:\n      swap3\n      pop\n      pop\n      dup2\n      swap1\n      sstore\n      pop\n        /* \"AMM.sol\":7940:7952  amountToken1 */\n      dup3\n        /* \"AMM.sol\":7911:7924  token1Balance */\n      0x05\n        /* \"AMM.sol\":7911:7936  token1Balance[msg.sender] */\n      0x00\n        /* \"AMM.sol\":7925:7935  msg.sender */\n      caller\n        /* \"AMM.sol\":7911:7936  token1Balance[msg.sender] */\n      0xffffffffffffffffffffffffffffffffffffffff\n      and\n      0xffffffffffffffffffffffffffffffffffffffff\n      and\n      dup2\n      mstore\n      0x20\n      add\n      swap1\n      dup2\n      mstore\n      0x20\n      add\n      0x00\n      keccak256\n      0x00\n        /* \"AMM.sol\":7911:7952  token1Balance[msg.sender] += amountToken1 */\n      dup3\n      dup3\n      sload\n      tag_150\n      swap2\n      swap1\n      tag_106\n      jump\t// in\n    tag_150:\n      swap3\n      pop\n      pop\n      dup2\n      swap1\n      sstore\n      pop\n        /* \"AMM.sol\":1399:1400  _ */\n      pop\n      pop\n        /* \"AMM.sol\":7572:7959  function swapToken2(uint256 _amountToken2) external activePool validAmountCheck(token2Balance, _amountToken2) returns(uint256 amountToken1) {... */\n      swap2\n      swap1\n      pop\n      jump\t// out\n        /* \"AMM.sol\":2118:2256  function getPoolDetails() external view returns(uint256, uint256, uint256) {... */\n    tag_52:\n        /* \"AMM.sol\":2166:2173  uint256 */\n      0x00\n        /* \"AMM.sol\":2175:2182  uint256 */\n      dup1\n        /* \"AMM.sol\":2184:2191  uint256 */\n      0x00\n        /* \"AMM.sol\":2211:2222  totalToken1 */\n      sload(0x01)\n        /* \"AMM.sol\":2224:2235  totalToken2 */\n      sload(0x02)\n        /* \"AMM.sol\":2237:2248  totalShares */\n      sload(0x00)\n        /* \"AMM.sol\":2203:2249  return (totalToken1, totalToken2, totalShares) */\n      swap3\n      pop\n      swap3\n      pop\n      swap3\n      pop\n        /* \"AMM.sol\":2118:2256  function getPoolDetails() external view returns(uint256, uint256, uint256) {... */\n      swap1\n      swap2\n      swap3\n      jump\t// out\n        /* \"AMM.sol\":4032:4369  function getWithdrawEstimate(uint256 _share) public view activePool returns(uint256 amountToken1, uint256 amountToken2) {... */\n    tag_56:\n        /* \"AMM.sol\":4108:4128  uint256 amountToken1 */\n      0x00\n        /* \"AMM.sol\":4130:4150  uint256 amountToken2 */\n      dup1\n        /* \"AMM.sol\":1369:1370  0 */\n      0x00\n        /* \"AMM.sol\":1355:1366  totalShares */\n      dup1\n      sload\n        /* \"AMM.sol\":1355:1370  totalShares > 0 */\n      gt\n        /* \"AMM.sol\":1347:1389  require(totalShares > 0, \"Zero Liquidity\") */\n      tag_153\n      jumpi\n      mload(0x40)\n      0x08c379a000000000000000000000000000000000000000000000000000000000\n      dup2\n      mstore\n      0x04\n      add\n      tag_154\n      swap1\n      tag_81\n      jump\t// in\n    tag_154:\n      mload(0x40)\n      dup1\n      swap2\n      sub\n      swap1\n      revert\n    tag_153:\n        /* \"AMM.sol\":4180:4191  totalShares */\n      sload(0x00)\n        /* \"AMM.sol\":4170:4176  _share */\n      dup4\n        /* \"AMM.sol\":4170:4191  _share <= totalShares */\n      gt\n      iszero\n        /* \"AMM.sol\":4162:4232  require(_share <= totalShares, \"Share should be less than totalShare\") */\n      tag_156\n      jumpi\n      mload(0x40)\n      0x08c379a000000000000000000000000000000000000000000000000000000000\n      dup2\n      mstore\n      0x04\n      add\n      tag_157\n      swap1\n      tag_158\n      jump\t// in\n    tag_157:\n      mload(0x40)\n      dup1\n      swap2\n      sub\n      swap1\n      revert\n    tag_156:\n        /* \"AMM.sol\":4257:4297  _share.mul(totalToken1).div(totalShares) */\n      tag_159\n        /* \"AMM.sol\":4285:4296  totalShares */\n      sload(0x00)\n        /* \"AMM.sol\":4257:4280  _share.mul(totalToken1) */\n      tag_160\n        /* \"AMM.sol\":4268:4279  totalToken1 */\n      sload(0x01)\n        /* \"AMM.sol\":4257:4263  _share */\n      dup7\n        /* \"AMM.sol\":4257:4267  _share.mul */\n      tag_85\n      swap1\n        /* \"AMM.sol\":4257:4280  _share.mul(totalToken1) */\n      swap2\n      swap1\n      0xffffffff\n      and\n      jump\t// in\n    tag_160:\n        /* \"AMM.sol\":4257:4284  _share.mul(totalToken1).div */\n      tag_86\n      swap1\n        /* \"AMM.sol\":4257:4297  _share.mul(totalToken1).div(totalShares) */\n      swap2\n      swap1\n      0xffffffff\n      and\n      jump\t// in\n    tag_159:\n        /* \"AMM.sol\":4242:4297  amountToken1 = _share.mul(totalToken1).div(totalShares) */\n      swap2\n      pop\n        /* \"AMM.sol\":4322:4362  _share.mul(totalToken2).div(totalShares) */\n      tag_161\n        /* \"AMM.sol\":4350:4361  totalShares */\n      sload(0x00)\n        /* \"AMM.sol\":4322:4345  _share.mul(totalToken2) */\n      tag_162\n        /* \"AMM.sol\":4333:4344  totalToken2 */\n      sload(0x02)\n        /* \"AMM.sol\":4322:4328  _share */\n      dup7\n        /* \"AMM.sol\":4322:4332  _share.mul */\n      tag_85\n      swap1\n        /* \"AMM.sol\":4322:4345  _share.mul(totalToken2) */\n      swap2\n      swap1\n      0xffffffff\n      and\n      jump\t// in\n    tag_162:\n        /* \"AMM.sol\":4322:4349  _share.mul(totalToken2).div */\n      tag_86\n      swap1\n        /* \"AMM.sol\":4322:4362  _share.mul(totalToken2).div(totalShares) */\n      swap2\n      swap1\n      0xffffffff\n      and\n      jump\t// in\n    tag_161:\n        /* \"AMM.sol\":4307:4362  amountToken2 = _share.mul(totalToken2).div(totalShares) */\n      swap1\n      pop\n        /* \"AMM.sol\":4032:4369  function getWithdrawEstimate(uint256 _share) public view activePool returns(uint256 amountToken1, uint256 amountToken2) {... */\n      swap2\n      pop\n      swap2\n      jump\t// out\n        /* \"AMM.sol\":5631:5996  function getSwapToken1EstimateGivenToken2(uint256 _amountToken2) public view activePool returns(uint256 amountToken1) {... */\n    tag_60:\n        /* \"AMM.sol\":5727:5747  uint256 amountToken1 */\n      0x00\n        /* \"AMM.sol\":1369:1370  0 */\n      dup1\n        /* \"AMM.sol\":1355:1366  totalShares */\n      sload(0x00)\n        /* \"AMM.sol\":1355:1370  totalShares > 0 */\n      gt\n        /* \"AMM.sol\":1347:1389  require(totalShares > 0, \"Zero Liquidity\") */\n      tag_164\n      jumpi\n      mload(0x40)\n      0x08c379a000000000000000000000000000000000000000000000000000000000\n      dup2\n      mstore\n      0x04\n      add\n      tag_165\n      swap1\n      tag_81\n      jump\t// in\n    tag_165:\n      mload(0x40)\n      dup1\n      swap2\n      sub\n      swap1\n      revert\n    tag_164:\n        /* \"AMM.sol\":5783:5794  totalToken2 */\n      sload(0x02)\n        /* \"AMM.sol\":5767:5780  _amountToken2 */\n      dup3\n        /* \"AMM.sol\":5767:5794  _amountToken2 < totalToken2 */\n      lt\n        /* \"AMM.sol\":5759:5824  require(_amountToken2 < totalToken2, \"Insufficient pool balance\") */\n      tag_167\n      jumpi\n      mload(0x40)\n      0x08c379a000000000000000000000000000000000000000000000000000000000\n      dup2\n      mstore\n      0x04\n      add\n      tag_168\n      swap1\n      tag_132\n      jump\t// in\n    tag_168:\n      mload(0x40)\n      dup1\n      swap2\n      sub\n      swap1\n      revert\n    tag_167:\n        /* \"AMM.sol\":5834:5853  uint256 token2After */\n      0x00\n        /* \"AMM.sol\":5856:5886  totalToken2.sub(_amountToken2) */\n      tag_169\n        /* \"AMM.sol\":5872:5885  _amountToken2 */\n      dup4\n        /* \"AMM.sol\":5856:5867  totalToken2 */\n      sload(0x02)\n        /* \"AMM.sol\":5856:5871  totalToken2.sub */\n      tag_122\n      swap1\n        /* \"AMM.sol\":5856:5886  totalToken2.sub(_amountToken2) */\n      swap2\n      swap1\n      0xffffffff\n      and\n      jump\t// in\n    tag_169:\n        /* \"AMM.sol\":5834:5886  uint256 token2After = totalToken2.sub(_amountToken2) */\n      swap1\n      pop\n        /* \"AMM.sol\":5896:5915  uint256 token1After */\n      0x00\n        /* \"AMM.sol\":5918:5936  K.div(token2After) */\n      tag_170\n        /* \"AMM.sol\":5924:5935  token2After */\n      dup3\n        /* \"AMM.sol\":5918:5919  K */\n      sload(0x03)\n        /* \"AMM.sol\":5918:5923  K.div */\n      tag_86\n      swap1\n        /* \"AMM.sol\":5918:5936  K.div(token2After) */\n      swap2\n      swap1\n      0xffffffff\n      and\n      jump\t// in\n    tag_170:\n        /* \"AMM.sol\":5896:5936  uint256 token1After = K.div(token2After) */\n      swap1\n      pop\n        /* \"AMM.sol\":5961:5989  token1After.sub(totalToken1) */\n      tag_171\n        /* \"AMM.sol\":5977:5988  totalToken1 */\n      sload(0x01)\n        /* \"AMM.sol\":5961:5972  token1After */\n      dup3\n        /* \"AMM.sol\":5961:5976  token1After.sub */\n      tag_122\n      swap1\n        /* \"AMM.sol\":5961:5989  token1After.sub(totalToken1) */\n      swap2\n      swap1\n      0xffffffff\n      and\n      jump\t// in\n    tag_171:\n        /* \"AMM.sol\":5946:5989  amountToken1 = token1After.sub(totalToken1) */\n      swap3\n      pop\n        /* \"AMM.sol\":5749:5996  {... */\n      pop\n      pop\n        /* \"AMM.sol\":5631:5996  function getSwapToken1EstimateGivenToken2(uint256 _amountToken2) public view activePool returns(uint256 amountToken1) {... */\n      swap2\n      swap1\n      pop\n      jump\t// out\n        /* \"AMM.sol\":6588:7014  function getSwapToken2Estimate(uint256 _amountToken2) public view activePool returns(uint256 amountToken1) {... */\n    tag_64:\n        /* \"AMM.sol\":6673:6693  uint256 amountToken1 */\n      0x00\n        /* \"AMM.sol\":1369:1370  0 */\n      dup1\n        /* \"AMM.sol\":1355:1366  totalShares */\n      sload(0x00)\n        /* \"AMM.sol\":1355:1370  totalShares > 0 */\n      gt\n        /* \"AMM.sol\":1347:1389  require(totalShares > 0, \"Zero Liquidity\") */\n      tag_173\n      jumpi\n      mload(0x40)\n      0x08c379a000000000000000000000000000000000000000000000000000000000\n      dup2\n      mstore\n      0x04\n      add\n      tag_174\n      swap1\n      tag_81\n      jump\t// in\n    tag_174:\n      mload(0x40)\n      dup1\n      swap2\n      sub\n      swap1\n      revert\n    tag_173:\n        /* \"AMM.sol\":6705:6724  uint256 token2After */\n      0x00\n        /* \"AMM.sol\":6727:6757  totalToken2.add(_amountToken2) */\n      tag_176\n        /* \"AMM.sol\":6743:6756  _amountToken2 */\n      dup4\n        /* \"AMM.sol\":6727:6738  totalToken2 */\n      sload(0x02)\n        /* \"AMM.sol\":6727:6742  totalToken2.add */\n      tag_119\n      swap1\n        /* \"AMM.sol\":6727:6757  totalToken2.add(_amountToken2) */\n      swap2\n      swap1\n      0xffffffff\n      and\n      jump\t// in\n    tag_176:\n        /* \"AMM.sol\":6705:6757  uint256 token2After = totalToken2.add(_amountToken2) */\n      swap1\n      pop\n        /* \"AMM.sol\":6767:6786  uint256 token1After */\n      0x00\n        /* \"AMM.sol\":6789:6807  K.div(token2After) */\n      tag_177\n        /* \"AMM.sol\":6795:6806  token2After */\n      dup3\n        /* \"AMM.sol\":6789:6790  K */\n      sload(0x03)\n        /* \"AMM.sol\":6789:6794  K.div */\n      tag_86\n      swap1\n        /* \"AMM.sol\":6789:6807  K.div(token2After) */\n      swap2\n      swap1\n      0xffffffff\n      and\n      jump\t// in\n    tag_177:\n        /* \"AMM.sol\":6767:6807  uint256 token1After = K.div(token2After) */\n      swap1\n      pop\n        /* \"AMM.sol\":6832:6860  totalToken1.sub(token1After) */\n      tag_178\n        /* \"AMM.sol\":6848:6859  token1After */\n      dup2\n        /* \"AMM.sol\":6832:6843  totalToken1 */\n      sload(0x01)\n        /* \"AMM.sol\":6832:6847  totalToken1.sub */\n      tag_122\n      swap1\n        /* \"AMM.sol\":6832:6860  totalToken1.sub(token1After) */\n      swap2\n      swap1\n      0xffffffff\n      and\n      jump\t// in\n    tag_178:\n        /* \"AMM.sol\":6817:6860  amountToken1 = totalToken1.sub(token1After) */\n      swap3\n      pop\n        /* \"AMM.sol\":6980:6991  totalToken1 */\n      sload(0x01)\n        /* \"AMM.sol\":6964:6976  amountToken1 */\n      dup4\n        /* \"AMM.sol\":6964:6991  amountToken1 == totalToken1 */\n      sub\n        /* \"AMM.sol\":6961:7007  if(amountToken1 == totalToken1) amountToken1-- */\n      tag_179\n      jumpi\n        /* \"AMM.sol\":6993:7007  amountToken1-- */\n      dup3\n      dup1\n      tag_180\n      swap1\n      tag_125\n      jump\t// in\n    tag_180:\n      swap4\n      pop\n      pop\n        /* \"AMM.sol\":6961:7007  if(amountToken1 == totalToken1) amountToken1-- */\n    tag_179:\n        /* \"AMM.sol\":6695:7014  {... */\n      pop\n      pop\n        /* \"AMM.sol\":6588:7014  function getSwapToken2Estimate(uint256 _amountToken2) public view activePool returns(uint256 amountToken1) {... */\n      swap2\n      swap1\n      pop\n      jump\t// out\n        /* \"AMM.sol\":2961:3933  function provide(uint256 _amountToken1, uint256 _amountToken2) external validAmountCheck(token1Balance, _amountToken1) validAmountCheck(token2Balance, _amountToken2) returns(uint256 share) {... */\n    tag_69:\n        /* \"AMM.sol\":3135:3148  uint256 share */\n      0x00\n        /* \"AMM.sol\":3050:3063  token1Balance */\n      0x05\n        /* \"AMM.sol\":3065:3078  _amountToken1 */\n      dup4\n        /* \"AMM.sol\":1113:1114  0 */\n      0x00\n        /* \"AMM.sol\":1106:1110  _qty */\n      dup2\n        /* \"AMM.sol\":1106:1114  _qty > 0 */\n      gt\n        /* \"AMM.sol\":1098:1141  require(_qty > 0, \"Amount cannot be zero!\") */\n      tag_182\n      jumpi\n      mload(0x40)\n      0x08c379a000000000000000000000000000000000000000000000000000000000\n      dup2\n      mstore\n      0x04\n      add\n      tag_183\n      swap1\n      tag_93\n      jump\t// in\n    tag_183:\n      mload(0x40)\n      dup1\n      swap2\n      sub\n      swap1\n      revert\n    tag_182:\n        /* \"AMM.sol\":1167:1175  _balance */\n      dup2\n        /* \"AMM.sol\":1167:1187  _balance[msg.sender] */\n      0x00\n        /* \"AMM.sol\":1176:1186  msg.sender */\n      caller\n        /* \"AMM.sol\":1167:1187  _balance[msg.sender] */\n      0xffffffffffffffffffffffffffffffffffffffff\n      and\n      0xffffffffffffffffffffffffffffffffffffffff\n      and\n      dup2\n      mstore\n      0x20\n      add\n      swap1\n      dup2\n      mstore\n      0x20\n      add\n      0x00\n      keccak256\n      sload\n        /* \"AMM.sol\":1159:1163  _qty */\n      dup2\n        /* \"AMM.sol\":1159:1187  _qty <= _balance[msg.sender] */\n      gt\n      iszero\n        /* \"AMM.sol\":1151:1211  require(_qty <= _balance[msg.sender], \"Insufficient amount\") */\n      tag_184\n      jumpi\n      mload(0x40)\n      0x08c379a000000000000000000000000000000000000000000000000000000000\n      dup2\n      mstore\n      0x04\n      add\n      tag_185\n      swap1\n      tag_96\n      jump\t// in\n    tag_185:\n      mload(0x40)\n      dup1\n      swap2\n      sub\n      swap1\n      revert\n    tag_184:\n        /* \"AMM.sol\":3097:3110  token2Balance */\n      0x06\n        /* \"AMM.sol\":3112:3125  _amountToken2 */\n      dup5\n        /* \"AMM.sol\":1113:1114  0 */\n      0x00\n        /* \"AMM.sol\":1106:1110  _qty */\n      dup2\n        /* \"AMM.sol\":1106:1114  _qty > 0 */\n      gt\n        /* \"AMM.sol\":1098:1141  require(_qty > 0, \"Amount cannot be zero!\") */\n      tag_187\n      jumpi\n      mload(0x40)\n      0x08c379a000000000000000000000000000000000000000000000000000000000\n      dup2\n      mstore\n      0x04\n      add\n      tag_188\n      swap1\n      tag_93\n      jump\t// in\n    tag_188:\n      mload(0x40)\n      dup1\n      swap2\n      sub\n      swap1\n      revert\n    tag_187:\n        /* \"AMM.sol\":1167:1175  _balance */\n      dup2\n        /* \"AMM.sol\":1167:1187  _balance[msg.sender] */\n      0x00\n        /* \"AMM.sol\":1176:1186  msg.sender */\n      caller\n        /* \"AMM.sol\":1167:1187  _balance[msg.sender] */\n      0xffffffffffffffffffffffffffffffffffffffff\n      and\n      0xffffffffffffffffffffffffffffffffffffffff\n      and\n      dup2\n      mstore\n      0x20\n      add\n      swap1\n      dup2\n      mstore\n      0x20\n      add\n      0x00\n      keccak256\n      sload\n        /* \"AMM.sol\":1159:1163  _qty */\n      dup2\n        /* \"AMM.sol\":1159:1187  _qty <= _balance[msg.sender] */\n      gt\n      iszero\n        /* \"AMM.sol\":1151:1211  require(_qty <= _balance[msg.sender], \"Insufficient amount\") */\n      tag_189\n      jumpi\n      mload(0x40)\n      0x08c379a000000000000000000000000000000000000000000000000000000000\n      dup2\n      mstore\n      0x04\n      add\n      tag_190\n      swap1\n      tag_96\n      jump\t// in\n    tag_190:\n      mload(0x40)\n      dup1\n      swap2\n      sub\n      swap1\n      revert\n    tag_189:\n        /* \"AMM.sol\":3178:3179  0 */\n      0x00\n        /* \"AMM.sol\":3163:3174  totalShares */\n      dup1\n      sload\n        /* \"AMM.sol\":3163:3179  totalShares == 0 */\n      sub\n        /* \"AMM.sol\":3160:3554  if(totalShares == 0) { // Genesis liquidity is issued 100 Shares... */\n      tag_192\n      jumpi\n        /* \"AMM.sol\":513:522  1_000_000 */\n      0x0f4240\n        /* \"AMM.sol\":3245:3248  100 */\n      0x64\n        /* \"AMM.sol\":3245:3258  100*PRECISION */\n      tag_193\n      swap2\n      swap1\n      tag_194\n      jump\t// in\n    tag_193:\n        /* \"AMM.sol\":3237:3258  share = 100*PRECISION */\n      swap5\n      pop\n        /* \"AMM.sol\":3160:3554  if(totalShares == 0) { // Genesis liquidity is issued 100 Shares... */\n      jump(tag_195)\n    tag_192:\n        /* \"AMM.sol\":3288:3302  uint256 share1 */\n      0x00\n        /* \"AMM.sol\":3305:3352  totalShares.mul(_amountToken1).div(totalToken1) */\n      tag_196\n        /* \"AMM.sol\":3340:3351  totalToken1 */\n      sload(0x01)\n        /* \"AMM.sol\":3305:3335  totalShares.mul(_amountToken1) */\n      tag_197\n        /* \"AMM.sol\":3321:3334  _amountToken1 */\n      dup11\n        /* \"AMM.sol\":3305:3316  totalShares */\n      sload(0x00)\n        /* \"AMM.sol\":3305:3320  totalShares.mul */\n      tag_85\n      swap1\n        /* \"AMM.sol\":3305:3335  totalShares.mul(_amountToken1) */\n      swap2\n      swap1\n      0xffffffff\n      and\n      jump\t// in\n    tag_197:\n        /* \"AMM.sol\":3305:3339  totalShares.mul(_amountToken1).div */\n      tag_86\n      swap1\n        /* \"AMM.sol\":3305:3352  totalShares.mul(_amountToken1).div(totalToken1) */\n      swap2\n      swap1\n      0xffffffff\n      and\n      jump\t// in\n    tag_196:\n        /* \"AMM.sol\":3288:3352  uint256 share1 = totalShares.mul(_amountToken1).div(totalToken1) */\n      swap1\n      pop\n        /* \"AMM.sol\":3366:3380  uint256 share2 */\n      0x00\n        /* \"AMM.sol\":3383:3430  totalShares.mul(_amountToken2).div(totalToken2) */\n      tag_198\n        /* \"AMM.sol\":3418:3429  totalToken2 */\n      sload(0x02)\n        /* \"AMM.sol\":3383:3413  totalShares.mul(_amountToken2) */\n      tag_199\n        /* \"AMM.sol\":3399:3412  _amountToken2 */\n      dup11\n        /* \"AMM.sol\":3383:3394  totalShares */\n      sload(0x00)\n        /* \"AMM.sol\":3383:3398  totalShares.mul */\n      tag_85\n      swap1\n        /* \"AMM.sol\":3383:3413  totalShares.mul(_amountToken2) */\n      swap2\n      swap1\n      0xffffffff\n      and\n      jump\t// in\n    tag_199:\n        /* \"AMM.sol\":3383:3417  totalShares.mul(_amountToken2).div */\n      tag_86\n      swap1\n        /* \"AMM.sol\":3383:3430  totalShares.mul(_amountToken2).div(totalToken2) */\n      swap2\n      swap1\n      0xffffffff\n      and\n      jump\t// in\n    tag_198:\n        /* \"AMM.sol\":3366:3430  uint256 share2 = totalShares.mul(_amountToken2).div(totalToken2) */\n      swap1\n      pop\n        /* \"AMM.sol\":3462:3468  share2 */\n      dup1\n        /* \"AMM.sol\":3452:3458  share1 */\n      dup3\n        /* \"AMM.sol\":3452:3468  share1 == share2 */\n      eq\n        /* \"AMM.sol\":3444:3515  require(share1 == share2, \"Equivalent value of tokens not provided...\") */\n      tag_200\n      jumpi\n      mload(0x40)\n      0x08c379a000000000000000000000000000000000000000000000000000000000\n      dup2\n      mstore\n      0x04\n      add\n      tag_201\n      swap1\n      tag_202\n      jump\t// in\n    tag_201:\n      mload(0x40)\n      dup1\n      swap2\n      sub\n      swap1\n      revert\n    tag_200:\n        /* \"AMM.sol\":3537:3543  share1 */\n      dup2\n        /* \"AMM.sol\":3529:3543  share = share1 */\n      swap7\n      pop\n        /* \"AMM.sol\":3274:3554  {... */\n      pop\n      pop\n        /* \"AMM.sol\":3160:3554  if(totalShares == 0) { // Genesis liquidity is issued 100 Shares... */\n    tag_195:\n        /* \"AMM.sol\":3580:3581  0 */\n      0x00\n        /* \"AMM.sol\":3572:3577  share */\n      dup6\n        /* \"AMM.sol\":3572:3581  share > 0 */\n      gt\n        /* \"AMM.sol\":3564:3635  require(share > 0, \"Asset value less than threshold for contribution!\") */\n      tag_203\n      jumpi\n      mload(0x40)\n      0x08c379a000000000000000000000000000000000000000000000000000000000\n      dup2\n      mstore\n      0x04\n      add\n      tag_204\n      swap1\n      tag_205\n      jump\t// in\n    tag_204:\n      mload(0x40)\n      dup1\n      swap2\n      sub\n      swap1\n      revert\n    tag_203:\n        /* \"AMM.sol\":3674:3687  _amountToken1 */\n      dup7\n        /* \"AMM.sol\":3645:3658  token1Balance */\n      0x05\n        /* \"AMM.sol\":3645:3670  token1Balance[msg.sender] */\n      0x00\n        /* \"AMM.sol\":3659:3669  msg.sender */\n      caller\n        /* \"AMM.sol\":3645:3670  token1Balance[msg.sender] */\n      0xffffffffffffffffffffffffffffffffffffffff\n      and\n      0xffffffffffffffffffffffffffffffffffffffff\n      and\n      dup2\n      mstore\n      0x20\n      add\n      swap1\n      dup2\n      mstore\n      0x20\n      add\n      0x00\n      keccak256\n      0x00\n        /* \"AMM.sol\":3645:3687  token1Balance[msg.sender] -= _amountToken1 */\n      dup3\n      dup3\n      sload\n      tag_206\n      swap2\n      swap1\n      tag_100\n      jump\t// in\n    tag_206:\n      swap3\n      pop\n      pop\n      dup2\n      swap1\n      sstore\n      pop\n        /* \"AMM.sol\":3726:3739  _amountToken2 */\n      dup6\n        /* \"AMM.sol\":3697:3710  token2Balance */\n      0x06\n        /* \"AMM.sol\":3697:3722  token2Balance[msg.sender] */\n      0x00\n        /* \"AMM.sol\":3711:3721  msg.sender */\n      caller\n        /* \"AMM.sol\":3697:3722  token2Balance[msg.sender] */\n      0xffffffffffffffffffffffffffffffffffffffff\n      and\n      0xffffffffffffffffffffffffffffffffffffffff\n      and\n      dup2\n      mstore\n      0x20\n      add\n      swap1\n      dup2\n      mstore\n      0x20\n      add\n      0x00\n      keccak256\n      0x00\n        /* \"AMM.sol\":3697:3739  token2Balance[msg.sender] -= _amountToken2 */\n      dup3\n      dup3\n      sload\n      tag_207\n      swap2\n      swap1\n      tag_100\n      jump\t// in\n    tag_207:\n      swap3\n      pop\n      pop\n      dup2\n      swap1\n      sstore\n      pop\n        /* \"AMM.sol\":3765:3778  _amountToken1 */\n      dup7\n        /* \"AMM.sol\":3750:3761  totalToken1 */\n      0x01\n      0x00\n        /* \"AMM.sol\":3750:3778  totalToken1 += _amountToken1 */\n      dup3\n      dup3\n      sload\n      tag_208\n      swap2\n      swap1\n      tag_106\n      jump\t// in\n    tag_208:\n      swap3\n      pop\n      pop\n      dup2\n      swap1\n      sstore\n      pop\n        /* \"AMM.sol\":3803:3816  _amountToken2 */\n      dup6\n        /* \"AMM.sol\":3788:3799  totalToken2 */\n      0x02\n      0x00\n        /* \"AMM.sol\":3788:3816  totalToken2 += _amountToken2 */\n      dup3\n      dup3\n      sload\n      tag_209\n      swap2\n      swap1\n      tag_106\n      jump\t// in\n    tag_209:\n      swap3\n      pop\n      pop\n      dup2\n      swap1\n      sstore\n      pop\n        /* \"AMM.sol\":3830:3858  totalToken1.mul(totalToken2) */\n      tag_210\n        /* \"AMM.sol\":3846:3857  totalToken2 */\n      sload(0x02)\n        /* \"AMM.sol\":3830:3841  totalToken1 */\n      sload(0x01)\n        /* \"AMM.sol\":3830:3845  totalToken1.mul */\n      tag_85\n      swap1\n        /* \"AMM.sol\":3830:3858  totalToken1.mul(totalToken2) */\n      swap2\n      swap1\n      0xffffffff\n      and\n      jump\t// in\n    tag_210:\n        /* \"AMM.sol\":3826:3827  K */\n      0x03\n        /* \"AMM.sol\":3826:3858  K = totalToken1.mul(totalToken2) */\n      dup2\n      swap1\n      sstore\n      pop\n        /* \"AMM.sol\":3884:3889  share */\n      dup5\n        /* \"AMM.sol\":3869:3880  totalShares */\n      0x00\n      dup1\n        /* \"AMM.sol\":3869:3889  totalShares += share */\n      dup3\n      dup3\n      sload\n      tag_211\n      swap2\n      swap1\n      tag_106\n      jump\t// in\n    tag_211:\n      swap3\n      pop\n      pop\n      dup2\n      swap1\n      sstore\n      pop\n        /* \"AMM.sol\":3921:3926  share */\n      dup5\n        /* \"AMM.sol\":3899:3905  shares */\n      0x04\n        /* \"AMM.sol\":3899:3917  shares[msg.sender] */\n      0x00\n        /* \"AMM.sol\":3906:3916  msg.sender */\n      caller\n        /* \"AMM.sol\":3899:3917  shares[msg.sender] */\n      0xffffffffffffffffffffffffffffffffffffffff\n      and\n      0xffffffffffffffffffffffffffffffffffffffff\n      and\n      dup2\n      mstore\n      0x20\n      add\n      swap1\n      dup2\n      mstore\n      0x20\n      add\n      0x00\n      keccak256\n      0x00\n        /* \"AMM.sol\":3899:3926  shares[msg.sender] += share */\n      dup3\n      dup3\n      sload\n      tag_212\n      swap2\n      swap1\n      tag_106\n      jump\t// in\n    tag_212:\n      swap3\n      pop\n      pop\n      dup2\n      swap1\n      sstore\n      pop\n        /* \"AMM.sol\":1221:1222  _ */\n      pop\n      pop\n        /* \"AMM.sol\":2961:3933  function provide(uint256 _amountToken1, uint256 _amountToken2) external validAmountCheck(token1Balance, _amountToken1) validAmountCheck(token2Balance, _amountToken2) returns(uint256 share) {... */\n      pop\n      pop\n      swap3\n      swap2\n      pop\n      pop\n      jump\t// out\n        /* \"AMM.sol\":6086:6473  function swapToken1(uint256 _amountToken1) external activePool validAmountCheck(token1Balance, _amountToken1) returns(uint256 amountToken2) {... */\n    tag_73:\n        /* \"AMM.sol\":6204:6224  uint256 amountToken2 */\n      0x00\n        /* \"AMM.sol\":1369:1370  0 */\n      dup1\n        /* \"AMM.sol\":1355:1366  totalShares */\n      sload(0x00)\n        /* \"AMM.sol\":1355:1370  totalShares > 0 */\n      gt\n        /* \"AMM.sol\":1347:1389  require(totalShares > 0, \"Zero Liquidity\") */\n      tag_214\n      jumpi\n      mload(0x40)\n      0x08c379a000000000000000000000000000000000000000000000000000000000\n      dup2\n      mstore\n      0x04\n      add\n      tag_215\n      swap1\n      tag_81\n      jump\t// in\n    tag_215:\n      mload(0x40)\n      dup1\n      swap2\n      sub\n      swap1\n      revert\n    tag_214:\n        /* \"AMM.sol\":6166:6179  token1Balance */\n      0x05\n        /* \"AMM.sol\":6181:6194  _amountToken1 */\n      dup3\n        /* \"AMM.sol\":1113:1114  0 */\n      0x00\n        /* \"AMM.sol\":1106:1110  _qty */\n      dup2\n        /* \"AMM.sol\":1106:1114  _qty > 0 */\n      gt\n        /* \"AMM.sol\":1098:1141  require(_qty > 0, \"Amount cannot be zero!\") */\n      tag_217\n      jumpi\n      mload(0x40)\n      0x08c379a000000000000000000000000000000000000000000000000000000000\n      dup2\n      mstore\n      0x04\n      add\n      tag_218\n      swap1\n      tag_93\n      jump\t// in\n    tag_218:\n      mload(0x40)\n      dup1\n      swap2\n      sub\n      swap1\n      revert\n    tag_217:\n        /* \"AMM.sol\":1167:1175  _balance */\n      dup2\n        /* \"AMM.sol\":1167:1187  _balance[msg.sender] */\n      0x00\n        /* \"AMM.sol\":1176:1186  msg.sender */\n      caller\n        /* \"AMM.sol\":1167:1187  _balance[msg.sender] */\n      0xffffffffffffffffffffffffffffffffffffffff\n      and\n      0xffffffffffffffffffffffffffffffffffffffff\n      and\n      dup2\n      mstore\n      0x20\n      add\n      swap1\n      dup2\n      mstore\n      0x20\n      add\n      0x00\n      keccak256\n      sload\n        /* \"AMM.sol\":1159:1163  _qty */\n      dup2\n        /* \"AMM.sol\":1159:1187  _qty <= _balance[msg.sender] */\n      gt\n      iszero\n        /* \"AMM.sol\":1151:1211  require(_qty <= _balance[msg.sender], \"Insufficient amount\") */\n      tag_219\n      jumpi\n      mload(0x40)\n      0x08c379a000000000000000000000000000000000000000000000000000000000\n      dup2\n      mstore\n      0x04\n      add\n      tag_220\n      swap1\n      tag_96\n      jump\t// in\n    tag_220:\n      mload(0x40)\n      dup1\n      swap2\n      sub\n      swap1\n      revert\n    tag_219:\n        /* \"AMM.sol\":6251:6287  getSwapToken1Estimate(_amountToken1) */\n      tag_222\n        /* \"AMM.sol\":6273:6286  _amountToken1 */\n      dup5\n        /* \"AMM.sol\":6251:6272  getSwapToken1Estimate */\n      tag_37\n        /* \"AMM.sol\":6251:6287  getSwapToken1Estimate(_amountToken1) */\n      jump\t// in\n    tag_222:\n        /* \"AMM.sol\":6236:6287  amountToken2 = getSwapToken1Estimate(_amountToken1) */\n      swap3\n      pop\n        /* \"AMM.sol\":6327:6340  _amountToken1 */\n      dup4\n        /* \"AMM.sol\":6298:6311  token1Balance */\n      0x05\n        /* \"AMM.sol\":6298:6323  token1Balance[msg.sender] */\n      0x00\n        /* \"AMM.sol\":6312:6322  msg.sender */\n      caller\n        /* \"AMM.sol\":6298:6323  token1Balance[msg.sender] */\n      0xffffffffffffffffffffffffffffffffffffffff\n      and\n      0xffffffffffffffffffffffffffffffffffffffff\n      and\n      dup2\n      mstore\n      0x20\n      add\n      swap1\n      dup2\n      mstore\n      0x20\n      add\n      0x00\n      keccak256\n      0x00\n        /* \"AMM.sol\":6298:6340  token1Balance[msg.sender] -= _amountToken1 */\n      dup3\n      dup3\n      sload\n      tag_223\n      swap2\n      swap1\n      tag_100\n      jump\t// in\n    tag_223:\n      swap3\n      pop\n      pop\n      dup2\n      swap1\n      sstore\n      pop\n        /* \"AMM.sol\":6365:6378  _amountToken1 */\n      dup4\n        /* \"AMM.sol\":6350:6361  totalToken1 */\n      0x01\n      0x00\n        /* \"AMM.sol\":6350:6378  totalToken1 += _amountToken1 */\n      dup3\n      dup3\n      sload\n      tag_224\n      swap2\n      swap1\n      tag_106\n      jump\t// in\n    tag_224:\n      swap3\n      pop\n      pop\n      dup2\n      swap1\n      sstore\n      pop\n        /* \"AMM.sol\":6403:6415  amountToken2 */\n      dup3\n        /* \"AMM.sol\":6388:6399  totalToken2 */\n      0x02\n      0x00\n        /* \"AMM.sol\":6388:6415  totalToken2 -= amountToken2 */\n      dup3\n      dup3\n      sload\n      tag_225\n      swap2\n      swap1\n      tag_100\n      jump\t// in\n    tag_225:\n      swap3\n      pop\n      pop\n      dup2\n      swap1\n      sstore\n      pop\n        /* \"AMM.sol\":6454:6466  amountToken2 */\n      dup3\n        /* \"AMM.sol\":6425:6438  token2Balance */\n      0x06\n        /* \"AMM.sol\":6425:6450  token2Balance[msg.sender] */\n      0x00\n        /* \"AMM.sol\":6439:6449  msg.sender */\n      caller\n        /* \"AMM.sol\":6425:6450  token2Balance[msg.sender] */\n      0xffffffffffffffffffffffffffffffffffffffff\n      and\n      0xffffffffffffffffffffffffffffffffffffffff\n      and\n      dup2\n      mstore\n      0x20\n      add\n      swap1\n      dup2\n      mstore\n      0x20\n      add\n      0x00\n      keccak256\n      0x00\n        /* \"AMM.sol\":6425:6466  token2Balance[msg.sender] += amountToken2 */\n      dup3\n      dup3\n      sload\n      tag_226\n      swap2\n      swap1\n      tag_106\n      jump\t// in\n    tag_226:\n      swap3\n      pop\n      pop\n      dup2\n      swap1\n      sstore\n      pop\n        /* \"AMM.sol\":1399:1400  _ */\n      pop\n      pop\n        /* \"AMM.sol\":6086:6473  function swapToken1(uint256 _amountToken1) external activePool validAmountCheck(token1Balance, _amountToken1) returns(uint256 amountToken2) {... */\n      swap2\n      swap1\n      pop\n      jump\t// out\n        /* \"AMM.sol\":1455:1697  function faucet(uint256 _amountToken1, uint256 _amountToken2) external {... */\n    tag_77:\n        /* \"AMM.sol\":1564:1608  token1Balance[msg.sender].add(_amountToken1) */\n      tag_228\n        /* \"AMM.sol\":1594:1607  _amountToken1 */\n      dup3\n        /* \"AMM.sol\":1564:1577  token1Balance */\n      0x05\n        /* \"AMM.sol\":1564:1589  token1Balance[msg.sender] */\n      0x00\n        /* \"AMM.sol\":1578:1588  msg.sender */\n      caller\n        /* \"AMM.sol\":1564:1589  token1Balance[msg.sender] */\n      0xffffffffffffffffffffffffffffffffffffffff\n      and\n      0xffffffffffffffffffffffffffffffffffffffff\n      and\n      dup2\n      mstore\n      0x20\n      add\n      swap1\n      dup2\n      mstore\n      0x20\n      add\n      0x00\n      keccak256\n      sload\n        /* \"AMM.sol\":1564:1593  token1Balance[msg.sender].add */\n      tag_119\n      swap1\n        /* \"AMM.sol\":1564:1608  token1Balance[msg.sender].add(_amountToken1) */\n      swap2\n      swap1\n      0xffffffff\n      and\n      jump\t// in\n    tag_228:\n        /* \"AMM.sol\":1536:1549  token1Balance */\n      0x05\n        /* \"AMM.sol\":1536:1561  token1Balance[msg.sender] */\n      0x00\n        /* \"AMM.sol\":1550:1560  msg.sender */\n      caller\n        /* \"AMM.sol\":1536:1561  token1Balance[msg.sender] */\n      0xffffffffffffffffffffffffffffffffffffffff\n      and\n      0xffffffffffffffffffffffffffffffffffffffff\n      and\n      dup2\n      mstore\n      0x20\n      add\n      swap1\n      dup2\n      mstore\n      0x20\n      add\n      0x00\n      keccak256\n        /* \"AMM.sol\":1536:1608  token1Balance[msg.sender] = token1Balance[msg.sender].add(_amountToken1) */\n      dup2\n      swap1\n      sstore\n      pop\n        /* \"AMM.sol\":1646:1690  token2Balance[msg.sender].add(_amountToken2) */\n      tag_229\n        /* \"AMM.sol\":1676:1689  _amountToken2 */\n      dup2\n        /* \"AMM.sol\":1646:1659  token2Balance */\n      0x06\n        /* \"AMM.sol\":1646:1671  token2Balance[msg.sender] */\n      0x00\n        /* \"AMM.sol\":1660:1670  msg.sender */\n      caller\n        /* \"AMM.sol\":1646:1671  token2Balance[msg.sender] */\n      0xffffffffffffffffffffffffffffffffffffffff\n      and\n      0xffffffffffffffffffffffffffffffffffffffff\n      and\n      dup2\n      mstore\n      0x20\n      add\n      swap1\n      dup2\n      mstore\n      0x20\n      add\n      0x00\n      keccak256\n      sload\n        /* \"AMM.sol\":1646:1675  token2Balance[msg.sender].add */\n      tag_119\n      swap1\n        /* \"AMM.sol\":1646:1690  token2Balance[msg.sender].add(_amountToken2) */\n      swap2\n      swap1\n      0xffffffff\n      and\n      jump\t// in\n    tag_229:\n        /* \"AMM.sol\":1618:1631  token2Balance */\n      0x06\n        /* \"AMM.sol\":1618:1643  token2Balance[msg.sender] */\n      0x00\n        /* \"AMM.sol\":1632:1642  msg.sender */\n      caller\n        /* \"AMM.sol\":1618:1643  token2Balance[msg.sender] */\n      0xffffffffffffffffffffffffffffffffffffffff\n      and\n      0xffffffffffffffffffffffffffffffffffffffff\n      and\n      dup2\n      mstore\n      0x20\n      add\n      swap1\n      dup2\n      mstore\n      0x20\n      add\n      0x00\n      keccak256\n        /* \"AMM.sol\":1618:1690  token2Balance[msg.sender] = token2Balance[msg.sender].add(_amountToken2) */\n      dup2\n      swap1\n      sstore\n      pop\n        /* \"AMM.sol\":1455:1697  function faucet(uint256 _amountToken1, uint256 _amountToken2) external {... */\n      pop\n      pop\n      jump\t// out\n        /* \"@openzeppelin/contracts/utils/math/SafeMath.sol\":3465:3561  function mul(uint256 a, uint256 b) internal pure returns (uint256) {... */\n    tag_85:\n        /* \"@openzeppelin/contracts/utils/math/SafeMath.sol\":3523:3530  uint256 */\n      0x00\n        /* \"@openzeppelin/contracts/utils/math/SafeMath.sol\":3553:3554  b */\n      dup2\n        /* \"@openzeppelin/contracts/utils/math/SafeMath.sol\":3549:3550  a */\n      dup4\n        /* \"@openzeppelin/contracts/utils/math/SafeMath.sol\":3549:3554  a * b */\n      tag_231\n      swap2\n      swap1\n      tag_194\n      jump\t// in\n    tag_231:\n        /* \"@openzeppelin/contracts/utils/math/SafeMath.sol\":3542:3554  return a * b */\n      swap1\n      pop\n        /* \"@openzeppelin/contracts/utils/math/SafeMath.sol\":3465:3561  function mul(uint256 a, uint256 b) internal pure returns (uint256) {... */\n      swap3\n      swap2\n      pop\n      pop\n      jump\t// out\n        /* \"@openzeppelin/contracts/utils/math/SafeMath.sol\":3850:3946  function div(uint256 a, uint256 b) internal pure returns (uint256) {... */\n    tag_86:\n        /* \"@openzeppelin/contracts/utils/math/SafeMath.sol\":3908:3915  uint256 */\n      0x00\n        /* \"@openzeppelin/contracts/utils/math/SafeMath.sol\":3938:3939  b */\n      dup2\n        /* \"@openzeppelin/contracts/utils/math/SafeMath.sol\":3934:3935  a */\n      dup4\n        /* \"@openzeppelin/contracts/utils/math/SafeMath.sol\":3934:3939  a / b */\n      tag_233\n      swap2\n      swap1\n      tag_234\n      jump\t// in\n    tag_233:\n        /* \"@openzeppelin/contracts/utils/math/SafeMath.sol\":3927:3939  return a / b */\n      swap1\n      pop\n        /* \"@openzeppelin/contracts/utils/math/SafeMath.sol\":3850:3946  function div(uint256 a, uint256 b) internal pure returns (uint256) {... */\n      swap3\n      swap2\n      pop\n      pop\n      jump\t// out\n        /* \"@openzeppelin/contracts/utils/math/SafeMath.sol\":2755:2851  function add(uint256 a, uint256 b) internal pure returns (uint256) {... */\n    tag_119:\n        /* \"@openzeppelin/contracts/utils/math/SafeMath.sol\":2813:2820  uint256 */\n      0x00\n        /* \"@openzeppelin/contracts/utils/math/SafeMath.sol\":2843:2844  b */\n      dup2\n        /* \"@openzeppelin/contracts/utils/math/SafeMath.sol\":2839:2840  a */\n      dup4\n        /* \"@openzeppelin/contracts/utils/math/SafeMath.sol\":2839:2844  a + b */\n      tag_236\n      swap2\n      swap1\n      tag_106\n      jump\t// in\n    tag_236:\n        /* \"@openzeppelin/contracts/utils/math/SafeMath.sol\":2832:2844  return a + b */\n      swap1\n      pop\n        /* \"@openzeppelin/contracts/utils/math/SafeMath.sol\":2755:2851  function add(uint256 a, uint256 b) internal pure returns (uint256) {... */\n      swap3\n      swap2\n      pop\n      pop\n      jump\t// out\n        /* \"@openzeppelin/contracts/utils/math/SafeMath.sol\":3122:3218  function sub(uint256 a, uint256 b) internal pure returns (uint256) {... */\n    tag_122:\n        /* \"@openzeppelin/contracts/utils/math/SafeMath.sol\":3180:3187  uint256 */\n      0x00\n        /* \"@openzeppelin/contracts/utils/math/SafeMath.sol\":3210:3211  b */\n      dup2\n        /* \"@openzeppelin/contracts/utils/math/SafeMath.sol\":3206:3207  a */\n      dup4\n        /* \"@openzeppelin/contracts/utils/math/SafeMath.sol\":3206:3211  a - b */\n      tag_238\n      swap2\n      swap1\n      tag_100\n      jump\t// in\n    tag_238:\n        /* \"@openzeppelin/contracts/utils/math/SafeMath.sol\":3199:3211  return a - b */\n      swap1\n      pop\n        /* \"@openzeppelin/contracts/utils/math/SafeMath.sol\":3122:3218  function sub(uint256 a, uint256 b) internal pure returns (uint256) {... */\n      swap3\n      swap2\n      pop\n      pop\n      jump\t// out\n        /* \"#utility.yul\":88:205   */\n    tag_240:\n        /* \"#utility.yul\":197:198   */\n      0x00\n        /* \"#utility.yul\":194:195   */\n      dup1\n        /* \"#utility.yul\":187:199   */\n      revert\n        /* \"#utility.yul\":334:411   */\n    tag_242:\n        /* \"#utility.yul\":371:378   */\n      0x00\n        /* \"#utility.yul\":400:405   */\n      dup2\n        /* \"#utility.yul\":389:405   */\n      swap1\n      pop\n        /* \"#utility.yul\":334:411   */\n      swap2\n      swap1\n      pop\n      jump\t// out\n        /* \"#utility.yul\":417:539   */\n    tag_243:\n        /* \"#utility.yul\":490:514   */\n      tag_269\n        /* \"#utility.yul\":508:513   */\n      dup2\n        /* \"#utility.yul\":490:514   */\n      tag_242\n      jump\t// in\n    tag_269:\n        /* \"#utility.yul\":483:488   */\n      dup2\n        /* \"#utility.yul\":480:515   */\n      eq\n        /* \"#utility.yul\":470:533   */\n      tag_270\n      jumpi\n        /* \"#utility.yul\":529:530   */\n      0x00\n        /* \"#utility.yul\":526:527   */\n      dup1\n        /* \"#utility.yul\":519:531   */\n      revert\n        /* \"#utility.yul\":470:533   */\n    tag_270:\n        /* \"#utility.yul\":417:539   */\n      pop\n      jump\t// out\n        /* \"#utility.yul\":545:684   */\n    tag_244:\n        /* \"#utility.yul\":591:596   */\n      0x00\n        /* \"#utility.yul\":629:635   */\n      dup2\n        /* \"#utility.yul\":616:636   */\n      calldataload\n        /* \"#utility.yul\":607:636   */\n      swap1\n      pop\n        /* \"#utility.yul\":645:678   */\n      tag_272\n        /* \"#utility.yul\":672:677   */\n      dup2\n        /* \"#utility.yul\":645:678   */\n      tag_243\n      jump\t// in\n    tag_272:\n        /* \"#utility.yul\":545:684   */\n      swap3\n      swap2\n      pop\n      pop\n      jump\t// out\n        /* \"#utility.yul\":690:1019   */\n    tag_22:\n        /* \"#utility.yul\":749:755   */\n      0x00\n        /* \"#utility.yul\":798:800   */\n      0x20\n        /* \"#utility.yul\":786:795   */\n      dup3\n        /* \"#utility.yul\":777:784   */\n      dup5\n        /* \"#utility.yul\":773:796   */\n      sub\n        /* \"#utility.yul\":769:801   */\n      slt\n        /* \"#utility.yul\":766:885   */\n      iszero\n      tag_274\n      jumpi\n        /* \"#utility.yul\":804:883   */\n      tag_275\n      tag_240\n      jump\t// in\n    tag_275:\n        /* \"#utility.yul\":766:885   */\n    tag_274:\n        /* \"#utility.yul\":924:925   */\n      0x00\n        /* \"#utility.yul\":949:1002   */\n      tag_276\n        /* \"#utility.yul\":994:1001   */\n      dup5\n        /* \"#utility.yul\":985:991   */\n      dup3\n        /* \"#utility.yul\":974:983   */\n      dup6\n        /* \"#utility.yul\":970:992   */\n      add\n        /* \"#utility.yul\":949:1002   */\n      tag_244\n      jump\t// in\n    tag_276:\n        /* \"#utility.yul\":939:1002   */\n      swap2\n      pop\n        /* \"#utility.yul\":895:1012   */\n      pop\n        /* \"#utility.yul\":690:1019   */\n      swap3\n      swap2\n      pop\n      pop\n      jump\t// out\n        /* \"#utility.yul\":1025:1143   */\n    tag_245:\n        /* \"#utility.yul\":1112:1136   */\n      tag_278\n        /* \"#utility.yul\":1130:1135   */\n      dup2\n        /* \"#utility.yul\":1112:1136   */\n      tag_242\n      jump\t// in\n    tag_278:\n        /* \"#utility.yul\":1107:1110   */\n      dup3\n        /* \"#utility.yul\":1100:1137   */\n      mstore\n        /* \"#utility.yul\":1025:1143   */\n      pop\n      pop\n      jump\t// out\n        /* \"#utility.yul\":1149:1371   */\n    tag_25:\n        /* \"#utility.yul\":1242:1246   */\n      0x00\n        /* \"#utility.yul\":1280:1282   */\n      0x20\n        /* \"#utility.yul\":1269:1278   */\n      dup3\n        /* \"#utility.yul\":1265:1283   */\n      add\n        /* \"#utility.yul\":1257:1283   */\n      swap1\n      pop\n        /* \"#utility.yul\":1293:1364   */\n      tag_280\n        /* \"#utility.yul\":1361:1362   */\n      0x00\n        /* \"#utility.yul\":1350:1359   */\n      dup4\n        /* \"#utility.yul\":1346:1363   */\n      add\n        /* \"#utility.yul\":1337:1343   */\n      dup5\n        /* \"#utility.yul\":1293:1364   */\n      tag_245\n      jump\t// in\n    tag_280:\n        /* \"#utility.yul\":1149:1371   */\n      swap3\n      swap2\n      pop\n      pop\n      jump\t// out\n        /* \"#utility.yul\":1377:1709   */\n    tag_30:\n        /* \"#utility.yul\":1498:1502   */\n      0x00\n        /* \"#utility.yul\":1536:1538   */\n      0x40\n        /* \"#utility.yul\":1525:1534   */\n      dup3\n        /* \"#utility.yul\":1521:1539   */\n      add\n        /* \"#utility.yul\":1513:1539   */\n      swap1\n      pop\n        /* \"#utility.yul\":1549:1620   */\n      tag_282\n        /* \"#utility.yul\":1617:1618   */\n      0x00\n        /* \"#utility.yul\":1606:1615   */\n      dup4\n        /* \"#utility.yul\":1602:1619   */\n      add\n        /* \"#utility.yul\":1593:1599   */\n      dup6\n        /* \"#utility.yul\":1549:1620   */\n      tag_245\n      jump\t// in\n    tag_282:\n        /* \"#utility.yul\":1630:1702   */\n      tag_283\n        /* \"#utility.yul\":1698:1700   */\n      0x20\n        /* \"#utility.yul\":1687:1696   */\n      dup4\n        /* \"#utility.yul\":1683:1701   */\n      add\n        /* \"#utility.yul\":1674:1680   */\n      dup5\n        /* \"#utility.yul\":1630:1702   */\n      tag_245\n      jump\t// in\n    tag_283:\n        /* \"#utility.yul\":1377:1709   */\n      swap4\n      swap3\n      pop\n      pop\n      pop\n      jump\t// out\n        /* \"#utility.yul\":1715:2157   */\n    tag_46:\n        /* \"#utility.yul\":1864:1868   */\n      0x00\n        /* \"#utility.yul\":1902:1904   */\n      0x60\n        /* \"#utility.yul\":1891:1900   */\n      dup3\n        /* \"#utility.yul\":1887:1905   */\n      add\n        /* \"#utility.yul\":1879:1905   */\n      swap1\n      pop\n        /* \"#utility.yul\":1915:1986   */\n      tag_285\n        /* \"#utility.yul\":1983:1984   */\n      0x00\n        /* \"#utility.yul\":1972:1981   */\n      dup4\n        /* \"#utility.yul\":1968:1985   */\n      add\n        /* \"#utility.yul\":1959:1965   */\n      dup7\n        /* \"#utility.yul\":1915:1986   */\n      tag_245\n      jump\t// in\n    tag_285:\n        /* \"#utility.yul\":1996:2068   */\n      tag_286\n        /* \"#utility.yul\":2064:2066   */\n      0x20\n        /* \"#utility.yul\":2053:2062   */\n      dup4\n        /* \"#utility.yul\":2049:2067   */\n      add\n        /* \"#utility.yul\":2040:2046   */\n      dup6\n        /* \"#utility.yul\":1996:2068   */\n      tag_245\n      jump\t// in\n    tag_286:\n        /* \"#utility.yul\":2078:2150   */\n      tag_287\n        /* \"#utility.yul\":2146:2148   */\n      0x40\n        /* \"#utility.yul\":2135:2144   */\n      dup4\n        /* \"#utility.yul\":2131:2149   */\n      add\n        /* \"#utility.yul\":2122:2128   */\n      dup5\n        /* \"#utility.yul\":2078:2150   */\n      tag_245\n      jump\t// in\n    tag_287:\n        /* \"#utility.yul\":1715:2157   */\n      swap5\n      swap4\n      pop\n      pop\n      pop\n      pop\n      jump\t// out\n        /* \"#utility.yul\":2163:2637   */\n    tag_68:\n        /* \"#utility.yul\":2231:2237   */\n      0x00\n        /* \"#utility.yul\":2239:2245   */\n      dup1\n        /* \"#utility.yul\":2288:2290   */\n      0x40\n        /* \"#utility.yul\":2276:2285   */\n      dup4\n        /* \"#utility.yul\":2267:2274   */\n      dup6\n        /* \"#utility.yul\":2263:2286   */\n      sub\n        /* \"#utility.yul\":2259:2291   */\n      slt\n        /* \"#utility.yul\":2256:2375   */\n      iszero\n      tag_289\n      jumpi\n        /* \"#utility.yul\":2294:2373   */\n      tag_290\n      tag_240\n      jump\t// in\n    tag_290:\n        /* \"#utility.yul\":2256:2375   */\n    tag_289:\n        /* \"#utility.yul\":2414:2415   */\n      0x00\n        /* \"#utility.yul\":2439:2492   */\n      tag_291\n        /* \"#utility.yul\":2484:2491   */\n      dup6\n        /* \"#utility.yul\":2475:2481   */\n      dup3\n        /* \"#utility.yul\":2464:2473   */\n      dup7\n        /* \"#utility.yul\":2460:2482   */\n      add\n        /* \"#utility.yul\":2439:2492   */\n      tag_244\n      jump\t// in\n    tag_291:\n        /* \"#utility.yul\":2429:2492   */\n      swap3\n      pop\n        /* \"#utility.yul\":2385:2502   */\n      pop\n        /* \"#utility.yul\":2541:2543   */\n      0x20\n        /* \"#utility.yul\":2567:2620   */\n      tag_292\n        /* \"#utility.yul\":2612:2619   */\n      dup6\n        /* \"#utility.yul\":2603:2609   */\n      dup3\n        /* \"#utility.yul\":2592:2601   */\n      dup7\n        /* \"#utility.yul\":2588:2610   */\n      add\n        /* \"#utility.yul\":2567:2620   */\n      tag_244\n      jump\t// in\n    tag_292:\n        /* \"#utility.yul\":2557:2620   */\n      swap2\n      pop\n        /* \"#utility.yul\":2512:2630   */\n      pop\n        /* \"#utility.yul\":2163:2637   */\n      swap3\n      pop\n      swap3\n      swap1\n      pop\n      jump\t// out\n        /* \"#utility.yul\":2643:2812   */\n    tag_246:\n        /* \"#utility.yul\":2727:2738   */\n      0x00\n        /* \"#utility.yul\":2761:2767   */\n      dup3\n        /* \"#utility.yul\":2756:2759   */\n      dup3\n        /* \"#utility.yul\":2749:2768   */\n      mstore\n        /* \"#utility.yul\":2801:2805   */\n      0x20\n        /* \"#utility.yul\":2796:2799   */\n      dup3\n        /* \"#utility.yul\":2792:2806   */\n      add\n        /* \"#utility.yul\":2777:2806   */\n      swap1\n      pop\n        /* \"#utility.yul\":2643:2812   */\n      swap3\n      swap2\n      pop\n      pop\n      jump\t// out\n        /* \"#utility.yul\":2818:2982   */\n    tag_247:\n        /* \"#utility.yul\":2958:2974   */\n      0x5a65726f204c6971756964697479000000000000000000000000000000000000\n        /* \"#utility.yul\":2954:2955   */\n      0x00\n        /* \"#utility.yul\":2946:2952   */\n      dup3\n        /* \"#utility.yul\":2942:2956   */\n      add\n        /* \"#utility.yul\":2935:2975   */\n      mstore\n        /* \"#utility.yul\":2818:2982   */\n      pop\n      jump\t// out\n        /* \"#utility.yul\":2988:3354   */\n    tag_248:\n        /* \"#utility.yul\":3130:3133   */\n      0x00\n        /* \"#utility.yul\":3151:3218   */\n      tag_296\n        /* \"#utility.yul\":3215:3217   */\n      0x0e\n        /* \"#utility.yul\":3210:3213   */\n      dup4\n        /* \"#utility.yul\":3151:3218   */\n      tag_246\n      jump\t// in\n    tag_296:\n        /* \"#utility.yul\":3144:3218   */\n      swap2\n      pop\n        /* \"#utility.yul\":3227:3320   */\n      tag_297\n        /* \"#utility.yul\":3316:3319   */\n      dup3\n        /* \"#utility.yul\":3227:3320   */\n      tag_247\n      jump\t// in\n    tag_297:\n        /* \"#utility.yul\":3345:3347   */\n      0x20\n        /* \"#utility.yul\":3340:3343   */\n      dup3\n        /* \"#utility.yul\":3336:3348   */\n      add\n        /* \"#utility.yul\":3329:3348   */\n      swap1\n      pop\n        /* \"#utility.yul\":2988:3354   */\n      swap2\n      swap1\n      pop\n      jump\t// out\n        /* \"#utility.yul\":3360:3779   */\n    tag_81:\n        /* \"#utility.yul\":3526:3530   */\n      0x00\n        /* \"#utility.yul\":3564:3566   */\n      0x20\n        /* \"#utility.yul\":3553:3562   */\n      dup3\n        /* \"#utility.yul\":3549:3567   */\n      add\n        /* \"#utility.yul\":3541:3567   */\n      swap1\n      pop\n        /* \"#utility.yul\":3613:3622   */\n      dup2\n        /* \"#utility.yul\":3607:3611   */\n      dup2\n        /* \"#utility.yul\":3603:3623   */\n      sub\n        /* \"#utility.yul\":3599:3600   */\n      0x00\n        /* \"#utility.yul\":3588:3597   */\n      dup4\n        /* \"#utility.yul\":3584:3601   */\n      add\n        /* \"#utility.yul\":3577:3624   */\n      mstore\n        /* \"#utility.yul\":3641:3772   */\n      tag_299\n        /* \"#utility.yul\":3767:3771   */\n      dup2\n        /* \"#utility.yul\":3641:3772   */\n      tag_248\n      jump\t// in\n    tag_299:\n        /* \"#utility.yul\":3633:3772   */\n      swap1\n      pop\n        /* \"#utility.yul\":3360:3779   */\n      swap2\n      swap1\n      pop\n      jump\t// out\n        /* \"#utility.yul\":3785:3957   */\n    tag_249:\n        /* \"#utility.yul\":3925:3949   */\n      0x416d6f756e742063616e6e6f74206265207a65726f2100000000000000000000\n        /* \"#utility.yul\":3921:3922   */\n      0x00\n        /* \"#utility.yul\":3913:3919   */\n      dup3\n        /* \"#utility.yul\":3909:3923   */\n      add\n        /* \"#utility.yul\":3902:3950   */\n      mstore\n        /* \"#utility.yul\":3785:3957   */\n      pop\n      jump\t// out\n        /* \"#utility.yul\":3963:4329   */\n    tag_250:\n        /* \"#utility.yul\":4105:4108   */\n      0x00\n        /* \"#utility.yul\":4126:4193   */\n      tag_302\n        /* \"#utility.yul\":4190:4192   */\n      0x16\n        /* \"#utility.yul\":4185:4188   */\n      dup4\n        /* \"#utility.yul\":4126:4193   */\n      tag_246\n      jump\t// in\n    tag_302:\n        /* \"#utility.yul\":4119:4193   */\n      swap2\n      pop\n        /* \"#utility.yul\":4202:4295   */\n      tag_303\n        /* \"#utility.yul\":4291:4294   */\n      dup3\n        /* \"#utility.yul\":4202:4295   */\n      tag_249\n      jump\t// in\n    tag_303:\n        /* \"#utility.yul\":4320:4322   */\n      0x20\n        /* \"#utility.yul\":4315:4318   */\n      dup3\n        /* \"#utility.yul\":4311:4323   */\n      add\n        /* \"#utility.yul\":4304:4323   */\n      swap1\n      pop\n        /* \"#utility.yul\":3963:4329   */\n      swap2\n      swap1\n      pop\n      jump\t// out\n        /* \"#utility.yul\":4335:4754   */\n    tag_93:\n        /* \"#utility.yul\":4501:4505   */\n      0x00\n        /* \"#utility.yul\":4539:4541   */\n      0x20\n        /* \"#utility.yul\":4528:4537   */\n      dup3\n        /* \"#utility.yul\":4524:4542   */\n      add\n        /* \"#utility.yul\":4516:4542   */\n      swap1\n      pop\n        /* \"#utility.yul\":4588:4597   */\n      dup2\n        /* \"#utility.yul\":4582:4586   */\n      dup2\n        /* \"#utility.yul\":4578:4598   */\n      sub\n        /* \"#utility.yul\":4574:4575   */\n      0x00\n        /* \"#utility.yul\":4563:4572   */\n      dup4\n        /* \"#utility.yul\":4559:4576   */\n      add\n        /* \"#utility.yul\":4552:4599   */\n      mstore\n        /* \"#utility.yul\":4616:4747   */\n      tag_305\n        /* \"#utility.yul\":4742:4746   */\n      dup2\n        /* \"#utility.yul\":4616:4747   */\n      tag_250\n      jump\t// in\n    tag_305:\n        /* \"#utility.yul\":4608:4747   */\n      swap1\n      pop\n        /* \"#utility.yul\":4335:4754   */\n      swap2\n      swap1\n      pop\n      jump\t// out\n        /* \"#utility.yul\":4760:4929   */\n    tag_251:\n        /* \"#utility.yul\":4900:4921   */\n      0x496e73756666696369656e7420616d6f756e7400000000000000000000000000\n        /* \"#utility.yul\":4896:4897   */\n      0x00\n        /* \"#utility.yul\":4888:4894   */\n      dup3\n        /* \"#utility.yul\":4884:4898   */\n      add\n        /* \"#utility.yul\":4877:4922   */\n      mstore\n        /* \"#utility.yul\":4760:4929   */\n      pop\n      jump\t// out\n        /* \"#utility.yul\":4935:5301   */\n    tag_252:\n        /* \"#utility.yul\":5077:5080   */\n      0x00\n        /* \"#utility.yul\":5098:5165   */\n      tag_308\n        /* \"#utility.yul\":5162:5164   */\n      0x13\n        /* \"#utility.yul\":5157:5160   */\n      dup4\n        /* \"#utility.yul\":5098:5165   */\n      tag_246\n      jump\t// in\n    tag_308:\n        /* \"#utility.yul\":5091:5165   */\n      swap2\n      pop\n        /* \"#utility.yul\":5174:5267   */\n      tag_309\n        /* \"#utility.yul\":5263:5266   */\n      dup3\n        /* \"#utility.yul\":5174:5267   */\n      tag_251\n      jump\t// in\n    tag_309:\n        /* \"#utility.yul\":5292:5294   */\n      0x20\n        /* \"#utility.yul\":5287:5290   */\n      dup3\n        /* \"#utility.yul\":5283:5295   */\n      add\n        /* \"#utility.yul\":5276:5295   */\n      swap1\n      pop\n        /* \"#utility.yul\":4935:5301   */\n      swap2\n      swap1\n      pop\n      jump\t// out\n        /* \"#utility.yul\":5307:5726   */\n    tag_96:\n        /* \"#utility.yul\":5473:5477   */\n      0x00\n        /* \"#utility.yul\":5511:5513   */\n      0x20\n        /* \"#utility.yul\":5500:5509   */\n      dup3\n        /* \"#utility.yul\":5496:5514   */\n      add\n        /* \"#utility.yul\":5488:5514   */\n      swap1\n      pop\n        /* \"#utility.yul\":5560:5569   */\n      dup2\n        /* \"#utility.yul\":5554:5558   */\n      dup2\n        /* \"#utility.yul\":5550:5570   */\n      sub\n        /* \"#utility.yul\":5546:5547   */\n      0x00\n        /* \"#utility.yul\":5535:5544   */\n      dup4\n        /* \"#utility.yul\":5531:5548   */\n      add\n        /* \"#utility.yul\":5524:5571   */\n      mstore\n        /* \"#utility.yul\":5588:5719   */\n      tag_311\n        /* \"#utility.yul\":5714:5718   */\n      dup2\n        /* \"#utility.yul\":5588:5719   */\n      tag_252\n      jump\t// in\n    tag_311:\n        /* \"#utility.yul\":5580:5719   */\n      swap1\n      pop\n        /* \"#utility.yul\":5307:5726   */\n      swap2\n      swap1\n      pop\n      jump\t// out\n        /* \"#utility.yul\":5732:5912   */\n    tag_253:\n        /* \"#utility.yul\":5780:5857   */\n      0x4e487b7100000000000000000000000000000000000000000000000000000000\n        /* \"#utility.yul\":5777:5778   */\n      0x00\n        /* \"#utility.yul\":5770:5858   */\n      mstore\n        /* \"#utility.yul\":5877:5881   */\n      0x11\n        /* \"#utility.yul\":5874:5875   */\n      0x04\n        /* \"#utility.yul\":5867:5882   */\n      mstore\n        /* \"#utility.yul\":5901:5905   */\n      0x24\n        /* \"#utility.yul\":5898:5899   */\n      0x00\n        /* \"#utility.yul\":5891:5906   */\n      revert\n        /* \"#utility.yul\":5918:6112   */\n    tag_100:\n        /* \"#utility.yul\":5958:5962   */\n      0x00\n        /* \"#utility.yul\":5978:5998   */\n      tag_314\n        /* \"#utility.yul\":5996:5997   */\n      dup3\n        /* \"#utility.yul\":5978:5998   */\n      tag_242\n      jump\t// in\n    tag_314:\n        /* \"#utility.yul\":5973:5998   */\n      swap2\n      pop\n        /* \"#utility.yul\":6012:6032   */\n      tag_315\n        /* \"#utility.yul\":6030:6031   */\n      dup4\n        /* \"#utility.yul\":6012:6032   */\n      tag_242\n      jump\t// in\n    tag_315:\n        /* \"#utility.yul\":6007:6032   */\n      swap3\n      pop\n        /* \"#utility.yul\":6056:6057   */\n      dup3\n        /* \"#utility.yul\":6053:6054   */\n      dup3\n        /* \"#utility.yul\":6049:6058   */\n      sub\n        /* \"#utility.yul\":6041:6058   */\n      swap1\n      pop\n        /* \"#utility.yul\":6080:6081   */\n      dup2\n        /* \"#utility.yul\":6074:6078   */\n      dup2\n        /* \"#utility.yul\":6071:6082   */\n      gt\n        /* \"#utility.yul\":6068:6105   */\n      iszero\n      tag_316\n      jumpi\n        /* \"#utility.yul\":6085:6103   */\n      tag_317\n      tag_253\n      jump\t// in\n    tag_317:\n        /* \"#utility.yul\":6068:6105   */\n    tag_316:\n        /* \"#utility.yul\":5918:6112   */\n      swap3\n      swap2\n      pop\n      pop\n      jump\t// out\n        /* \"#utility.yul\":6118:6309   */\n    tag_106:\n        /* \"#utility.yul\":6158:6161   */\n      0x00\n        /* \"#utility.yul\":6177:6197   */\n      tag_319\n        /* \"#utility.yul\":6195:6196   */\n      dup3\n        /* \"#utility.yul\":6177:6197   */\n      tag_242\n      jump\t// in\n    tag_319:\n        /* \"#utility.yul\":6172:6197   */\n      swap2\n      pop\n        /* \"#utility.yul\":6211:6231   */\n      tag_320\n        /* \"#utility.yul\":6229:6230   */\n      dup4\n        /* \"#utility.yul\":6211:6231   */\n      tag_242\n      jump\t// in\n    tag_320:\n        /* \"#utility.yul\":6206:6231   */\n      swap3\n      pop\n        /* \"#utility.yul\":6254:6255   */\n      dup3\n        /* \"#utility.yul\":6251:6252   */\n      dup3\n        /* \"#utility.yul\":6247:6256   */\n      add\n        /* \"#utility.yul\":6240:6256   */\n      swap1\n      pop\n        /* \"#utility.yul\":6275:6278   */\n      dup1\n        /* \"#utility.yul\":6272:6273   */\n      dup3\n        /* \"#utility.yul\":6269:6279   */\n      gt\n        /* \"#utility.yul\":6266:6302   */\n      iszero\n      tag_321\n      jumpi\n        /* \"#utility.yul\":6282:6300   */\n      tag_322\n      tag_253\n      jump\t// in\n    tag_322:\n        /* \"#utility.yul\":6266:6302   */\n    tag_321:\n        /* \"#utility.yul\":6118:6309   */\n      swap3\n      swap2\n      pop\n      pop\n      jump\t// out\n        /* \"#utility.yul\":6315:6486   */\n    tag_125:\n        /* \"#utility.yul\":6354:6357   */\n      0x00\n        /* \"#utility.yul\":6377:6401   */\n      tag_324\n        /* \"#utility.yul\":6395:6400   */\n      dup3\n        /* \"#utility.yul\":6377:6401   */\n      tag_242\n      jump\t// in\n    tag_324:\n        /* \"#utility.yul\":6368:6401   */\n      swap2\n      pop\n        /* \"#utility.yul\":6423:6427   */\n      0x00\n        /* \"#utility.yul\":6416:6421   */\n      dup3\n        /* \"#utility.yul\":6413:6428   */\n      sub\n        /* \"#utility.yul\":6410:6451   */\n      tag_325\n      jumpi\n        /* \"#utility.yul\":6431:6449   */\n      tag_326\n      tag_253\n      jump\t// in\n    tag_326:\n        /* \"#utility.yul\":6410:6451   */\n    tag_325:\n        /* \"#utility.yul\":6478:6479   */\n      0x01\n        /* \"#utility.yul\":6471:6476   */\n      dup3\n        /* \"#utility.yul\":6467:6480   */\n      sub\n        /* \"#utility.yul\":6460:6480   */\n      swap1\n      pop\n        /* \"#utility.yul\":6315:6486   */\n      swap2\n      swap1\n      pop\n      jump\t// out\n        /* \"#utility.yul\":6492:6667   */\n    tag_254:\n        /* \"#utility.yul\":6632:6659   */\n      0x496e73756666696369656e7420706f6f6c2062616c616e636500000000000000\n        /* \"#utility.yul\":6628:6629   */\n      0x00\n        /* \"#utility.yul\":6620:6626   */\n      dup3\n        /* \"#utility.yul\":6616:6630   */\n      add\n        /* \"#utility.yul\":6609:6660   */\n      mstore\n        /* \"#utility.yul\":6492:6667   */\n      pop\n      jump\t// out\n        /* \"#utility.yul\":6673:7039   */\n    tag_255:\n        /* \"#utility.yul\":6815:6818   */\n      0x00\n        /* \"#utility.yul\":6836:6903   */\n      tag_329\n        /* \"#utility.yul\":6900:6902   */\n      0x19\n        /* \"#utility.yul\":6895:6898   */\n      dup4\n        /* \"#utility.yul\":6836:6903   */\n      tag_246\n      jump\t// in\n    tag_329:\n        /* \"#utility.yul\":6829:6903   */\n      swap2\n      pop\n        /* \"#utility.yul\":6912:7005   */\n      tag_330\n        /* \"#utility.yul\":7001:7004   */\n      dup3\n        /* \"#utility.yul\":6912:7005   */\n      tag_254\n      jump\t// in\n    tag_330:\n        /* \"#utility.yul\":7030:7032   */\n      0x20\n        /* \"#utility.yul\":7025:7028   */\n      dup3\n        /* \"#utility.yul\":7021:7033   */\n      add\n        /* \"#utility.yul\":7014:7033   */\n      swap1\n      pop\n        /* \"#utility.yul\":6673:7039   */\n      swap2\n      swap1\n      pop\n      jump\t// out\n        /* \"#utility.yul\":7045:7464   */\n    tag_132:\n        /* \"#utility.yul\":7211:7215   */\n      0x00\n        /* \"#utility.yul\":7249:7251   */\n      0x20\n        /* \"#utility.yul\":7238:7247   */\n      dup3\n        /* \"#utility.yul\":7234:7252   */\n      add\n        /* \"#utility.yul\":7226:7252   */\n      swap1\n      pop\n        /* \"#utility.yul\":7298:7307   */\n      dup2\n        /* \"#utility.yul\":7292:7296   */\n      dup2\n        /* \"#utility.yul\":7288:7308   */\n      sub\n        /* \"#utility.yul\":7284:7285   */\n      0x00\n        /* \"#utility.yul\":7273:7282   */\n      dup4\n        /* \"#utility.yul\":7269:7286   */\n      add\n        /* \"#utility.yul\":7262:7309   */\n      mstore\n        /* \"#utility.yul\":7326:7457   */\n      tag_332\n        /* \"#utility.yul\":7452:7456   */\n      dup2\n        /* \"#utility.yul\":7326:7457   */\n      tag_255\n      jump\t// in\n    tag_332:\n        /* \"#utility.yul\":7318:7457   */\n      swap1\n      pop\n        /* \"#utility.yul\":7045:7464   */\n      swap2\n      swap1\n      pop\n      jump\t// out\n        /* \"#utility.yul\":7470:7693   */\n    tag_256:\n        /* \"#utility.yul\":7610:7644   */\n      0x53686172652073686f756c64206265206c657373207468616e20746f74616c53\n        /* \"#utility.yul\":7606:7607   */\n      0x00\n        /* \"#utility.yul\":7598:7604   */\n      dup3\n        /* \"#utility.yul\":7594:7608   */\n      add\n        /* \"#utility.yul\":7587:7645   */\n      mstore\n        /* \"#utility.yul\":7679:7685   */\n      0x6861726500000000000000000000000000000000000000000000000000000000\n        /* \"#utility.yul\":7674:7676   */\n      0x20\n        /* \"#utility.yul\":7666:7672   */\n      dup3\n        /* \"#utility.yul\":7662:7677   */\n      add\n        /* \"#utility.yul\":7655:7686   */\n      mstore\n        /* \"#utility.yul\":7470:7693   */\n      pop\n      jump\t// out\n        /* \"#utility.yul\":7699:8065   */\n    tag_257:\n        /* \"#utility.yul\":7841:7844   */\n      0x00\n        /* \"#utility.yul\":7862:7929   */\n      tag_335\n        /* \"#utility.yul\":7926:7928   */\n      0x24\n        /* \"#utility.yul\":7921:7924   */\n      dup4\n        /* \"#utility.yul\":7862:7929   */\n      tag_246\n      jump\t// in\n    tag_335:\n        /* \"#utility.yul\":7855:7929   */\n      swap2\n      pop\n        /* \"#utility.yul\":7938:8031   */\n      tag_336\n        /* \"#utility.yul\":8027:8030   */\n      dup3\n        /* \"#utility.yul\":7938:8031   */\n      tag_256\n      jump\t// in\n    tag_336:\n        /* \"#utility.yul\":8056:8058   */\n      0x40\n        /* \"#utility.yul\":8051:8054   */\n      dup3\n        /* \"#utility.yul\":8047:8059   */\n      add\n        /* \"#utility.yul\":8040:8059   */\n      swap1\n      pop\n        /* \"#utility.yul\":7699:8065   */\n      swap2\n      swap1\n      pop\n      jump\t// out\n        /* \"#utility.yul\":8071:8490   */\n    tag_158:\n        /* \"#utility.yul\":8237:8241   */\n      0x00\n        /* \"#utility.yul\":8275:8277   */\n      0x20\n        /* \"#utility.yul\":8264:8273   */\n      dup3\n        /* \"#utility.yul\":8260:8278   */\n      add\n        /* \"#utility.yul\":8252:8278   */\n      swap1\n      pop\n        /* \"#utility.yul\":8324:8333   */\n      dup2\n        /* \"#utility.yul\":8318:8322   */\n      dup2\n        /* \"#utility.yul\":8314:8334   */\n      sub\n        /* \"#utility.yul\":8310:8311   */\n      0x00\n        /* \"#utility.yul\":8299:8308   */\n      dup4\n        /* \"#utility.yul\":8295:8312   */\n      add\n        /* \"#utility.yul\":8288:8335   */\n      mstore\n        /* \"#utility.yul\":8352:8483   */\n      tag_338\n        /* \"#utility.yul\":8478:8482   */\n      dup2\n        /* \"#utility.yul\":8352:8483   */\n      tag_257\n      jump\t// in\n    tag_338:\n        /* \"#utility.yul\":8344:8483   */\n      swap1\n      pop\n        /* \"#utility.yul\":8071:8490   */\n      swap2\n      swap1\n      pop\n      jump\t// out\n        /* \"#utility.yul\":8496:8906   */\n    tag_194:\n        /* \"#utility.yul\":8536:8543   */\n      0x00\n        /* \"#utility.yul\":8559:8579   */\n      tag_340\n        /* \"#utility.yul\":8577:8578   */\n      dup3\n        /* \"#utility.yul\":8559:8579   */\n      tag_242\n      jump\t// in\n    tag_340:\n        /* \"#utility.yul\":8554:8579   */\n      swap2\n      pop\n        /* \"#utility.yul\":8593:8613   */\n      tag_341\n        /* \"#utility.yul\":8611:8612   */\n      dup4\n        /* \"#utility.yul\":8593:8613   */\n      tag_242\n      jump\t// in\n    tag_341:\n        /* \"#utility.yul\":8588:8613   */\n      swap3\n      pop\n        /* \"#utility.yul\":8648:8649   */\n      dup3\n        /* \"#utility.yul\":8645:8646   */\n      dup3\n        /* \"#utility.yul\":8641:8650   */\n      mul\n        /* \"#utility.yul\":8670:8700   */\n      tag_342\n        /* \"#utility.yul\":8688:8699   */\n      dup2\n        /* \"#utility.yul\":8670:8700   */\n      tag_242\n      jump\t// in\n    tag_342:\n        /* \"#utility.yul\":8659:8700   */\n      swap2\n      pop\n        /* \"#utility.yul\":8849:8850   */\n      dup3\n        /* \"#utility.yul\":8840:8847   */\n      dup3\n        /* \"#utility.yul\":8836:8851   */\n      div\n        /* \"#utility.yul\":8833:8834   */\n      dup5\n        /* \"#utility.yul\":8830:8852   */\n      eq\n        /* \"#utility.yul\":8810:8811   */\n      dup4\n        /* \"#utility.yul\":8803:8812   */\n      iszero\n        /* \"#utility.yul\":8783:8866   */\n      or\n        /* \"#utility.yul\":8760:8899   */\n      tag_343\n      jumpi\n        /* \"#utility.yul\":8879:8897   */\n      tag_344\n      tag_253\n      jump\t// in\n    tag_344:\n        /* \"#utility.yul\":8760:8899   */\n    tag_343:\n        /* \"#utility.yul\":8544:8906   */\n      pop\n        /* \"#utility.yul\":8496:8906   */\n      swap3\n      swap2\n      pop\n      pop\n      jump\t// out\n        /* \"#utility.yul\":8912:9141   */\n    tag_258:\n        /* \"#utility.yul\":9052:9086   */\n      0x4571756976616c656e742076616c7565206f6620746f6b656e73206e6f742070\n        /* \"#utility.yul\":9048:9049   */\n      0x00\n        /* \"#utility.yul\":9040:9046   */\n      dup3\n        /* \"#utility.yul\":9036:9050   */\n      add\n        /* \"#utility.yul\":9029:9087   */\n      mstore\n        /* \"#utility.yul\":9121:9133   */\n      0x726f76696465642e2e2e00000000000000000000000000000000000000000000\n        /* \"#utility.yul\":9116:9118   */\n      0x20\n        /* \"#utility.yul\":9108:9114   */\n      dup3\n        /* \"#utility.yul\":9104:9119   */\n      add\n        /* \"#utility.yul\":9097:9134   */\n      mstore\n        /* \"#utility.yul\":8912:9141   */\n      pop\n      jump\t// out\n        /* \"#utility.yul\":9147:9513   */\n    tag_259:\n        /* \"#utility.yul\":9289:9292   */\n      0x00\n        /* \"#utility.yul\":9310:9377   */\n      tag_347\n        /* \"#utility.yul\":9374:9376   */\n      0x2a\n        /* \"#utility.yul\":9369:9372   */\n      dup4\n        /* \"#utility.yul\":9310:9377   */\n      tag_246\n      jump\t// in\n    tag_347:\n        /* \"#utility.yul\":9303:9377   */\n      swap2\n      pop\n        /* \"#utility.yul\":9386:9479   */\n      tag_348\n        /* \"#utility.yul\":9475:9478   */\n      dup3\n        /* \"#utility.yul\":9386:9479   */\n      tag_258\n      jump\t// in\n    tag_348:\n        /* \"#utility.yul\":9504:9506   */\n      0x40\n        /* \"#utility.yul\":9499:9502   */\n      dup3\n        /* \"#utility.yul\":9495:9507   */\n      add\n        /* \"#utility.yul\":9488:9507   */\n      swap1\n      pop\n        /* \"#utility.yul\":9147:9513   */\n      swap2\n      swap1\n      pop\n      jump\t// out\n        /* \"#utility.yul\":9519:9938   */\n    tag_202:\n        /* \"#utility.yul\":9685:9689   */\n      0x00\n        /* \"#utility.yul\":9723:9725   */\n      0x20\n        /* \"#utility.yul\":9712:9721   */\n      dup3\n        /* \"#utility.yul\":9708:9726   */\n      add\n        /* \"#utility.yul\":9700:9726   */\n      swap1\n      pop\n        /* \"#utility.yul\":9772:9781   */\n      dup2\n        /* \"#utility.yul\":9766:9770   */\n      dup2\n        /* \"#utility.yul\":9762:9782   */\n      sub\n        /* \"#utility.yul\":9758:9759   */\n      0x00\n        /* \"#utility.yul\":9747:9756   */\n      dup4\n        /* \"#utility.yul\":9743:9760   */\n      add\n        /* \"#utility.yul\":9736:9783   */\n      mstore\n        /* \"#utility.yul\":9800:9931   */\n      tag_350\n        /* \"#utility.yul\":9926:9930   */\n      dup2\n        /* \"#utility.yul\":9800:9931   */\n      tag_259\n      jump\t// in\n    tag_350:\n        /* \"#utility.yul\":9792:9931   */\n      swap1\n      pop\n        /* \"#utility.yul\":9519:9938   */\n      swap2\n      swap1\n      pop\n      jump\t// out\n        /* \"#utility.yul\":9944:10180   */\n    tag_260:\n        /* \"#utility.yul\":10084:10118   */\n      0x41737365742076616c7565206c657373207468616e207468726573686f6c6420\n        /* \"#utility.yul\":10080:10081   */\n      0x00\n        /* \"#utility.yul\":10072:10078   */\n      dup3\n        /* \"#utility.yul\":10068:10082   */\n      add\n        /* \"#utility.yul\":10061:10119   */\n      mstore\n        /* \"#utility.yul\":10153:10172   */\n      0x666f7220636f6e747269627574696f6e21000000000000000000000000000000\n        /* \"#utility.yul\":10148:10150   */\n      0x20\n        /* \"#utility.yul\":10140:10146   */\n      dup3\n        /* \"#utility.yul\":10136:10151   */\n      add\n        /* \"#utility.yul\":10129:10173   */\n      mstore\n        /* \"#utility.yul\":9944:10180   */\n      pop\n      jump\t// out\n        /* \"#utility.yul\":10186:10552   */\n    tag_261:\n        /* \"#utility.yul\":10328:10331   */\n      0x00\n        /* \"#utility.yul\":10349:10416   */\n      tag_353\n        /* \"#utility.yul\":10413:10415   */\n      0x31\n        /* \"#utility.yul\":10408:10411   */\n      dup4\n        /* \"#utility.yul\":10349:10416   */\n      tag_246\n      jump\t// in\n    tag_353:\n        /* \"#utility.yul\":10342:10416   */\n      swap2\n      pop\n        /* \"#utility.yul\":10425:10518   */\n      tag_354\n        /* \"#utility.yul\":10514:10517   */\n      dup3\n        /* \"#utility.yul\":10425:10518   */\n      tag_260\n      jump\t// in\n    tag_354:\n        /* \"#utility.yul\":10543:10545   */\n      0x40\n        /* \"#utility.yul\":10538:10541   */\n      dup3\n        /* \"#utility.yul\":10534:10546   */\n      add\n        /* \"#utility.yul\":10527:10546   */\n      swap1\n      pop\n        /* \"#utility.yul\":10186:10552   */\n      swap2\n      swap1\n      pop\n      jump\t// out\n        /* \"#utility.yul\":10558:10977   */\n    tag_205:\n        /* \"#utility.yul\":10724:10728   */\n      0x00\n        /* \"#utility.yul\":10762:10764   */\n      0x20\n        /* \"#utility.yul\":10751:10760   */\n      dup3\n        /* \"#utility.yul\":10747:10765   */\n      add\n        /* \"#utility.yul\":10739:10765   */\n      swap1\n      pop\n        /* \"#utility.yul\":10811:10820   */\n      dup2\n        /* \"#utility.yul\":10805:10809   */\n      dup2\n        /* \"#utility.yul\":10801:10821   */\n      sub\n        /* \"#utility.yul\":10797:10798   */\n      0x00\n        /* \"#utility.yul\":10786:10795   */\n      dup4\n        /* \"#utility.yul\":10782:10799   */\n      add\n        /* \"#utility.yul\":10775:10822   */\n      mstore\n        /* \"#utility.yul\":10839:10970   */\n      tag_356\n        /* \"#utility.yul\":10965:10969   */\n      dup2\n        /* \"#utility.yul\":10839:10970   */\n      tag_261\n      jump\t// in\n    tag_356:\n        /* \"#utility.yul\":10831:10970   */\n      swap1\n      pop\n        /* \"#utility.yul\":10558:10977   */\n      swap2\n      swap1\n      pop\n      jump\t// out\n        /* \"#utility.yul\":10983:11163   */\n    tag_262:\n        /* \"#utility.yul\":11031:11108   */\n      0x4e487b7100000000000000000000000000000000000000000000000000000000\n        /* \"#utility.yul\":11028:11029   */\n      0x00\n        /* \"#utility.yul\":11021:11109   */\n      mstore\n        /* \"#utility.yul\":11128:11132   */\n      0x12\n        /* \"#utility.yul\":11125:11126   */\n      0x04\n        /* \"#utility.yul\":11118:11133   */\n      mstore\n        /* \"#utility.yul\":11152:11156   */\n      0x24\n        /* \"#utility.yul\":11149:11150   */\n      0x00\n        /* \"#utility.yul\":11142:11157   */\n      revert\n        /* \"#utility.yul\":11169:11354   */\n    tag_234:\n        /* \"#utility.yul\":11209:11210   */\n      0x00\n        /* \"#utility.yul\":11226:11246   */\n      tag_359\n        /* \"#utility.yul\":11244:11245   */\n      dup3\n        /* \"#utility.yul\":11226:11246   */\n      tag_242\n      jump\t// in\n    tag_359:\n        /* \"#utility.yul\":11221:11246   */\n      swap2\n      pop\n        /* \"#utility.yul\":11260:11280   */\n      tag_360\n        /* \"#utility.yul\":11278:11279   */\n      dup4\n        /* \"#utility.yul\":11260:11280   */\n      tag_242\n      jump\t// in\n    tag_360:\n        /* \"#utility.yul\":11255:11280   */\n      swap3\n      pop\n        /* \"#utility.yul\":11299:11300   */\n      dup3\n        /* \"#utility.yul\":11289:11324   */\n      tag_361\n      jumpi\n        /* \"#utility.yul\":11304:11322   */\n      tag_362\n      tag_262\n      jump\t// in\n    tag_362:\n        /* \"#utility.yul\":11289:11324   */\n    tag_361:\n        /* \"#utility.yul\":11346:11347   */\n      dup3\n        /* \"#utility.yul\":11343:11344   */\n      dup3\n        /* \"#utility.yul\":11339:11348   */\n      div\n        /* \"#utility.yul\":11334:11348   */\n      swap1\n      pop\n        /* \"#utility.yul\":11169:11354   */\n      swap3\n      swap2\n      pop\n      pop\n      jump\t// out\n\n    auxdata: 0xa264697066735822122044ba99f2e1d91cb4b2c46e533f130f62692345c49e8de72f4d21993b810a38e964736f6c63430008160033\n}\n",
				"bytecode": {
					"linkReferences": {},
					"object": "608060405234801561000f575f80fd5b50611ad58061001d5f395ff3fe608060405234801561000f575f80fd5b50600436106100e8575f3560e01c8063aca34c111161008a578063d3817b4a11610064578063d3817b4a146102ae578063e8c3c54f146102de578063f4cb34d41461030e578063f98137981461033e576100e8565b8063aca34c111461022d578063b32440411461024d578063d212b4401461027e576100e8565b8063450177c6116100c6578063450177c61461017d5780637565a92b146101ad57806391e0dbb8146101dd578063980d69d3146101fd576100e8565b8063078b7fdc146100ec5780632e1a7d4d1461011c578063319bb38f1461014d575b5f80fd5b61010660048036038101906101019190611500565b61035a565b604051610113919061153a565b60405180910390f35b61013660048036038101906101319190611500565b6103ce565b604051610144929190611553565b60405180910390f35b61016760048036038101906101629190611500565b61064c565b604051610174919061153a565b60405180910390f35b61019760048036038101906101929190611500565b6106c0565b6040516101a4919061153a565b60405180910390f35b6101c760048036038101906101c29190611500565b61076a565b6040516101d4919061153a565b60405180910390f35b6101e5610840565b6040516101f49392919061157a565b60405180910390f35b61021760048036038101906102129190611500565b610908565b604051610224919061153a565b60405180910390f35b610235610af8565b6040516102449392919061157a565b60405180910390f35b61026760048036038101906102629190611500565b610b0e565b604051610275929190611553565b60405180910390f35b61029860048036038101906102939190611500565b610bf0565b6040516102a5919061153a565b60405180910390f35b6102c860048036038101906102c39190611500565b610cc6565b6040516102d5919061153a565b60405180910390f35b6102f860048036038101906102f391906115af565b610d70565b604051610305919061153a565b60405180910390f35b61032860048036038101906103239190611500565b61115f565b604051610335919061153a565b60405180910390f35b610358600480360381019061035391906115af565b61134f565b005b5f805f541161039e576040517f08c379a000000000000000000000000000000000000000000000000000000000815260040161039590611647565b60405180910390fd5b6103c76002546103b98460015461147590919063ffffffff16565b61148a90919063ffffffff16565b9050919050565b5f805f805411610413576040517f08c379a000000000000000000000000000000000000000000000000000000000815260040161040a90611647565b60405180910390fd5b6004835f8111610458576040517f08c379a000000000000000000000000000000000000000000000000000000000815260040161044f906116af565b60405180910390fd5b815f3373ffffffffffffffffffffffffffffffffffffffff1673ffffffffffffffffffffffffffffffffffffffff1681526020019081526020015f20548111156104d7576040517f08c379a00000000000000000000000000000000000000000000000000000000081526004016104ce90611717565b60405180910390fd5b6104e085610b0e565b80945081955050508460045f3373ffffffffffffffffffffffffffffffffffffffff1673ffffffffffffffffffffffffffffffffffffffff1681526020019081526020015f205f8282546105349190611762565b92505081905550845f8082825461054b9190611762565b925050819055508360015f8282546105639190611762565b925050819055508260025f82825461057b9190611762565b9250508190555061059960025460015461147590919063ffffffff16565b6003819055508360055f3373ffffffffffffffffffffffffffffffffffffffff1673ffffffffffffffffffffffffffffffffffffffff1681526020019081526020015f205f8282546105eb9190611795565b925050819055508260065f3373ffffffffffffffffffffffffffffffffffffffff1673ffffffffffffffffffffffffffffffffffffffff1681526020019081526020015f205f82825461063e9190611795565b925050819055505050915091565b5f805f5411610690576040517f08c379a000000000000000000000000000000000000000000000000000000000815260040161068790611647565b60405180910390fd5b6106b96001546106ab8460025461147590919063ffffffff16565b61148a90919063ffffffff16565b9050919050565b5f805f5411610704576040517f08c379a00000000000000000000000000000000000000000000000000000000081526004016106fb90611647565b60405180910390fd5b5f61071a8360015461149f90919063ffffffff16565b90505f6107328260035461148a90919063ffffffff16565b9050610749816002546114b490919063ffffffff16565b9250600254830361076357828061075f906117c8565b9350505b5050919050565b5f805f54116107ae576040517f08c379a00000000000000000000000000000000000000000000000000000000081526004016107a590611647565b60405180910390fd5b60015482106107f2576040517f08c379a00000000000000000000000000000000000000000000000000000000081526004016107e990611839565b60405180910390fd5b5f610808836001546114b490919063ffffffff16565b90505f6108208260035461148a90919063ffffffff16565b9050610837600254826114b490919063ffffffff16565b92505050919050565b5f805f60055f3373ffffffffffffffffffffffffffffffffffffffff1673ffffffffffffffffffffffffffffffffffffffff1681526020019081526020015f2054925060065f3373ffffffffffffffffffffffffffffffffffffffff1673ffffffffffffffffffffffffffffffffffffffff1681526020019081526020015f2054915060045f3373ffffffffffffffffffffffffffffffffffffffff1673ffffffffffffffffffffffffffffffffffffffff1681526020019081526020015f20549050909192565b5f805f541161094c576040517f08c379a000000000000000000000000000000000000000000000000000000000815260040161094390611647565b60405180910390fd5b6006825f8111610991576040517f08c379a0000000000000000000000000000000000000000000000000000000008152600401610988906116af565b60405180910390fd5b815f3373ffffffffffffffffffffffffffffffffffffffff1673ffffffffffffffffffffffffffffffffffffffff1681526020019081526020015f2054811115610a10576040517f08c379a0000000000000000000000000000000000000000000000000000000008152600401610a0790611717565b60405180910390fd5b610a1984610cc6565b92508360065f3373ffffffffffffffffffffffffffffffffffffffff1673ffffffffffffffffffffffffffffffffffffffff1681526020019081526020015f205f828254610a679190611762565b925050819055508360025f828254610a7f9190611795565b925050819055508260015f828254610a979190611762565b925050819055508260055f3373ffffffffffffffffffffffffffffffffffffffff1673ffffffffffffffffffffffffffffffffffffffff1681526020019081526020015f205f828254610aea9190611795565b925050819055505050919050565b5f805f6001546002545f54925092509250909192565b5f805f805411610b53576040517f08c379a0000000000000000000000000000000000000000000000000000000008152600401610b4a90611647565b60405180910390fd5b5f54831115610b97576040517f08c379a0000000000000000000000000000000000000000000000000000000008152600401610b8e906118c7565b60405180910390fd5b610bbf5f54610bb16001548661147590919063ffffffff16565b61148a90919063ffffffff16565b9150610be95f54610bdb6002548661147590919063ffffffff16565b61148a90919063ffffffff16565b9050915091565b5f805f5411610c34576040517f08c379a0000000000000000000000000000000000000000000000000000000008152600401610c2b90611647565b60405180910390fd5b6002548210610c78576040517f08c379a0000000000000000000000000000000000000000000000000000000008152600401610c6f90611839565b60405180910390fd5b5f610c8e836002546114b490919063ffffffff16565b90505f610ca68260035461148a90919063ffffffff16565b9050610cbd600154826114b490919063ffffffff16565b92505050919050565b5f805f5411610d0a576040517f08c379a0000000000000000000000000000000000000000000000000000000008152600401610d0190611647565b60405180910390fd5b5f610d208360025461149f90919063ffffffff16565b90505f610d388260035461148a90919063ffffffff16565b9050610d4f816001546114b490919063ffffffff16565b92506001548303610d69578280610d65906117c8565b9350505b5050919050565b5f6005835f8111610db6576040517f08c379a0000000000000000000000000000000000000000000000000000000008152600401610dad906116af565b60405180910390fd5b815f3373ffffffffffffffffffffffffffffffffffffffff1673ffffffffffffffffffffffffffffffffffffffff1681526020019081526020015f2054811115610e35576040517f08c379a0000000000000000000000000000000000000000000000000000000008152600401610e2c90611717565b60405180910390fd5b6006845f8111610e7a576040517f08c379a0000000000000000000000000000000000000000000000000000000008152600401610e71906116af565b60405180910390fd5b815f3373ffffffffffffffffffffffffffffffffffffffff1673ffffffffffffffffffffffffffffffffffffffff1681526020019081526020015f2054811115610ef9576040517f08c379a0000000000000000000000000000000000000000000000000000000008152600401610ef090611717565b60405180910390fd5b5f805403610f1857620f42406064610f1191906118e5565b9450610fb6565b5f610f41600154610f338a5f5461147590919063ffffffff16565b61148a90919063ffffffff16565b90505f610f6c600254610f5e8a5f5461147590919063ffffffff16565b61148a90919063ffffffff16565b9050808214610fb0576040517f08c379a0000000000000000000000000000000000000000000000000000000008152600401610fa790611996565b60405180910390fd5b81965050505b5f8511610ff8576040517f08c379a0000000000000000000000000000000000000000000000000000000008152600401610fef90611a24565b60405180910390fd5b8660055f3373ffffffffffffffffffffffffffffffffffffffff1673ffffffffffffffffffffffffffffffffffffffff1681526020019081526020015f205f8282546110449190611762565b925050819055508560065f3373ffffffffffffffffffffffffffffffffffffffff1673ffffffffffffffffffffffffffffffffffffffff1681526020019081526020015f205f8282546110979190611762565b925050819055508660015f8282546110af9190611795565b925050819055508560025f8282546110c79190611795565b925050819055506110e560025460015461147590919063ffffffff16565b600381905550845f808282546110fb9190611795565b925050819055508460045f3373ffffffffffffffffffffffffffffffffffffffff1673ffffffffffffffffffffffffffffffffffffffff1681526020019081526020015f205f82825461114e9190611795565b925050819055505050505092915050565b5f805f54116111a3576040517f08c379a000000000000000000000000000000000000000000000000000000000815260040161119a90611647565b60405180910390fd5b6005825f81116111e8576040517f08c379a00000000000000000000000000000000000000000000000000000000081526004016111df906116af565b60405180910390fd5b815f3373ffffffffffffffffffffffffffffffffffffffff1673ffffffffffffffffffffffffffffffffffffffff1681526020019081526020015f2054811115611267576040517f08c379a000000000000000000000000000000000000000000000000000000000815260040161125e90611717565b60405180910390fd5b611270846106c0565b92508360055f3373ffffffffffffffffffffffffffffffffffffffff1673ffffffffffffffffffffffffffffffffffffffff1681526020019081526020015f205f8282546112be9190611762565b925050819055508360015f8282546112d69190611795565b925050819055508260025f8282546112ee9190611762565b925050819055508260065f3373ffffffffffffffffffffffffffffffffffffffff1673ffffffffffffffffffffffffffffffffffffffff1681526020019081526020015f205f8282546113419190611795565b925050819055505050919050565b61139f8260055f3373ffffffffffffffffffffffffffffffffffffffff1673ffffffffffffffffffffffffffffffffffffffff1681526020019081526020015f205461149f90919063ffffffff16565b60055f3373ffffffffffffffffffffffffffffffffffffffff1673ffffffffffffffffffffffffffffffffffffffff1681526020019081526020015f20819055506114308160065f3373ffffffffffffffffffffffffffffffffffffffff1673ffffffffffffffffffffffffffffffffffffffff1681526020019081526020015f205461149f90919063ffffffff16565b60065f3373ffffffffffffffffffffffffffffffffffffffff1673ffffffffffffffffffffffffffffffffffffffff1681526020019081526020015f20819055505050565b5f818361148291906118e5565b905092915050565b5f81836114979190611a6f565b905092915050565b5f81836114ac9190611795565b905092915050565b5f81836114c19190611762565b905092915050565b5f80fd5b5f819050919050565b6114df816114cd565b81146114e9575f80fd5b50565b5f813590506114fa816114d6565b92915050565b5f60208284031215611515576115146114c9565b5b5f611522848285016114ec565b91505092915050565b611534816114cd565b82525050565b5f60208201905061154d5f83018461152b565b92915050565b5f6040820190506115665f83018561152b565b611573602083018461152b565b9392505050565b5f60608201905061158d5f83018661152b565b61159a602083018561152b565b6115a7604083018461152b565b949350505050565b5f80604083850312156115c5576115c46114c9565b5b5f6115d2858286016114ec565b92505060206115e3858286016114ec565b9150509250929050565b5f82825260208201905092915050565b7f5a65726f204c69717569646974790000000000000000000000000000000000005f82015250565b5f611631600e836115ed565b915061163c826115fd565b602082019050919050565b5f6020820190508181035f83015261165e81611625565b9050919050565b7f416d6f756e742063616e6e6f74206265207a65726f21000000000000000000005f82015250565b5f6116996016836115ed565b91506116a482611665565b602082019050919050565b5f6020820190508181035f8301526116c68161168d565b9050919050565b7f496e73756666696369656e7420616d6f756e74000000000000000000000000005f82015250565b5f6117016013836115ed565b915061170c826116cd565b602082019050919050565b5f6020820190508181035f83015261172e816116f5565b9050919050565b7f4e487b71000000000000000000000000000000000000000000000000000000005f52601160045260245ffd5b5f61176c826114cd565b9150611777836114cd565b925082820390508181111561178f5761178e611735565b5b92915050565b5f61179f826114cd565b91506117aa836114cd565b92508282019050808211156117c2576117c1611735565b5b92915050565b5f6117d2826114cd565b91505f82036117e4576117e3611735565b5b600182039050919050565b7f496e73756666696369656e7420706f6f6c2062616c616e6365000000000000005f82015250565b5f6118236019836115ed565b915061182e826117ef565b602082019050919050565b5f6020820190508181035f83015261185081611817565b9050919050565b7f53686172652073686f756c64206265206c657373207468616e20746f74616c535f8201527f6861726500000000000000000000000000000000000000000000000000000000602082015250565b5f6118b16024836115ed565b91506118bc82611857565b604082019050919050565b5f6020820190508181035f8301526118de816118a5565b9050919050565b5f6118ef826114cd565b91506118fa836114cd565b9250828202611908816114cd565b9150828204841483151761191f5761191e611735565b5b5092915050565b7f4571756976616c656e742076616c7565206f6620746f6b656e73206e6f7420705f8201527f726f76696465642e2e2e00000000000000000000000000000000000000000000602082015250565b5f611980602a836115ed565b915061198b82611926565b604082019050919050565b5f6020820190508181035f8301526119ad81611974565b9050919050565b7f41737365742076616c7565206c657373207468616e207468726573686f6c64205f8201527f666f7220636f6e747269627574696f6e21000000000000000000000000000000602082015250565b5f611a0e6031836115ed565b9150611a19826119b4565b604082019050919050565b5f6020820190508181035f830152611a3b81611a02565b9050919050565b7f4e487b71000000000000000000000000000000000000000000000000000000005f52601260045260245ffd5b5f611a79826114cd565b9150611a84836114cd565b925082611a9457611a93611a42565b5b82820490509291505056fea264697066735822122044ba99f2e1d91cb4b2c46e533f130f62692345c49e8de72f4d21993b810a38e964736f6c63430008160033",
					"opcodes": "PUSH1 0x80 PUSH1 0x40 MSTORE CALLVALUE DUP1 ISZERO PUSH2 0xF JUMPI PUSH0 DUP1 REVERT JUMPDEST POP PUSH2 0x1AD5 DUP1 PUSH2 0x1D PUSH0 CODECOPY PUSH0 RETURN INVALID PUSH1 0x80 PUSH1 0x40 MSTORE CALLVALUE DUP1 ISZERO PUSH2 0xF JUMPI PUSH0 DUP1 REVERT JUMPDEST POP PUSH1 0x4 CALLDATASIZE LT PUSH2 0xE8 JUMPI PUSH0 CALLDATALOAD PUSH1 0xE0 SHR DUP1 PUSH4 0xACA34C11 GT PUSH2 0x8A JUMPI DUP1 PUSH4 0xD3817B4A GT PUSH2 0x64 JUMPI DUP1 PUSH4 0xD3817B4A EQ PUSH2 0x2AE JUMPI DUP1 PUSH4 0xE8C3C54F EQ PUSH2 0x2DE JUMPI DUP1 PUSH4 0xF4CB34D4 EQ PUSH2 0x30E JUMPI DUP1 PUSH4 0xF9813798 EQ PUSH2 0x33E JUMPI PUSH2 0xE8 JUMP JUMPDEST DUP1 PUSH4 0xACA34C11 EQ PUSH2 0x22D JUMPI DUP1 PUSH4 0xB3244041 EQ PUSH2 0x24D JUMPI DUP1 PUSH4 0xD212B440 EQ PUSH2 0x27E JUMPI PUSH2 0xE8 JUMP JUMPDEST DUP1 PUSH4 0x450177C6 GT PUSH2 0xC6 JUMPI DUP1 PUSH4 0x450177C6 EQ PUSH2 0x17D JUMPI DUP1 PUSH4 0x7565A92B EQ PUSH2 0x1AD JUMPI DUP1 PUSH4 0x91E0DBB8 EQ PUSH2 0x1DD JUMPI DUP1 PUSH4 0x980D69D3 EQ PUSH2 0x1FD JUMPI PUSH2 0xE8 JUMP JUMPDEST DUP1 PUSH4 0x78B7FDC EQ PUSH2 0xEC JUMPI DUP1 PUSH4 0x2E1A7D4D EQ PUSH2 0x11C JUMPI DUP1 PUSH4 0x319BB38F EQ PUSH2 0x14D JUMPI JUMPDEST PUSH0 DUP1 REVERT JUMPDEST PUSH2 0x106 PUSH1 0x4 DUP1 CALLDATASIZE SUB DUP2 ADD SWAP1 PUSH2 0x101 SWAP2 SWAP1 PUSH2 0x1500 JUMP JUMPDEST PUSH2 0x35A JUMP JUMPDEST PUSH1 0x40 MLOAD PUSH2 0x113 SWAP2 SWAP1 PUSH2 0x153A JUMP JUMPDEST PUSH1 0x40 MLOAD DUP1 SWAP2 SUB SWAP1 RETURN JUMPDEST PUSH2 0x136 PUSH1 0x4 DUP1 CALLDATASIZE SUB DUP2 ADD SWAP1 PUSH2 0x131 SWAP2 SWAP1 PUSH2 0x1500 JUMP JUMPDEST PUSH2 0x3CE JUMP JUMPDEST PUSH1 0x40 MLOAD PUSH2 0x144 SWAP3 SWAP2 SWAP1 PUSH2 0x1553 JUMP JUMPDEST PUSH1 0x40 MLOAD DUP1 SWAP2 SUB SWAP1 RETURN JUMPDEST PUSH2 0x167 PUSH1 0x4 DUP1 CALLDATASIZE SUB DUP2 ADD SWAP1 PUSH2 0x162 SWAP2 SWAP1 PUSH2 0x1500 JUMP JUMPDEST PUSH2 0x64C JUMP JUMPDEST PUSH1 0x40 MLOAD PUSH2 0x174 SWAP2 SWAP1 PUSH2 0x153A JUMP JUMPDEST PUSH1 0x40 MLOAD DUP1 SWAP2 SUB SWAP1 RETURN JUMPDEST PUSH2 0x197 PUSH1 0x4 DUP1 CALLDATASIZE SUB DUP2 ADD SWAP1 PUSH2 0x192 SWAP2 SWAP1 PUSH2 0x1500 JUMP JUMPDEST PUSH2 0x6C0 JUMP JUMPDEST PUSH1 0x40 MLOAD PUSH2 0x1A4 SWAP2 SWAP1 PUSH2 0x153A JUMP JUMPDEST PUSH1 0x40 MLOAD DUP1 SWAP2 SUB SWAP1 RETURN JUMPDEST PUSH2 0x1C7 PUSH1 0x4 DUP1 CALLDATASIZE SUB DUP2 ADD SWAP1 PUSH2 0x1C2 SWAP2 SWAP1 PUSH2 0x1500 JUMP JUMPDEST PUSH2 0x76A JUMP JUMPDEST PUSH1 0x40 MLOAD PUSH2 0x1D4 SWAP2 SWAP1 PUSH2 0x153A JUMP JUMPDEST PUSH1 0x40 MLOAD DUP1 SWAP2 SUB SWAP1 RETURN JUMPDEST PUSH2 0x1E5 PUSH2 0x840 JUMP JUMPDEST PUSH1 0x40 MLOAD PUSH2 0x1F4 SWAP4 SWAP3 SWAP2 SWAP1 PUSH2 0x157A JUMP JUMPDEST PUSH1 0x40 MLOAD DUP1 SWAP2 SUB SWAP1 RETURN JUMPDEST PUSH2 0x217 PUSH1 0x4 DUP1 CALLDATASIZE SUB DUP2 ADD SWAP1 PUSH2 0x212 SWAP2 SWAP1 PUSH2 0x1500 JUMP JUMPDEST PUSH2 0x908 JUMP JUMPDEST PUSH1 0x40 MLOAD PUSH2 0x224 SWAP2 SWAP1 PUSH2 0x153A JUMP JUMPDEST PUSH1 0x40 MLOAD DUP1 SWAP2 SUB SWAP1 RETURN JUMPDEST PUSH2 0x235 PUSH2 0xAF8 JUMP JUMPDEST PUSH1 0x40 MLOAD PUSH2 0x244 SWAP4 SWAP3 SWAP2 SWAP1 PUSH2 0x157A JUMP JUMPDEST PUSH1 0x40 MLOAD DUP1 SWAP2 SUB SWAP1 RETURN JUMPDEST PUSH2 0x267 PUSH1 0x4 DUP1 CALLDATASIZE SUB DUP2 ADD SWAP1 PUSH2 0x262 SWAP2 SWAP1 PUSH2 0x1500 JUMP JUMPDEST PUSH2 0xB0E JUMP JUMPDEST PUSH1 0x40 MLOAD PUSH2 0x275 SWAP3 SWAP2 SWAP1 PUSH2 0x1553 JUMP JUMPDEST PUSH1 0x40 MLOAD DUP1 SWAP2 SUB SWAP1 RETURN JUMPDEST PUSH2 0x298 PUSH1 0x4 DUP1 CALLDATASIZE SUB DUP2 ADD SWAP1 PUSH2 0x293 SWAP2 SWAP1 PUSH2 0x1500 JUMP JUMPDEST PUSH2 0xBF0 JUMP JUMPDEST PUSH1 0x40 MLOAD PUSH2 0x2A5 SWAP2 SWAP1 PUSH2 0x153A JUMP JUMPDEST PUSH1 0x40 MLOAD DUP1 SWAP2 SUB SWAP1 RETURN JUMPDEST PUSH2 0x2C8 PUSH1 0x4 DUP1 CALLDATASIZE SUB DUP2 ADD SWAP1 PUSH2 0x2C3 SWAP2 SWAP1 PUSH2 0x1500 JUMP JUMPDEST PUSH2 0xCC6 JUMP JUMPDEST PUSH1 0x40 MLOAD PUSH2 0x2D5 SWAP2 SWAP1 PUSH2 0x153A JUMP JUMPDEST PUSH1 0x40 MLOAD DUP1 SWAP2 SUB SWAP1 RETURN JUMPDEST PUSH2 0x2F8 PUSH1 0x4 DUP1 CALLDATASIZE SUB DUP2 ADD SWAP1 PUSH2 0x2F3 SWAP2 SWAP1 PUSH2 0x15AF JUMP JUMPDEST PUSH2 0xD70 JUMP JUMPDEST PUSH1 0x40 MLOAD PUSH2 0x305 SWAP2 SWAP1 PUSH2 0x153A JUMP JUMPDEST PUSH1 0x40 MLOAD DUP1 SWAP2 SUB SWAP1 RETURN JUMPDEST PUSH2 0x328 PUSH1 0x4 DUP1 CALLDATASIZE SUB DUP2 ADD SWAP1 PUSH2 0x323 SWAP2 SWAP1 PUSH2 0x1500 JUMP JUMPDEST PUSH2 0x115F JUMP JUMPDEST PUSH1 0x40 MLOAD PUSH2 0x335 SWAP2 SWAP1 PUSH2 0x153A JUMP JUMPDEST PUSH1 0x40 MLOAD DUP1 SWAP2 SUB SWAP1 RETURN JUMPDEST PUSH2 0x358 PUSH1 0x4 DUP1 CALLDATASIZE SUB DUP2 ADD SWAP1 PUSH2 0x353 SWAP2 SWAP1 PUSH2 0x15AF JUMP JUMPDEST PUSH2 0x134F JUMP JUMPDEST STOP JUMPDEST PUSH0 DUP1 PUSH0 SLOAD GT PUSH2 0x39E JUMPI PUSH1 0x40 MLOAD PUSH32 0x8C379A000000000000000000000000000000000000000000000000000000000 DUP2 MSTORE PUSH1 0x4 ADD PUSH2 0x395 SWAP1 PUSH2 0x1647 JUMP JUMPDEST PUSH1 0x40 MLOAD DUP1 SWAP2 SUB SWAP1 REVERT JUMPDEST PUSH2 0x3C7 PUSH1 0x2 SLOAD PUSH2 0x3B9 DUP5 PUSH1 0x1 SLOAD PUSH2 0x1475 SWAP1 SWAP2 SWAP1 PUSH4 0xFFFFFFFF AND JUMP JUMPDEST PUSH2 0x148A SWAP1 SWAP2 SWAP1 PUSH4 0xFFFFFFFF AND JUMP JUMPDEST SWAP1 POP SWAP2 SWAP1 POP JUMP JUMPDEST PUSH0 DUP1 PUSH0 DUP1 SLOAD GT PUSH2 0x413 JUMPI PUSH1 0x40 MLOAD PUSH32 0x8C379A000000000000000000000000000000000000000000000000000000000 DUP2 MSTORE PUSH1 0x4 ADD PUSH2 0x40A SWAP1 PUSH2 0x1647 JUMP JUMPDEST PUSH1 0x40 MLOAD DUP1 SWAP2 SUB SWAP1 REVERT JUMPDEST PUSH1 0x4 DUP4 PUSH0 DUP2 GT PUSH2 0x458 JUMPI PUSH1 0x40 MLOAD PUSH32 0x8C379A000000000000000000000000000000000000000000000000000000000 DUP2 MSTORE PUSH1 0x4 ADD PUSH2 0x44F SWAP1 PUSH2 0x16AF JUMP JUMPDEST PUSH1 0x40 MLOAD DUP1 SWAP2 SUB SWAP1 REVERT JUMPDEST DUP2 PUSH0 CALLER PUSH20 0xFFFFFFFFFFFFFFFFFFFFFFFFFFFFFFFFFFFFFFFF AND PUSH20 0xFFFFFFFFFFFFFFFFFFFFFFFFFFFFFFFFFFFFFFFF AND DUP2 MSTORE PUSH1 0x20 ADD SWAP1 DUP2 MSTORE PUSH1 0x20 ADD PUSH0 KECCAK256 SLOAD DUP2 GT ISZERO PUSH2 0x4D7 JUMPI PUSH1 0x40 MLOAD PUSH32 0x8C379A000000000000000000000000000000000000000000000000000000000 DUP2 MSTORE PUSH1 0x4 ADD PUSH2 0x4CE SWAP1 PUSH2 0x1717 JUMP JUMPDEST PUSH1 0x40 MLOAD DUP1 SWAP2 SUB SWAP1 REVERT JUMPDEST PUSH2 0x4E0 DUP6 PUSH2 0xB0E JUMP JUMPDEST DUP1 SWAP5 POP DUP2 SWAP6 POP POP POP DUP5 PUSH1 0x4 PUSH0 CALLER PUSH20 0xFFFFFFFFFFFFFFFFFFFFFFFFFFFFFFFFFFFFFFFF AND PUSH20 0xFFFFFFFFFFFFFFFFFFFFFFFFFFFFFFFFFFFFFFFF AND DUP2 MSTORE PUSH1 0x20 ADD SWAP1 DUP2 MSTORE PUSH1 0x20 ADD PUSH0 KECCAK256 PUSH0 DUP3 DUP3 SLOAD PUSH2 0x534 SWAP2 SWAP1 PUSH2 0x1762 JUMP JUMPDEST SWAP3 POP POP DUP2 SWAP1 SSTORE POP DUP5 PUSH0 DUP1 DUP3 DUP3 SLOAD PUSH2 0x54B SWAP2 SWAP1 PUSH2 0x1762 JUMP JUMPDEST SWAP3 POP POP DUP2 SWAP1 SSTORE POP DUP4 PUSH1 0x1 PUSH0 DUP3 DUP3 SLOAD PUSH2 0x563 SWAP2 SWAP1 PUSH2 0x1762 JUMP JUMPDEST SWAP3 POP POP DUP2 SWAP1 SSTORE POP DUP3 PUSH1 0x2 PUSH0 DUP3 DUP3 SLOAD PUSH2 0x57B SWAP2 SWAP1 PUSH2 0x1762 JUMP JUMPDEST SWAP3 POP POP DUP2 SWAP1 SSTORE POP PUSH2 0x599 PUSH1 0x2 SLOAD PUSH1 0x1 SLOAD PUSH2 0x1475 SWAP1 SWAP2 SWAP1 PUSH4 0xFFFFFFFF AND JUMP JUMPDEST PUSH1 0x3 DUP2 SWAP1 SSTORE POP DUP4 PUSH1 0x5 PUSH0 CALLER PUSH20 0xFFFFFFFFFFFFFFFFFFFFFFFFFFFFFFFFFFFFFFFF AND PUSH20 0xFFFFFFFFFFFFFFFFFFFFFFFFFFFFFFFFFFFFFFFF AND DUP2 MSTORE PUSH1 0x20 ADD SWAP1 DUP2 MSTORE PUSH1 0x20 ADD PUSH0 KECCAK256 PUSH0 DUP3 DUP3 SLOAD PUSH2 0x5EB SWAP2 SWAP1 PUSH2 0x1795 JUMP JUMPDEST SWAP3 POP POP DUP2 SWAP1 SSTORE POP DUP3 PUSH1 0x6 PUSH0 CALLER PUSH20 0xFFFFFFFFFFFFFFFFFFFFFFFFFFFFFFFFFFFFFFFF AND PUSH20 0xFFFFFFFFFFFFFFFFFFFFFFFFFFFFFFFFFFFFFFFF AND DUP2 MSTORE PUSH1 0x20 ADD SWAP1 DUP2 MSTORE PUSH1 0x20 ADD PUSH0 KECCAK256 PUSH0 DUP3 DUP3 SLOAD PUSH2 0x63E SWAP2 SWAP1 PUSH2 0x1795 JUMP JUMPDEST SWAP3 POP POP DUP2 SWAP1 SSTORE POP POP POP SWAP2 POP SWAP2 JUMP JUMPDEST PUSH0 DUP1 PUSH0 SLOAD GT PUSH2 0x690 JUMPI PUSH1 0x40 MLOAD PUSH32 0x8C379A000000000000000000000000000000000000000000000000000000000 DUP2 MSTORE PUSH1 0x4 ADD PUSH2 0x687 SWAP1 PUSH2 0x1647 JUMP JUMPDEST PUSH1 0x40 MLOAD DUP1 SWAP2 SUB SWAP1 REVERT JUMPDEST PUSH2 0x6B9 PUSH1 0x1 SLOAD PUSH2 0x6AB DUP5 PUSH1 0x2 SLOAD PUSH2 0x1475 SWAP1 SWAP2 SWAP1 PUSH4 0xFFFFFFFF AND JUMP JUMPDEST PUSH2 0x148A SWAP1 SWAP2 SWAP1 PUSH4 0xFFFFFFFF AND JUMP JUMPDEST SWAP1 POP SWAP2 SWAP1 POP JUMP JUMPDEST PUSH0 DUP1 PUSH0 SLOAD GT PUSH2 0x704 JUMPI PUSH1 0x40 MLOAD PUSH32 0x8C379A000000000000000000000000000000000000000000000000000000000 DUP2 MSTORE PUSH1 0x4 ADD PUSH2 0x6FB SWAP1 PUSH2 0x1647 JUMP JUMPDEST PUSH1 0x40 MLOAD DUP1 SWAP2 SUB SWAP1 REVERT JUMPDEST PUSH0 PUSH2 0x71A DUP4 PUSH1 0x1 SLOAD PUSH2 0x149F SWAP1 SWAP2 SWAP1 PUSH4 0xFFFFFFFF AND JUMP JUMPDEST SWAP1 POP PUSH0 PUSH2 0x732 DUP3 PUSH1 0x3 SLOAD PUSH2 0x148A SWAP1 SWAP2 SWAP1 PUSH4 0xFFFFFFFF AND JUMP JUMPDEST SWAP1 POP PUSH2 0x749 DUP2 PUSH1 0x2 SLOAD PUSH2 0x14B4 SWAP1 SWAP2 SWAP1 PUSH4 0xFFFFFFFF AND JUMP JUMPDEST SWAP3 POP PUSH1 0x2 SLOAD DUP4 SUB PUSH2 0x763 JUMPI DUP3 DUP1 PUSH2 0x75F SWAP1 PUSH2 0x17C8 JUMP JUMPDEST SWAP4 POP POP JUMPDEST POP POP SWAP2 SWAP1 POP JUMP JUMPDEST PUSH0 DUP1 PUSH0 SLOAD GT PUSH2 0x7AE JUMPI PUSH1 0x40 MLOAD PUSH32 0x8C379A000000000000000000000000000000000000000000000000000000000 DUP2 MSTORE PUSH1 0x4 ADD PUSH2 0x7A5 SWAP1 PUSH2 0x1647 JUMP JUMPDEST PUSH1 0x40 MLOAD DUP1 SWAP2 SUB SWAP1 REVERT JUMPDEST PUSH1 0x1 SLOAD DUP3 LT PUSH2 0x7F2 JUMPI PUSH1 0x40 MLOAD PUSH32 0x8C379A000000000000000000000000000000000000000000000000000000000 DUP2 MSTORE PUSH1 0x4 ADD PUSH2 0x7E9 SWAP1 PUSH2 0x1839 JUMP JUMPDEST PUSH1 0x40 MLOAD DUP1 SWAP2 SUB SWAP1 REVERT JUMPDEST PUSH0 PUSH2 0x808 DUP4 PUSH1 0x1 SLOAD PUSH2 0x14B4 SWAP1 SWAP2 SWAP1 PUSH4 0xFFFFFFFF AND JUMP JUMPDEST SWAP1 POP PUSH0 PUSH2 0x820 DUP3 PUSH1 0x3 SLOAD PUSH2 0x148A SWAP1 SWAP2 SWAP1 PUSH4 0xFFFFFFFF AND JUMP JUMPDEST SWAP1 POP PUSH2 0x837 PUSH1 0x2 SLOAD DUP3 PUSH2 0x14B4 SWAP1 SWAP2 SWAP1 PUSH4 0xFFFFFFFF AND JUMP JUMPDEST SWAP3 POP POP POP SWAP2 SWAP1 POP JUMP JUMPDEST PUSH0 DUP1 PUSH0 PUSH1 0x5 PUSH0 CALLER PUSH20 0xFFFFFFFFFFFFFFFFFFFFFFFFFFFFFFFFFFFFFFFF AND PUSH20 0xFFFFFFFFFFFFFFFFFFFFFFFFFFFFFFFFFFFFFFFF AND DUP2 MSTORE PUSH1 0x20 ADD SWAP1 DUP2 MSTORE PUSH1 0x20 ADD PUSH0 KECCAK256 SLOAD SWAP3 POP PUSH1 0x6 PUSH0 CALLER PUSH20 0xFFFFFFFFFFFFFFFFFFFFFFFFFFFFFFFFFFFFFFFF AND PUSH20 0xFFFFFFFFFFFFFFFFFFFFFFFFFFFFFFFFFFFFFFFF AND DUP2 MSTORE PUSH1 0x20 ADD SWAP1 DUP2 MSTORE PUSH1 0x20 ADD PUSH0 KECCAK256 SLOAD SWAP2 POP PUSH1 0x4 PUSH0 CALLER PUSH20 0xFFFFFFFFFFFFFFFFFFFFFFFFFFFFFFFFFFFFFFFF AND PUSH20 0xFFFFFFFFFFFFFFFFFFFFFFFFFFFFFFFFFFFFFFFF AND DUP2 MSTORE PUSH1 0x20 ADD SWAP1 DUP2 MSTORE PUSH1 0x20 ADD PUSH0 KECCAK256 SLOAD SWAP1 POP SWAP1 SWAP2 SWAP3 JUMP JUMPDEST PUSH0 DUP1 PUSH0 SLOAD GT PUSH2 0x94C JUMPI PUSH1 0x40 MLOAD PUSH32 0x8C379A000000000000000000000000000000000000000000000000000000000 DUP2 MSTORE PUSH1 0x4 ADD PUSH2 0x943 SWAP1 PUSH2 0x1647 JUMP JUMPDEST PUSH1 0x40 MLOAD DUP1 SWAP2 SUB SWAP1 REVERT JUMPDEST PUSH1 0x6 DUP3 PUSH0 DUP2 GT PUSH2 0x991 JUMPI PUSH1 0x40 MLOAD PUSH32 0x8C379A000000000000000000000000000000000000000000000000000000000 DUP2 MSTORE PUSH1 0x4 ADD PUSH2 0x988 SWAP1 PUSH2 0x16AF JUMP JUMPDEST PUSH1 0x40 MLOAD DUP1 SWAP2 SUB SWAP1 REVERT JUMPDEST DUP2 PUSH0 CALLER PUSH20 0xFFFFFFFFFFFFFFFFFFFFFFFFFFFFFFFFFFFFFFFF AND PUSH20 0xFFFFFFFFFFFFFFFFFFFFFFFFFFFFFFFFFFFFFFFF AND DUP2 MSTORE PUSH1 0x20 ADD SWAP1 DUP2 MSTORE PUSH1 0x20 ADD PUSH0 KECCAK256 SLOAD DUP2 GT ISZERO PUSH2 0xA10 JUMPI PUSH1 0x40 MLOAD PUSH32 0x8C379A000000000000000000000000000000000000000000000000000000000 DUP2 MSTORE PUSH1 0x4 ADD PUSH2 0xA07 SWAP1 PUSH2 0x1717 JUMP JUMPDEST PUSH1 0x40 MLOAD DUP1 SWAP2 SUB SWAP1 REVERT JUMPDEST PUSH2 0xA19 DUP5 PUSH2 0xCC6 JUMP JUMPDEST SWAP3 POP DUP4 PUSH1 0x6 PUSH0 CALLER PUSH20 0xFFFFFFFFFFFFFFFFFFFFFFFFFFFFFFFFFFFFFFFF AND PUSH20 0xFFFFFFFFFFFFFFFFFFFFFFFFFFFFFFFFFFFFFFFF AND DUP2 MSTORE PUSH1 0x20 ADD SWAP1 DUP2 MSTORE PUSH1 0x20 ADD PUSH0 KECCAK256 PUSH0 DUP3 DUP3 SLOAD PUSH2 0xA67 SWAP2 SWAP1 PUSH2 0x1762 JUMP JUMPDEST SWAP3 POP POP DUP2 SWAP1 SSTORE POP DUP4 PUSH1 0x2 PUSH0 DUP3 DUP3 SLOAD PUSH2 0xA7F SWAP2 SWAP1 PUSH2 0x1795 JUMP JUMPDEST SWAP3 POP POP DUP2 SWAP1 SSTORE POP DUP3 PUSH1 0x1 PUSH0 DUP3 DUP3 SLOAD PUSH2 0xA97 SWAP2 SWAP1 PUSH2 0x1762 JUMP JUMPDEST SWAP3 POP POP DUP2 SWAP1 SSTORE POP DUP3 PUSH1 0x5 PUSH0 CALLER PUSH20 0xFFFFFFFFFFFFFFFFFFFFFFFFFFFFFFFFFFFFFFFF AND PUSH20 0xFFFFFFFFFFFFFFFFFFFFFFFFFFFFFFFFFFFFFFFF AND DUP2 MSTORE PUSH1 0x20 ADD SWAP1 DUP2 MSTORE PUSH1 0x20 ADD PUSH0 KECCAK256 PUSH0 DUP3 DUP3 SLOAD PUSH2 0xAEA SWAP2 SWAP1 PUSH2 0x1795 JUMP JUMPDEST SWAP3 POP POP DUP2 SWAP1 SSTORE POP POP POP SWAP2 SWAP1 POP JUMP JUMPDEST PUSH0 DUP1 PUSH0 PUSH1 0x1 SLOAD PUSH1 0x2 SLOAD PUSH0 SLOAD SWAP3 POP SWAP3 POP SWAP3 POP SWAP1 SWAP2 SWAP3 JUMP JUMPDEST PUSH0 DUP1 PUSH0 DUP1 SLOAD GT PUSH2 0xB53 JUMPI PUSH1 0x40 MLOAD PUSH32 0x8C379A000000000000000000000000000000000000000000000000000000000 DUP2 MSTORE PUSH1 0x4 ADD PUSH2 0xB4A SWAP1 PUSH2 0x1647 JUMP JUMPDEST PUSH1 0x40 MLOAD DUP1 SWAP2 SUB SWAP1 REVERT JUMPDEST PUSH0 SLOAD DUP4 GT ISZERO PUSH2 0xB97 JUMPI PUSH1 0x40 MLOAD PUSH32 0x8C379A000000000000000000000000000000000000000000000000000000000 DUP2 MSTORE PUSH1 0x4 ADD PUSH2 0xB8E SWAP1 PUSH2 0x18C7 JUMP JUMPDEST PUSH1 0x40 MLOAD DUP1 SWAP2 SUB SWAP1 REVERT JUMPDEST PUSH2 0xBBF PUSH0 SLOAD PUSH2 0xBB1 PUSH1 0x1 SLOAD DUP7 PUSH2 0x1475 SWAP1 SWAP2 SWAP1 PUSH4 0xFFFFFFFF AND JUMP JUMPDEST PUSH2 0x148A SWAP1 SWAP2 SWAP1 PUSH4 0xFFFFFFFF AND JUMP JUMPDEST SWAP2 POP PUSH2 0xBE9 PUSH0 SLOAD PUSH2 0xBDB PUSH1 0x2 SLOAD DUP7 PUSH2 0x1475 SWAP1 SWAP2 SWAP1 PUSH4 0xFFFFFFFF AND JUMP JUMPDEST PUSH2 0x148A SWAP1 SWAP2 SWAP1 PUSH4 0xFFFFFFFF AND JUMP JUMPDEST SWAP1 POP SWAP2 POP SWAP2 JUMP JUMPDEST PUSH0 DUP1 PUSH0 SLOAD GT PUSH2 0xC34 JUMPI PUSH1 0x40 MLOAD PUSH32 0x8C379A000000000000000000000000000000000000000000000000000000000 DUP2 MSTORE PUSH1 0x4 ADD PUSH2 0xC2B SWAP1 PUSH2 0x1647 JUMP JUMPDEST PUSH1 0x40 MLOAD DUP1 SWAP2 SUB SWAP1 REVERT JUMPDEST PUSH1 0x2 SLOAD DUP3 LT PUSH2 0xC78 JUMPI PUSH1 0x40 MLOAD PUSH32 0x8C379A000000000000000000000000000000000000000000000000000000000 DUP2 MSTORE PUSH1 0x4 ADD PUSH2 0xC6F SWAP1 PUSH2 0x1839 JUMP JUMPDEST PUSH1 0x40 MLOAD DUP1 SWAP2 SUB SWAP1 REVERT JUMPDEST PUSH0 PUSH2 0xC8E DUP4 PUSH1 0x2 SLOAD PUSH2 0x14B4 SWAP1 SWAP2 SWAP1 PUSH4 0xFFFFFFFF AND JUMP JUMPDEST SWAP1 POP PUSH0 PUSH2 0xCA6 DUP3 PUSH1 0x3 SLOAD PUSH2 0x148A SWAP1 SWAP2 SWAP1 PUSH4 0xFFFFFFFF AND JUMP JUMPDEST SWAP1 POP PUSH2 0xCBD PUSH1 0x1 SLOAD DUP3 PUSH2 0x14B4 SWAP1 SWAP2 SWAP1 PUSH4 0xFFFFFFFF AND JUMP JUMPDEST SWAP3 POP POP POP SWAP2 SWAP1 POP JUMP JUMPDEST PUSH0 DUP1 PUSH0 SLOAD GT PUSH2 0xD0A JUMPI PUSH1 0x40 MLOAD PUSH32 0x8C379A000000000000000000000000000000000000000000000000000000000 DUP2 MSTORE PUSH1 0x4 ADD PUSH2 0xD01 SWAP1 PUSH2 0x1647 JUMP JUMPDEST PUSH1 0x40 MLOAD DUP1 SWAP2 SUB SWAP1 REVERT JUMPDEST PUSH0 PUSH2 0xD20 DUP4 PUSH1 0x2 SLOAD PUSH2 0x149F SWAP1 SWAP2 SWAP1 PUSH4 0xFFFFFFFF AND JUMP JUMPDEST SWAP1 POP PUSH0 PUSH2 0xD38 DUP3 PUSH1 0x3 SLOAD PUSH2 0x148A SWAP1 SWAP2 SWAP1 PUSH4 0xFFFFFFFF AND JUMP JUMPDEST SWAP1 POP PUSH2 0xD4F DUP2 PUSH1 0x1 SLOAD PUSH2 0x14B4 SWAP1 SWAP2 SWAP1 PUSH4 0xFFFFFFFF AND JUMP JUMPDEST SWAP3 POP PUSH1 0x1 SLOAD DUP4 SUB PUSH2 0xD69 JUMPI DUP3 DUP1 PUSH2 0xD65 SWAP1 PUSH2 0x17C8 JUMP JUMPDEST SWAP4 POP POP JUMPDEST POP POP SWAP2 SWAP1 POP JUMP JUMPDEST PUSH0 PUSH1 0x5 DUP4 PUSH0 DUP2 GT PUSH2 0xDB6 JUMPI PUSH1 0x40 MLOAD PUSH32 0x8C379A000000000000000000000000000000000000000000000000000000000 DUP2 MSTORE PUSH1 0x4 ADD PUSH2 0xDAD SWAP1 PUSH2 0x16AF JUMP JUMPDEST PUSH1 0x40 MLOAD DUP1 SWAP2 SUB SWAP1 REVERT JUMPDEST DUP2 PUSH0 CALLER PUSH20 0xFFFFFFFFFFFFFFFFFFFFFFFFFFFFFFFFFFFFFFFF AND PUSH20 0xFFFFFFFFFFFFFFFFFFFFFFFFFFFFFFFFFFFFFFFF AND DUP2 MSTORE PUSH1 0x20 ADD SWAP1 DUP2 MSTORE PUSH1 0x20 ADD PUSH0 KECCAK256 SLOAD DUP2 GT ISZERO PUSH2 0xE35 JUMPI PUSH1 0x40 MLOAD PUSH32 0x8C379A000000000000000000000000000000000000000000000000000000000 DUP2 MSTORE PUSH1 0x4 ADD PUSH2 0xE2C SWAP1 PUSH2 0x1717 JUMP JUMPDEST PUSH1 0x40 MLOAD DUP1 SWAP2 SUB SWAP1 REVERT JUMPDEST PUSH1 0x6 DUP5 PUSH0 DUP2 GT PUSH2 0xE7A JUMPI PUSH1 0x40 MLOAD PUSH32 0x8C379A000000000000000000000000000000000000000000000000000000000 DUP2 MSTORE PUSH1 0x4 ADD PUSH2 0xE71 SWAP1 PUSH2 0x16AF JUMP JUMPDEST PUSH1 0x40 MLOAD DUP1 SWAP2 SUB SWAP1 REVERT JUMPDEST DUP2 PUSH0 CALLER PUSH20 0xFFFFFFFFFFFFFFFFFFFFFFFFFFFFFFFFFFFFFFFF AND PUSH20 0xFFFFFFFFFFFFFFFFFFFFFFFFFFFFFFFFFFFFFFFF AND DUP2 MSTORE PUSH1 0x20 ADD SWAP1 DUP2 MSTORE PUSH1 0x20 ADD PUSH0 KECCAK256 SLOAD DUP2 GT ISZERO PUSH2 0xEF9 JUMPI PUSH1 0x40 MLOAD PUSH32 0x8C379A000000000000000000000000000000000000000000000000000000000 DUP2 MSTORE PUSH1 0x4 ADD PUSH2 0xEF0 SWAP1 PUSH2 0x1717 JUMP JUMPDEST PUSH1 0x40 MLOAD DUP1 SWAP2 SUB SWAP1 REVERT JUMPDEST PUSH0 DUP1 SLOAD SUB PUSH2 0xF18 JUMPI PUSH3 0xF4240 PUSH1 0x64 PUSH2 0xF11 SWAP2 SWAP1 PUSH2 0x18E5 JUMP JUMPDEST SWAP5 POP PUSH2 0xFB6 JUMP JUMPDEST PUSH0 PUSH2 0xF41 PUSH1 0x1 SLOAD PUSH2 0xF33 DUP11 PUSH0 SLOAD PUSH2 0x1475 SWAP1 SWAP2 SWAP1 PUSH4 0xFFFFFFFF AND JUMP JUMPDEST PUSH2 0x148A SWAP1 SWAP2 SWAP1 PUSH4 0xFFFFFFFF AND JUMP JUMPDEST SWAP1 POP PUSH0 PUSH2 0xF6C PUSH1 0x2 SLOAD PUSH2 0xF5E DUP11 PUSH0 SLOAD PUSH2 0x1475 SWAP1 SWAP2 SWAP1 PUSH4 0xFFFFFFFF AND JUMP JUMPDEST PUSH2 0x148A SWAP1 SWAP2 SWAP1 PUSH4 0xFFFFFFFF AND JUMP JUMPDEST SWAP1 POP DUP1 DUP3 EQ PUSH2 0xFB0 JUMPI PUSH1 0x40 MLOAD PUSH32 0x8C379A000000000000000000000000000000000000000000000000000000000 DUP2 MSTORE PUSH1 0x4 ADD PUSH2 0xFA7 SWAP1 PUSH2 0x1996 JUMP JUMPDEST PUSH1 0x40 MLOAD DUP1 SWAP2 SUB SWAP1 REVERT JUMPDEST DUP2 SWAP7 POP POP POP JUMPDEST PUSH0 DUP6 GT PUSH2 0xFF8 JUMPI PUSH1 0x40 MLOAD PUSH32 0x8C379A000000000000000000000000000000000000000000000000000000000 DUP2 MSTORE PUSH1 0x4 ADD PUSH2 0xFEF SWAP1 PUSH2 0x1A24 JUMP JUMPDEST PUSH1 0x40 MLOAD DUP1 SWAP2 SUB SWAP1 REVERT JUMPDEST DUP7 PUSH1 0x5 PUSH0 CALLER PUSH20 0xFFFFFFFFFFFFFFFFFFFFFFFFFFFFFFFFFFFFFFFF AND PUSH20 0xFFFFFFFFFFFFFFFFFFFFFFFFFFFFFFFFFFFFFFFF AND DUP2 MSTORE PUSH1 0x20 ADD SWAP1 DUP2 MSTORE PUSH1 0x20 ADD PUSH0 KECCAK256 PUSH0 DUP3 DUP3 SLOAD PUSH2 0x1044 SWAP2 SWAP1 PUSH2 0x1762 JUMP JUMPDEST SWAP3 POP POP DUP2 SWAP1 SSTORE POP DUP6 PUSH1 0x6 PUSH0 CALLER PUSH20 0xFFFFFFFFFFFFFFFFFFFFFFFFFFFFFFFFFFFFFFFF AND PUSH20 0xFFFFFFFFFFFFFFFFFFFFFFFFFFFFFFFFFFFFFFFF AND DUP2 MSTORE PUSH1 0x20 ADD SWAP1 DUP2 MSTORE PUSH1 0x20 ADD PUSH0 KECCAK256 PUSH0 DUP3 DUP3 SLOAD PUSH2 0x1097 SWAP2 SWAP1 PUSH2 0x1762 JUMP JUMPDEST SWAP3 POP POP DUP2 SWAP1 SSTORE POP DUP7 PUSH1 0x1 PUSH0 DUP3 DUP3 SLOAD PUSH2 0x10AF SWAP2 SWAP1 PUSH2 0x1795 JUMP JUMPDEST SWAP3 POP POP DUP2 SWAP1 SSTORE POP DUP6 PUSH1 0x2 PUSH0 DUP3 DUP3 SLOAD PUSH2 0x10C7 SWAP2 SWAP1 PUSH2 0x1795 JUMP JUMPDEST SWAP3 POP POP DUP2 SWAP1 SSTORE POP PUSH2 0x10E5 PUSH1 0x2 SLOAD PUSH1 0x1 SLOAD PUSH2 0x1475 SWAP1 SWAP2 SWAP1 PUSH4 0xFFFFFFFF AND JUMP JUMPDEST PUSH1 0x3 DUP2 SWAP1 SSTORE POP DUP5 PUSH0 DUP1 DUP3 DUP3 SLOAD PUSH2 0x10FB SWAP2 SWAP1 PUSH2 0x1795 JUMP JUMPDEST SWAP3 POP POP DUP2 SWAP1 SSTORE POP DUP5 PUSH1 0x4 PUSH0 CALLER PUSH20 0xFFFFFFFFFFFFFFFFFFFFFFFFFFFFFFFFFFFFFFFF AND PUSH20 0xFFFFFFFFFFFFFFFFFFFFFFFFFFFFFFFFFFFFFFFF AND DUP2 MSTORE PUSH1 0x20 ADD SWAP1 DUP2 MSTORE PUSH1 0x20 ADD PUSH0 KECCAK256 PUSH0 DUP3 DUP3 SLOAD PUSH2 0x114E SWAP2 SWAP1 PUSH2 0x1795 JUMP JUMPDEST SWAP3 POP POP DUP2 SWAP1 SSTORE POP POP POP POP POP SWAP3 SWAP2 POP POP JUMP JUMPDEST PUSH0 DUP1 PUSH0 SLOAD GT PUSH2 0x11A3 JUMPI PUSH1 0x40 MLOAD PUSH32 0x8C379A000000000000000000000000000000000000000000000000000000000 DUP2 MSTORE PUSH1 0x4 ADD PUSH2 0x119A SWAP1 PUSH2 0x1647 JUMP JUMPDEST PUSH1 0x40 MLOAD DUP1 SWAP2 SUB SWAP1 REVERT JUMPDEST PUSH1 0x5 DUP3 PUSH0 DUP2 GT PUSH2 0x11E8 JUMPI PUSH1 0x40 MLOAD PUSH32 0x8C379A000000000000000000000000000000000000000000000000000000000 DUP2 MSTORE PUSH1 0x4 ADD PUSH2 0x11DF SWAP1 PUSH2 0x16AF JUMP JUMPDEST PUSH1 0x40 MLOAD DUP1 SWAP2 SUB SWAP1 REVERT JUMPDEST DUP2 PUSH0 CALLER PUSH20 0xFFFFFFFFFFFFFFFFFFFFFFFFFFFFFFFFFFFFFFFF AND PUSH20 0xFFFFFFFFFFFFFFFFFFFFFFFFFFFFFFFFFFFFFFFF AND DUP2 MSTORE PUSH1 0x20 ADD SWAP1 DUP2 MSTORE PUSH1 0x20 ADD PUSH0 KECCAK256 SLOAD DUP2 GT ISZERO PUSH2 0x1267 JUMPI PUSH1 0x40 MLOAD PUSH32 0x8C379A000000000000000000000000000000000000000000000000000000000 DUP2 MSTORE PUSH1 0x4 ADD PUSH2 0x125E SWAP1 PUSH2 0x1717 JUMP JUMPDEST PUSH1 0x40 MLOAD DUP1 SWAP2 SUB SWAP1 REVERT JUMPDEST PUSH2 0x1270 DUP5 PUSH2 0x6C0 JUMP JUMPDEST SWAP3 POP DUP4 PUSH1 0x5 PUSH0 CALLER PUSH20 0xFFFFFFFFFFFFFFFFFFFFFFFFFFFFFFFFFFFFFFFF AND PUSH20 0xFFFFFFFFFFFFFFFFFFFFFFFFFFFFFFFFFFFFFFFF AND DUP2 MSTORE PUSH1 0x20 ADD SWAP1 DUP2 MSTORE PUSH1 0x20 ADD PUSH0 KECCAK256 PUSH0 DUP3 DUP3 SLOAD PUSH2 0x12BE SWAP2 SWAP1 PUSH2 0x1762 JUMP JUMPDEST SWAP3 POP POP DUP2 SWAP1 SSTORE POP DUP4 PUSH1 0x1 PUSH0 DUP3 DUP3 SLOAD PUSH2 0x12D6 SWAP2 SWAP1 PUSH2 0x1795 JUMP JUMPDEST SWAP3 POP POP DUP2 SWAP1 SSTORE POP DUP3 PUSH1 0x2 PUSH0 DUP3 DUP3 SLOAD PUSH2 0x12EE SWAP2 SWAP1 PUSH2 0x1762 JUMP JUMPDEST SWAP3 POP POP DUP2 SWAP1 SSTORE POP DUP3 PUSH1 0x6 PUSH0 CALLER PUSH20 0xFFFFFFFFFFFFFFFFFFFFFFFFFFFFFFFFFFFFFFFF AND PUSH20 0xFFFFFFFFFFFFFFFFFFFFFFFFFFFFFFFFFFFFFFFF AND DUP2 MSTORE PUSH1 0x20 ADD SWAP1 DUP2 MSTORE PUSH1 0x20 ADD PUSH0 KECCAK256 PUSH0 DUP3 DUP3 SLOAD PUSH2 0x1341 SWAP2 SWAP1 PUSH2 0x1795 JUMP JUMPDEST SWAP3 POP POP DUP2 SWAP1 SSTORE POP POP POP SWAP2 SWAP1 POP JUMP JUMPDEST PUSH2 0x139F DUP3 PUSH1 0x5 PUSH0 CALLER PUSH20 0xFFFFFFFFFFFFFFFFFFFFFFFFFFFFFFFFFFFFFFFF AND PUSH20 0xFFFFFFFFFFFFFFFFFFFFFFFFFFFFFFFFFFFFFFFF AND DUP2 MSTORE PUSH1 0x20 ADD SWAP1 DUP2 MSTORE PUSH1 0x20 ADD PUSH0 KECCAK256 SLOAD PUSH2 0x149F SWAP1 SWAP2 SWAP1 PUSH4 0xFFFFFFFF AND JUMP JUMPDEST PUSH1 0x5 PUSH0 CALLER PUSH20 0xFFFFFFFFFFFFFFFFFFFFFFFFFFFFFFFFFFFFFFFF AND PUSH20 0xFFFFFFFFFFFFFFFFFFFFFFFFFFFFFFFFFFFFFFFF AND DUP2 MSTORE PUSH1 0x20 ADD SWAP1 DUP2 MSTORE PUSH1 0x20 ADD PUSH0 KECCAK256 DUP2 SWAP1 SSTORE POP PUSH2 0x1430 DUP2 PUSH1 0x6 PUSH0 CALLER PUSH20 0xFFFFFFFFFFFFFFFFFFFFFFFFFFFFFFFFFFFFFFFF AND PUSH20 0xFFFFFFFFFFFFFFFFFFFFFFFFFFFFFFFFFFFFFFFF AND DUP2 MSTORE PUSH1 0x20 ADD SWAP1 DUP2 MSTORE PUSH1 0x20 ADD PUSH0 KECCAK256 SLOAD PUSH2 0x149F SWAP1 SWAP2 SWAP1 PUSH4 0xFFFFFFFF AND JUMP JUMPDEST PUSH1 0x6 PUSH0 CALLER PUSH20 0xFFFFFFFFFFFFFFFFFFFFFFFFFFFFFFFFFFFFFFFF AND PUSH20 0xFFFFFFFFFFFFFFFFFFFFFFFFFFFFFFFFFFFFFFFF AND DUP2 MSTORE PUSH1 0x20 ADD SWAP1 DUP2 MSTORE PUSH1 0x20 ADD PUSH0 KECCAK256 DUP2 SWAP1 SSTORE POP POP POP JUMP JUMPDEST PUSH0 DUP2 DUP4 PUSH2 0x1482 SWAP2 SWAP1 PUSH2 0x18E5 JUMP JUMPDEST SWAP1 POP SWAP3 SWAP2 POP POP JUMP JUMPDEST PUSH0 DUP2 DUP4 PUSH2 0x1497 SWAP2 SWAP1 PUSH2 0x1A6F JUMP JUMPDEST SWAP1 POP SWAP3 SWAP2 POP POP JUMP JUMPDEST PUSH0 DUP2 DUP4 PUSH2 0x14AC SWAP2 SWAP1 PUSH2 0x1795 JUMP JUMPDEST SWAP1 POP SWAP3 SWAP2 POP POP JUMP JUMPDEST PUSH0 DUP2 DUP4 PUSH2 0x14C1 SWAP2 SWAP1 PUSH2 0x1762 JUMP JUMPDEST SWAP1 POP SWAP3 SWAP2 POP POP JUMP JUMPDEST PUSH0 DUP1 REVERT JUMPDEST PUSH0 DUP2 SWAP1 POP SWAP2 SWAP1 POP JUMP JUMPDEST PUSH2 0x14DF DUP2 PUSH2 0x14CD JUMP JUMPDEST DUP2 EQ PUSH2 0x14E9 JUMPI PUSH0 DUP1 REVERT JUMPDEST POP JUMP JUMPDEST PUSH0 DUP2 CALLDATALOAD SWAP1 POP PUSH2 0x14FA DUP2 PUSH2 0x14D6 JUMP JUMPDEST SWAP3 SWAP2 POP POP JUMP JUMPDEST PUSH0 PUSH1 0x20 DUP3 DUP5 SUB SLT ISZERO PUSH2 0x1515 JUMPI PUSH2 0x1514 PUSH2 0x14C9 JUMP JUMPDEST JUMPDEST PUSH0 PUSH2 0x1522 DUP5 DUP3 DUP6 ADD PUSH2 0x14EC JUMP JUMPDEST SWAP2 POP POP SWAP3 SWAP2 POP POP JUMP JUMPDEST PUSH2 0x1534 DUP2 PUSH2 0x14CD JUMP JUMPDEST DUP3 MSTORE POP POP JUMP JUMPDEST PUSH0 PUSH1 0x20 DUP3 ADD SWAP1 POP PUSH2 0x154D PUSH0 DUP4 ADD DUP5 PUSH2 0x152B JUMP JUMPDEST SWAP3 SWAP2 POP POP JUMP JUMPDEST PUSH0 PUSH1 0x40 DUP3 ADD SWAP1 POP PUSH2 0x1566 PUSH0 DUP4 ADD DUP6 PUSH2 0x152B JUMP JUMPDEST PUSH2 0x1573 PUSH1 0x20 DUP4 ADD DUP5 PUSH2 0x152B JUMP JUMPDEST SWAP4 SWAP3 POP POP POP JUMP JUMPDEST PUSH0 PUSH1 0x60 DUP3 ADD SWAP1 POP PUSH2 0x158D PUSH0 DUP4 ADD DUP7 PUSH2 0x152B JUMP JUMPDEST PUSH2 0x159A PUSH1 0x20 DUP4 ADD DUP6 PUSH2 0x152B JUMP JUMPDEST PUSH2 0x15A7 PUSH1 0x40 DUP4 ADD DUP5 PUSH2 0x152B JUMP JUMPDEST SWAP5 SWAP4 POP POP POP POP JUMP JUMPDEST PUSH0 DUP1 PUSH1 0x40 DUP4 DUP6 SUB SLT ISZERO PUSH2 0x15C5 JUMPI PUSH2 0x15C4 PUSH2 0x14C9 JUMP JUMPDEST JUMPDEST PUSH0 PUSH2 0x15D2 DUP6 DUP3 DUP7 ADD PUSH2 0x14EC JUMP JUMPDEST SWAP3 POP POP PUSH1 0x20 PUSH2 0x15E3 DUP6 DUP3 DUP7 ADD PUSH2 0x14EC JUMP JUMPDEST SWAP2 POP POP SWAP3 POP SWAP3 SWAP1 POP JUMP JUMPDEST PUSH0 DUP3 DUP3 MSTORE PUSH1 0x20 DUP3 ADD SWAP1 POP SWAP3 SWAP2 POP POP JUMP JUMPDEST PUSH32 0x5A65726F204C6971756964697479000000000000000000000000000000000000 PUSH0 DUP3 ADD MSTORE POP JUMP JUMPDEST PUSH0 PUSH2 0x1631 PUSH1 0xE DUP4 PUSH2 0x15ED JUMP JUMPDEST SWAP2 POP PUSH2 0x163C DUP3 PUSH2 0x15FD JUMP JUMPDEST PUSH1 0x20 DUP3 ADD SWAP1 POP SWAP2 SWAP1 POP JUMP JUMPDEST PUSH0 PUSH1 0x20 DUP3 ADD SWAP1 POP DUP2 DUP2 SUB PUSH0 DUP4 ADD MSTORE PUSH2 0x165E DUP2 PUSH2 0x1625 JUMP JUMPDEST SWAP1 POP SWAP2 SWAP1 POP JUMP JUMPDEST PUSH32 0x416D6F756E742063616E6E6F74206265207A65726F2100000000000000000000 PUSH0 DUP3 ADD MSTORE POP JUMP JUMPDEST PUSH0 PUSH2 0x1699 PUSH1 0x16 DUP4 PUSH2 0x15ED JUMP JUMPDEST SWAP2 POP PUSH2 0x16A4 DUP3 PUSH2 0x1665 JUMP JUMPDEST PUSH1 0x20 DUP3 ADD SWAP1 POP SWAP2 SWAP1 POP JUMP JUMPDEST PUSH0 PUSH1 0x20 DUP3 ADD SWAP1 POP DUP2 DUP2 SUB PUSH0 DUP4 ADD MSTORE PUSH2 0x16C6 DUP2 PUSH2 0x168D JUMP JUMPDEST SWAP1 POP SWAP2 SWAP1 POP JUMP JUMPDEST PUSH32 0x496E73756666696369656E7420616D6F756E7400000000000000000000000000 PUSH0 DUP3 ADD MSTORE POP JUMP JUMPDEST PUSH0 PUSH2 0x1701 PUSH1 0x13 DUP4 PUSH2 0x15ED JUMP JUMPDEST SWAP2 POP PUSH2 0x170C DUP3 PUSH2 0x16CD JUMP JUMPDEST PUSH1 0x20 DUP3 ADD SWAP1 POP SWAP2 SWAP1 POP JUMP JUMPDEST PUSH0 PUSH1 0x20 DUP3 ADD SWAP1 POP DUP2 DUP2 SUB PUSH0 DUP4 ADD MSTORE PUSH2 0x172E DUP2 PUSH2 0x16F5 JUMP JUMPDEST SWAP1 POP SWAP2 SWAP1 POP JUMP JUMPDEST PUSH32 0x4E487B7100000000000000000000000000000000000000000000000000000000 PUSH0 MSTORE PUSH1 0x11 PUSH1 0x4 MSTORE PUSH1 0x24 PUSH0 REVERT JUMPDEST PUSH0 PUSH2 0x176C DUP3 PUSH2 0x14CD JUMP JUMPDEST SWAP2 POP PUSH2 0x1777 DUP4 PUSH2 0x14CD JUMP JUMPDEST SWAP3 POP DUP3 DUP3 SUB SWAP1 POP DUP2 DUP2 GT ISZERO PUSH2 0x178F JUMPI PUSH2 0x178E PUSH2 0x1735 JUMP JUMPDEST JUMPDEST SWAP3 SWAP2 POP POP JUMP JUMPDEST PUSH0 PUSH2 0x179F DUP3 PUSH2 0x14CD JUMP JUMPDEST SWAP2 POP PUSH2 0x17AA DUP4 PUSH2 0x14CD JUMP JUMPDEST SWAP3 POP DUP3 DUP3 ADD SWAP1 POP DUP1 DUP3 GT ISZERO PUSH2 0x17C2 JUMPI PUSH2 0x17C1 PUSH2 0x1735 JUMP JUMPDEST JUMPDEST SWAP3 SWAP2 POP POP JUMP JUMPDEST PUSH0 PUSH2 0x17D2 DUP3 PUSH2 0x14CD JUMP JUMPDEST SWAP2 POP PUSH0 DUP3 SUB PUSH2 0x17E4 JUMPI PUSH2 0x17E3 PUSH2 0x1735 JUMP JUMPDEST JUMPDEST PUSH1 0x1 DUP3 SUB SWAP1 POP SWAP2 SWAP1 POP JUMP JUMPDEST PUSH32 0x496E73756666696369656E7420706F6F6C2062616C616E636500000000000000 PUSH0 DUP3 ADD MSTORE POP JUMP JUMPDEST PUSH0 PUSH2 0x1823 PUSH1 0x19 DUP4 PUSH2 0x15ED JUMP JUMPDEST SWAP2 POP PUSH2 0x182E DUP3 PUSH2 0x17EF JUMP JUMPDEST PUSH1 0x20 DUP3 ADD SWAP1 POP SWAP2 SWAP1 POP JUMP JUMPDEST PUSH0 PUSH1 0x20 DUP3 ADD SWAP1 POP DUP2 DUP2 SUB PUSH0 DUP4 ADD MSTORE PUSH2 0x1850 DUP2 PUSH2 0x1817 JUMP JUMPDEST SWAP1 POP SWAP2 SWAP1 POP JUMP JUMPDEST PUSH32 0x53686172652073686F756C64206265206C657373207468616E20746F74616C53 PUSH0 DUP3 ADD MSTORE PUSH32 0x6861726500000000000000000000000000000000000000000000000000000000 PUSH1 0x20 DUP3 ADD MSTORE POP JUMP JUMPDEST PUSH0 PUSH2 0x18B1 PUSH1 0x24 DUP4 PUSH2 0x15ED JUMP JUMPDEST SWAP2 POP PUSH2 0x18BC DUP3 PUSH2 0x1857 JUMP JUMPDEST PUSH1 0x40 DUP3 ADD SWAP1 POP SWAP2 SWAP1 POP JUMP JUMPDEST PUSH0 PUSH1 0x20 DUP3 ADD SWAP1 POP DUP2 DUP2 SUB PUSH0 DUP4 ADD MSTORE PUSH2 0x18DE DUP2 PUSH2 0x18A5 JUMP JUMPDEST SWAP1 POP SWAP2 SWAP1 POP JUMP JUMPDEST PUSH0 PUSH2 0x18EF DUP3 PUSH2 0x14CD JUMP JUMPDEST SWAP2 POP PUSH2 0x18FA DUP4 PUSH2 0x14CD JUMP JUMPDEST SWAP3 POP DUP3 DUP3 MUL PUSH2 0x1908 DUP2 PUSH2 0x14CD JUMP JUMPDEST SWAP2 POP DUP3 DUP3 DIV DUP5 EQ DUP4 ISZERO OR PUSH2 0x191F JUMPI PUSH2 0x191E PUSH2 0x1735 JUMP JUMPDEST JUMPDEST POP SWAP3 SWAP2 POP POP JUMP JUMPDEST PUSH32 0x4571756976616C656E742076616C7565206F6620746F6B656E73206E6F742070 PUSH0 DUP3 ADD MSTORE PUSH32 0x726F76696465642E2E2E00000000000000000000000000000000000000000000 PUSH1 0x20 DUP3 ADD MSTORE POP JUMP JUMPDEST PUSH0 PUSH2 0x1980 PUSH1 0x2A DUP4 PUSH2 0x15ED JUMP JUMPDEST SWAP2 POP PUSH2 0x198B DUP3 PUSH2 0x1926 JUMP JUMPDEST PUSH1 0x40 DUP3 ADD SWAP1 POP SWAP2 SWAP1 POP JUMP JUMPDEST PUSH0 PUSH1 0x20 DUP3 ADD SWAP1 POP DUP2 DUP2 SUB PUSH0 DUP4 ADD MSTORE PUSH2 0x19AD DUP2 PUSH2 0x1974 JUMP JUMPDEST SWAP1 POP SWAP2 SWAP1 POP JUMP JUMPDEST PUSH32 0x41737365742076616C7565206C657373207468616E207468726573686F6C6420 PUSH0 DUP3 ADD MSTORE PUSH32 0x666F7220636F6E747269627574696F6E21000000000000000000000000000000 PUSH1 0x20 DUP3 ADD MSTORE POP JUMP JUMPDEST PUSH0 PUSH2 0x1A0E PUSH1 0x31 DUP4 PUSH2 0x15ED JUMP JUMPDEST SWAP2 POP PUSH2 0x1A19 DUP3 PUSH2 0x19B4 JUMP JUMPDEST PUSH1 0x40 DUP3 ADD SWAP1 POP SWAP2 SWAP1 POP JUMP JUMPDEST PUSH0 PUSH1 0x20 DUP3 ADD SWAP1 POP DUP2 DUP2 SUB PUSH0 DUP4 ADD MSTORE PUSH2 0x1A3B DUP2 PUSH2 0x1A02 JUMP JUMPDEST SWAP1 POP SWAP2 SWAP1 POP JUMP JUMPDEST PUSH32 0x4E487B7100000000000000000000000000000000000000000000000000000000 PUSH0 MSTORE PUSH1 0x12 PUSH1 0x4 MSTORE PUSH1 0x24 PUSH0 REVERT JUMPDEST PUSH0 PUSH2 0x1A79 DUP3 PUSH2 0x14CD JUMP JUMPDEST SWAP2 POP PUSH2 0x1A84 DUP4 PUSH2 0x14CD JUMP JUMPDEST SWAP3 POP DUP3 PUSH2 0x1A94 JUMPI PUSH2 0x1A93 PUSH2 0x1A42 JUMP JUMPDEST JUMPDEST DUP3 DUP3 DIV SWAP1 POP SWAP3 SWAP2 POP POP JUMP INVALID LOG2 PUSH5 0x6970667358 0x22 SLT KECCAK256 PREVRANDAO 0xBA SWAP10 CALLCODE 0xE1 0xD9 SHR 0xB4 0xB2 0xC4 PUSH15 0x533F130F62692345C49E8DE72F4D21 SWAP10 EXTCODESIZE DUP2 EXP CODESIZE 0xE9 PUSH5 0x736F6C6343 STOP ADDMOD AND STOP CALLER "
				},
				"gasEstimates": {
					"creation": {
						"codeDepositCost": "1373800",
						"executionCost": "1429",
						"totalCost": "1375229"
					},
					"external": {
						"faucet(uint256,uint256)": "infinite",
						"getEquivalentToken1Estimate(uint256)": "infinite",
						"getEquivalentToken2Estimate(uint256)": "infinite",
						"getMyHoldings()": "infinite",
						"getPoolDetails()": "infinite",
						"getSwapToken1Estimate(uint256)": "infinite",
						"getSwapToken1EstimateGivenToken2(uint256)": "infinite",
						"getSwapToken2Estimate(uint256)": "infinite",
						"getSwapToken2EstimateGivenToken1(uint256)": "infinite",
						"getWithdrawEstimate(uint256)": "infinite",
						"provide(uint256,uint256)": "infinite",
						"swapToken1(uint256)": "infinite",
						"swapToken2(uint256)": "infinite",
						"withdraw(uint256)": "infinite"
					}
				},
				"methodIdentifiers": {
					"faucet(uint256,uint256)": "f9813798",
					"getEquivalentToken1Estimate(uint256)": "078b7fdc",
					"getEquivalentToken2Estimate(uint256)": "319bb38f",
					"getMyHoldings()": "91e0dbb8",
					"getPoolDetails()": "aca34c11",
					"getSwapToken1Estimate(uint256)": "450177c6",
					"getSwapToken1EstimateGivenToken2(uint256)": "d212b440",
					"getSwapToken2Estimate(uint256)": "d3817b4a",
					"getSwapToken2EstimateGivenToken1(uint256)": "7565a92b",
					"getWithdrawEstimate(uint256)": "b3244041",
					"provide(uint256,uint256)": "e8c3c54f",
					"swapToken1(uint256)": "f4cb34d4",
					"swapToken2(uint256)": "980d69d3",
					"withdraw(uint256)": "2e1a7d4d"
				}
			},
			"storageLayout": {
				"storage": [
					{
						"astId": 319,
						"contract": "AMM.sol:AMM",
						"label": "totalShares",
						"offset": 0,
						"slot": "0",
						"type": "t_uint256"
					},
					{
						"astId": 321,
						"contract": "AMM.sol:AMM",
						"label": "totalToken1",
						"offset": 0,
						"slot": "1",
						"type": "t_uint256"
					},
					{
						"astId": 323,
						"contract": "AMM.sol:AMM",
						"label": "totalToken2",
						"offset": 0,
						"slot": "2",
						"type": "t_uint256"
					},
					{
						"astId": 325,
						"contract": "AMM.sol:AMM",
						"label": "K",
						"offset": 0,
						"slot": "3",
						"type": "t_uint256"
					},
					{
						"astId": 332,
						"contract": "AMM.sol:AMM",
						"label": "shares",
						"offset": 0,
						"slot": "4",
						"type": "t_mapping(t_address,t_uint256)"
					},
					{
						"astId": 336,
						"contract": "AMM.sol:AMM",
						"label": "token1Balance",
						"offset": 0,
						"slot": "5",
						"type": "t_mapping(t_address,t_uint256)"
					},
					{
						"astId": 340,
						"contract": "AMM.sol:AMM",
						"label": "token2Balance",
						"offset": 0,
						"slot": "6",
						"type": "t_mapping(t_address,t_uint256)"
					}
				],
				"types": {
					"t_address": {
						"encoding": "inplace",
						"label": "address",
						"numberOfBytes": "20"
					},
					"t_mapping(t_address,t_uint256)": {
						"encoding": "mapping",
						"key": "t_address",
						"label": "mapping(address => uint256)",
						"numberOfBytes": "32",
						"value": "t_uint256"
					},
					"t_uint256": {
						"encoding": "inplace",
						"label": "uint256",
						"numberOfBytes": "32"
					}
				}
			},
			"userdoc": {
				"kind": "user",
				"methods": {},
				"version": 1
			}
		}
	}
}