{
	"data": {
		"bytecode": {
			"linkReferences": {},
			"object": "608060405234801561000f575f80fd5b50611ad58061001d5f395ff3fe608060405234801561000f575f80fd5b50600436106100e8575f3560e01c8063aca34c111161008a578063d3817b4a11610064578063d3817b4a146102ae578063e8c3c54f146102de578063f4cb34d41461030e578063f98137981461033e576100e8565b8063aca34c111461022d578063b32440411461024d578063d212b4401461027e576100e8565b8063450177c6116100c6578063450177c61461017d5780637565a92b146101ad57806391e0dbb8146101dd578063980d69d3146101fd576100e8565b8063078b7fdc146100ec5780632e1a7d4d1461011c578063319bb38f1461014d575b5f80fd5b61010660048036038101906101019190611500565b61035a565b604051610113919061153a565b60405180910390f35b61013660048036038101906101319190611500565b6103ce565b604051610144929190611553565b60405180910390f35b61016760048036038101906101629190611500565b61064c565b604051610174919061153a565b60405180910390f35b61019760048036038101906101929190611500565b6106c0565b6040516101a4919061153a565b60405180910390f35b6101c760048036038101906101c29190611500565b61076a565b6040516101d4919061153a565b60405180910390f35b6101e5610840565b6040516101f49392919061157a565b60405180910390f35b61021760048036038101906102129190611500565b610908565b604051610224919061153a565b60405180910390f35b610235610af8565b6040516102449392919061157a565b60405180910390f35b61026760048036038101906102629190611500565b610b0e565b604051610275929190611553565b60405180910390f35b61029860048036038101906102939190611500565b610bf0565b6040516102a5919061153a565b60405180910390f35b6102c860048036038101906102c39190611500565b610cc6565b6040516102d5919061153a565b60405180910390f35b6102f860048036038101906102f391906115af565b610d70565b604051610305919061153a565b60405180910390f35b61032860048036038101906103239190611500565b61115f565b604051610335919061153a565b60405180910390f35b610358600480360381019061035391906115af565b61134f565b005b5f805f541161039e576040517f08c379a000000000000000000000000000000000000000000000000000000000815260040161039590611647565b60405180910390fd5b6103c76002546103b98460015461147590919063ffffffff16565b61148a90919063ffffffff16565b9050919050565b5f805f805411610413576040517f08c379a000000000000000000000000000000000000000000000000000000000815260040161040a90611647565b60405180910390fd5b6004835f8111610458576040517f08c379a000000000000000000000000000000000000000000000000000000000815260040161044f906116af565b60405180910390fd5b815f3373ffffffffffffffffffffffffffffffffffffffff1673ffffffffffffffffffffffffffffffffffffffff1681526020019081526020015f20548111156104d7576040517f08c379a00000000000000000000000000000000000000000000000000000000081526004016104ce90611717565b60405180910390fd5b6104e085610b0e565b80945081955050508460045f3373ffffffffffffffffffffffffffffffffffffffff1673ffffffffffffffffffffffffffffffffffffffff1681526020019081526020015f205f8282546105349190611762565b92505081905550845f8082825461054b9190611762565b925050819055508360015f8282546105639190611762565b925050819055508260025f82825461057b9190611762565b9250508190555061059960025460015461147590919063ffffffff16565b6003819055508360055f3373ffffffffffffffffffffffffffffffffffffffff1673ffffffffffffffffffffffffffffffffffffffff1681526020019081526020015f205f8282546105eb9190611795565b925050819055508260065f3373ffffffffffffffffffffffffffffffffffffffff1673ffffffffffffffffffffffffffffffffffffffff1681526020019081526020015f205f82825461063e9190611795565b925050819055505050915091565b5f805f5411610690576040517f08c379a000000000000000000000000000000000000000000000000000000000815260040161068790611647565b60405180910390fd5b6106b96001546106ab8460025461147590919063ffffffff16565b61148a90919063ffffffff16565b9050919050565b5f805f5411610704576040517f08c379a00000000000000000000000000000000000000000000000000000000081526004016106fb90611647565b60405180910390fd5b5f61071a8360015461149f90919063ffffffff16565b90505f6107328260035461148a90919063ffffffff16565b9050610749816002546114b490919063ffffffff16565b9250600254830361076357828061075f906117c8565b9350505b5050919050565b5f805f54116107ae576040517f08c379a00000000000000000000000000000000000000000000000000000000081526004016107a590611647565b60405180910390fd5b60015482106107f2576040517f08c379a00000000000000000000000000000000000000000000000000000000081526004016107e990611839565b60405180910390fd5b5f610808836001546114b490919063ffffffff16565b90505f6108208260035461148a90919063ffffffff16565b9050610837600254826114b490919063ffffffff16565b92505050919050565b5f805f60055f3373ffffffffffffffffffffffffffffffffffffffff1673ffffffffffffffffffffffffffffffffffffffff1681526020019081526020015f2054925060065f3373ffffffffffffffffffffffffffffffffffffffff1673ffffffffffffffffffffffffffffffffffffffff1681526020019081526020015f2054915060045f3373ffffffffffffffffffffffffffffffffffffffff1673ffffffffffffffffffffffffffffffffffffffff1681526020019081526020015f20549050909192565b5f805f541161094c576040517f08c379a000000000000000000000000000000000000000000000000000000000815260040161094390611647565b60405180910390fd5b6006825f8111610991576040517f08c379a0000000000000000000000000000000000000000000000000000000008152600401610988906116af565b60405180910390fd5b815f3373ffffffffffffffffffffffffffffffffffffffff1673ffffffffffffffffffffffffffffffffffffffff1681526020019081526020015f2054811115610a10576040517f08c379a0000000000000000000000000000000000000000000000000000000008152600401610a0790611717565b60405180910390fd5b610a1984610cc6565b92508360065f3373ffffffffffffffffffffffffffffffffffffffff1673ffffffffffffffffffffffffffffffffffffffff1681526020019081526020015f205f828254610a679190611762565b925050819055508360025f828254610a7f9190611795565b925050819055508260015f828254610a979190611762565b925050819055508260055f3373ffffffffffffffffffffffffffffffffffffffff1673ffffffffffffffffffffffffffffffffffffffff1681526020019081526020015f205f828254610aea9190611795565b925050819055505050919050565b5f805f6001546002545f54925092509250909192565b5f805f805411610b53576040517f08c379a0000000000000000000000000000000000000000000000000000000008152600401610b4a90611647565b60405180910390fd5b5f54831115610b97576040517f08c379a0000000000000000000000000000000000000000000000000000000008152600401610b8e906118c7565b60405180910390fd5b610bbf5f54610bb16001548661147590919063ffffffff16565b61148a90919063ffffffff16565b9150610be95f54610bdb6002548661147590919063ffffffff16565b61148a90919063ffffffff16565b9050915091565b5f805f5411610c34576040517f08c379a0000000000000000000000000000000000000000000000000000000008152600401610c2b90611647565b60405180910390fd5b6002548210610c78576040517f08c379a0000000000000000000000000000000000000000000000000000000008152600401610c6f90611839565b60405180910390fd5b5f610c8e836002546114b490919063ffffffff16565b90505f610ca68260035461148a90919063ffffffff16565b9050610cbd600154826114b490919063ffffffff16565b92505050919050565b5f805f5411610d0a576040517f08c379a0000000000000000000000000000000000000000000000000000000008152600401610d0190611647565b60405180910390fd5b5f610d208360025461149f90919063ffffffff16565b90505f610d388260035461148a90919063ffffffff16565b9050610d4f816001546114b490919063ffffffff16565b92506001548303610d69578280610d65906117c8565b9350505b5050919050565b5f6005835f8111610db6576040517f08c379a0000000000000000000000000000000000000000000000000000000008152600401610dad906116af565b60405180910390fd5b815f3373ffffffffffffffffffffffffffffffffffffffff1673ffffffffffffffffffffffffffffffffffffffff1681526020019081526020015f2054811115610e35576040517f08c379a0000000000000000000000000000000000000000000000000000000008152600401610e2c90611717565b60405180910390fd5b6006845f8111610e7a576040517f08c379a0000000000000000000000000000000000000000000000000000000008152600401610e71906116af565b60405180910390fd5b815f3373ffffffffffffffffffffffffffffffffffffffff1673ffffffffffffffffffffffffffffffffffffffff1681526020019081526020015f2054811115610ef9576040517f08c379a0000000000000000000000000000000000000000000000000000000008152600401610ef090611717565b60405180910390fd5b5f805403610f1857620f42406064610f1191906118e5565b9450610fb6565b5f610f41600154610f338a5f5461147590919063ffffffff16565b61148a90919063ffffffff16565b90505f610f6c600254610f5e8a5f5461147590919063ffffffff16565b61148a90919063ffffffff16565b9050808214610fb0576040517f08c379a0000000000000000000000000000000000000000000000000000000008152600401610fa790611996565b60405180910390fd5b81965050505b5f8511610ff8576040517f08c379a0000000000000000000000000000000000000000000000000000000008152600401610fef90611a24565b60405180910390fd5b8660055f3373ffffffffffffffffffffffffffffffffffffffff1673ffffffffffffffffffffffffffffffffffffffff1681526020019081526020015f205f8282546110449190611762565b925050819055508560065f3373ffffffffffffffffffffffffffffffffffffffff1673ffffffffffffffffffffffffffffffffffffffff1681526020019081526020015f205f8282546110979190611762565b925050819055508660015f8282546110af9190611795565b925050819055508560025f8282546110c79190611795565b925050819055506110e560025460015461147590919063ffffffff16565b600381905550845f808282546110fb9190611795565b925050819055508460045f3373ffffffffffffffffffffffffffffffffffffffff1673ffffffffffffffffffffffffffffffffffffffff1681526020019081526020015f205f82825461114e9190611795565b925050819055505050505092915050565b5f805f54116111a3576040517f08c379a000000000000000000000000000000000000000000000000000000000815260040161119a90611647565b60405180910390fd5b6005825f81116111e8576040517f08c379a00000000000000000000000000000000000000000000000000000000081526004016111df906116af565b60405180910390fd5b815f3373ffffffffffffffffffffffffffffffffffffffff1673ffffffffffffffffffffffffffffffffffffffff1681526020019081526020015f2054811115611267576040517f08c379a000000000000000000000000000000000000000000000000000000000815260040161125e90611717565b60405180910390fd5b611270846106c0565b92508360055f3373ffffffffffffffffffffffffffffffffffffffff1673ffffffffffffffffffffffffffffffffffffffff1681526020019081526020015f205f8282546112be9190611762565b925050819055508360015f8282546112d69190611795565b925050819055508260025f8282546112ee9190611762565b925050819055508260065f3373ffffffffffffffffffffffffffffffffffffffff1673ffffffffffffffffffffffffffffffffffffffff1681526020019081526020015f205f8282546113419190611795565b925050819055505050919050565b61139f8260055f3373ffffffffffffffffffffffffffffffffffffffff1673ffffffffffffffffffffffffffffffffffffffff1681526020019081526020015f205461149f90919063ffffffff16565b60055f3373ffffffffffffffffffffffffffffffffffffffff1673ffffffffffffffffffffffffffffffffffffffff1681526020019081526020015f20819055506114308160065f3373ffffffffffffffffffffffffffffffffffffffff1673ffffffffffffffffffffffffffffffffffffffff1681526020019081526020015f205461149f90919063ffffffff16565b60065f3373ffffffffffffffffffffffffffffffffffffffff1673ffffffffffffffffffffffffffffffffffffffff1681526020019081526020015f20819055505050565b5f818361148291906118e5565b905092915050565b5f81836114979190611a6f565b905092915050565b5f81836114ac9190611795565b905092915050565b5f81836114c19190611762565b905092915050565b5f80fd5b5f819050919050565b6114df816114cd565b81146114e9575f80fd5b50565b5f813590506114fa816114d6565b92915050565b5f60208284031215611515576115146114c9565b5b5f611522848285016114ec565b91505092915050565b611534816114cd565b82525050565b5f60208201905061154d5f83018461152b565b92915050565b5f6040820190506115665f83018561152b565b611573602083018461152b565b9392505050565b5f60608201905061158d5f83018661152b565b61159a602083018561152b565b6115a7604083018461152b565b949350505050565b5f80604083850312156115c5576115c46114c9565b5b5f6115d2858286016114ec565b92505060206115e3858286016114ec565b9150509250929050565b5f82825260208201905092915050565b7f5a65726f204c69717569646974790000000000000000000000000000000000005f82015250565b5f611631600e836115ed565b915061163c826115fd565b602082019050919050565b5f6020820190508181035f83015261165e81611625565b9050919050565b7f416d6f756e742063616e6e6f74206265207a65726f21000000000000000000005f82015250565b5f6116996016836115ed565b91506116a482611665565b602082019050919050565b5f6020820190508181035f8301526116c68161168d565b9050919050565b7f496e73756666696369656e7420616d6f756e74000000000000000000000000005f82015250565b5f6117016013836115ed565b915061170c826116cd565b602082019050919050565b5f6020820190508181035f83015261172e816116f5565b9050919050565b7f4e487b71000000000000000000000000000000000000000000000000000000005f52601160045260245ffd5b5f61176c826114cd565b9150611777836114cd565b925082820390508181111561178f5761178e611735565b5b92915050565b5f61179f826114cd565b91506117aa836114cd565b92508282019050808211156117c2576117c1611735565b5b92915050565b5f6117d2826114cd565b91505f82036117e4576117e3611735565b5b600182039050919050565b7f496e73756666696369656e7420706f6f6c2062616c616e6365000000000000005f82015250565b5f6118236019836115ed565b915061182e826117ef565b602082019050919050565b5f6020820190508181035f83015261185081611817565b9050919050565b7f53686172652073686f756c64206265206c657373207468616e20746f74616c535f8201527f6861726500000000000000000000000000000000000000000000000000000000602082015250565b5f6118b16024836115ed565b91506118bc82611857565b604082019050919050565b5f6020820190508181035f8301526118de816118a5565b9050919050565b5f6118ef826114cd565b91506118fa836114cd565b9250828202611908816114cd565b9150828204841483151761191f5761191e611735565b5b5092915050565b7f4571756976616c656e742076616c7565206f6620746f6b656e73206e6f7420705f8201527f726f76696465642e2e2e00000000000000000000000000000000000000000000602082015250565b5f611980602a836115ed565b915061198b82611926565b604082019050919050565b5f6020820190508181035f8301526119ad81611974565b9050919050565b7f41737365742076616c7565206c657373207468616e207468726573686f6c64205f8201527f666f7220636f6e747269627574696f6e21000000000000000000000000000000602082015250565b5f611a0e6031836115ed565b9150611a19826119b4565b604082019050919050565b5f6020820190508181035f830152611a3b81611a02565b9050919050565b7f4e487b71000000000000000000000000000000000000000000000000000000005f52601260045260245ffd5b5f611a79826114cd565b9150611a84836114cd565b925082611a9457611a93611a42565b5b82820490509291505056fea264697066735822122044ba99f2e1d91cb4b2c46e533f130f62692345c49e8de72f4d21993b810a38e964736f6c63430008160033",
			"opcodes": "PUSH1 0x80 PUSH1 0x40 MSTORE CALLVALUE DUP1 ISZERO PUSH2 0xF JUMPI PUSH0 DUP1 REVERT JUMPDEST POP PUSH2 0x1AD5 DUP1 PUSH2 0x1D PUSH0 CODECOPY PUSH0 RETURN INVALID PUSH1 0x80 PUSH1 0x40 MSTORE CALLVALUE DUP1 ISZERO PUSH2 0xF JUMPI PUSH0 DUP1 REVERT JUMPDEST POP PUSH1 0x4 CALLDATASIZE LT PUSH2 0xE8 JUMPI PUSH0 CALLDATALOAD PUSH1 0xE0 SHR DUP1 PUSH4 0xACA34C11 GT PUSH2 0x8A JUMPI DUP1 PUSH4 0xD3817B4A GT PUSH2 0x64 JUMPI DUP1 PUSH4 0xD3817B4A EQ PUSH2 0x2AE JUMPI DUP1 PUSH4 0xE8C3C54F EQ PUSH2 0x2DE JUMPI DUP1 PUSH4 0xF4CB34D4 EQ PUSH2 0x30E JUMPI DUP1 PUSH4 0xF9813798 EQ PUSH2 0x33E JUMPI PUSH2 0xE8 JUMP JUMPDEST DUP1 PUSH4 0xACA34C11 EQ PUSH2 0x22D JUMPI DUP1 PUSH4 0xB3244041 EQ PUSH2 0x24D JUMPI DUP1 PUSH4 0xD212B440 EQ PUSH2 0x27E JUMPI PUSH2 0xE8 JUMP JUMPDEST DUP1 PUSH4 0x450177C6 GT PUSH2 0xC6 JUMPI DUP1 PUSH4 0x450177C6 EQ PUSH2 0x17D JUMPI DUP1 PUSH4 0x7565A92B EQ PUSH2 0x1AD JUMPI DUP1 PUSH4 0x91E0DBB8 EQ PUSH2 0x1DD JUMPI DUP1 PUSH4 0x980D69D3 EQ PUSH2 0x1FD JUMPI PUSH2 0xE8 JUMP JUMPDEST DUP1 PUSH4 0x78B7FDC EQ PUSH2 0xEC JUMPI DUP1 PUSH4 0x2E1A7D4D EQ PUSH2 0x11C JUMPI DUP1 PUSH4 0x319BB38F EQ PUSH2 0x14D JUMPI JUMPDEST PUSH0 DUP1 REVERT JUMPDEST PUSH2 0x106 PUSH1 0x4 DUP1 CALLDATASIZE SUB DUP2 ADD SWAP1 PUSH2 0x101 SWAP2 SWAP1 PUSH2 0x1500 JUMP JUMPDEST PUSH2 0x35A JUMP JUMPDEST PUSH1 0x40 MLOAD PUSH2 0x113 SWAP2 SWAP1 PUSH2 0x153A JUMP JUMPDEST PUSH1 0x40 MLOAD DUP1 SWAP2 SUB SWAP1 RETURN JUMPDEST PUSH2 0x136 PUSH1 0x4 DUP1 CALLDATASIZE SUB DUP2 ADD SWAP1 PUSH2 0x131 SWAP2 SWAP1 PUSH2 0x1500 JUMP JUMPDEST PUSH2 0x3CE JUMP JUMPDEST PUSH1 0x40 MLOAD PUSH2 0x144 SWAP3 SWAP2 SWAP1 PUSH2 0x1553 JUMP JUMPDEST PUSH1 0x40 MLOAD DUP1 SWAP2 SUB SWAP1 RETURN JUMPDEST PUSH2 0x167 PUSH1 0x4 DUP1 CALLDATASIZE SUB DUP2 ADD SWAP1 PUSH2 0x162 SWAP2 SWAP1 PUSH2 0x1500 JUMP JUMPDEST PUSH2 0x64C JUMP JUMPDEST PUSH1 0x40 MLOAD PUSH2 0x174 SWAP2 SWAP1 PUSH2 0x153A JUMP JUMPDEST PUSH1 0x40 MLOAD DUP1 SWAP2 SUB SWAP1 RETURN JUMPDEST PUSH2 0x197 PUSH1 0x4 DUP1 CALLDATASIZE SUB DUP2 ADD SWAP1 PUSH2 0x192 SWAP2 SWAP1 PUSH2 0x1500 JUMP JUMPDEST PUSH2 0x6C0 JUMP JUMPDEST PUSH1 0x40 MLOAD PUSH2 0x1A4 SWAP2 SWAP1 PUSH2 0x153A JUMP JUMPDEST PUSH1 0x40 MLOAD DUP1 SWAP2 SUB SWAP1 RETURN JUMPDEST PUSH2 0x1C7 PUSH1 0x4 DUP1 CALLDATASIZE SUB DUP2 ADD SWAP1 PUSH2 0x1C2 SWAP2 SWAP1 PUSH2 0x1500 JUMP JUMPDEST PUSH2 0x76A JUMP JUMPDEST PUSH1 0x40 MLOAD PUSH2 0x1D4 SWAP2 SWAP1 PUSH2 0x153A JUMP JUMPDEST PUSH1 0x40 MLOAD DUP1 SWAP2 SUB SWAP1 RETURN JUMPDEST PUSH2 0x1E5 PUSH2 0x840 JUMP JUMPDEST PUSH1 0x40 MLOAD PUSH2 0x1F4 SWAP4 SWAP3 SWAP2 SWAP1 PUSH2 0x157A JUMP JUMPDEST PUSH1 0x40 MLOAD DUP1 SWAP2 SUB SWAP1 RETURN JUMPDEST PUSH2 0x217 PUSH1 0x4 DUP1 CALLDATASIZE SUB DUP2 ADD SWAP1 PUSH2 0x212 SWAP2 SWAP1 PUSH2 0x1500 JUMP JUMPDEST PUSH2 0x908 JUMP JUMPDEST PUSH1 0x40 MLOAD PUSH2 0x224 SWAP2 SWAP1 PUSH2 0x153A JUMP JUMPDEST PUSH1 0x40 MLOAD DUP1 SWAP2 SUB SWAP1 RETURN JUMPDEST PUSH2 0x235 PUSH2 0xAF8 JUMP JUMPDEST PUSH1 0x40 MLOAD PUSH2 0x244 SWAP4 SWAP3 SWAP2 SWAP1 PUSH2 0x157A JUMP JUMPDEST PUSH1 0x40 MLOAD DUP1 SWAP2 SUB SWAP1 RETURN JUMPDEST PUSH2 0x267 PUSH1 0x4 DUP1 CALLDATASIZE SUB DUP2 ADD SWAP1 PUSH2 0x262 SWAP2 SWAP1 PUSH2 0x1500 JUMP JUMPDEST PUSH2 0xB0E JUMP JUMPDEST PUSH1 0x40 MLOAD PUSH2 0x275 SWAP3 SWAP2 SWAP1 PUSH2 0x1553 JUMP JUMPDEST PUSH1 0x40 MLOAD DUP1 SWAP2 SUB SWAP1 RETURN JUMPDEST PUSH2 0x298 PUSH1 0x4 DUP1 CALLDATASIZE SUB DUP2 ADD SWAP1 PUSH2 0x293 SWAP2 SWAP1 PUSH2 0x1500 JUMP JUMPDEST PUSH2 0xBF0 JUMP JUMPDEST PUSH1 0x40 MLOAD PUSH2 0x2A5 SWAP2 SWAP1 PUSH2 0x153A JUMP JUMPDEST PUSH1 0x40 MLOAD DUP1 SWAP2 SUB SWAP1 RETURN JUMPDEST PUSH2 0x2C8 PUSH1 0x4 DUP1 CALLDATASIZE SUB DUP2 ADD SWAP1 PUSH2 0x2C3 SWAP2 SWAP1 PUSH2 0x1500 JUMP JUMPDEST PUSH2 0xCC6 JUMP JUMPDEST PUSH1 0x40 MLOAD PUSH2 0x2D5 SWAP2 SWAP1 PUSH2 0x153A JUMP JUMPDEST PUSH1 0x40 MLOAD DUP1 SWAP2 SUB SWAP1 RETURN JUMPDEST PUSH2 0x2F8 PUSH1 0x4 DUP1 CALLDATASIZE SUB DUP2 ADD SWAP1 PUSH2 0x2F3 SWAP2 SWAP1 PUSH2 0x15AF JUMP JUMPDEST PUSH2 0xD70 JUMP JUMPDEST PUSH1 0x40 MLOAD PUSH2 0x305 SWAP2 SWAP1 PUSH2 0x153A JUMP JUMPDEST PUSH1 0x40 MLOAD DUP1 SWAP2 SUB SWAP1 RETURN JUMPDEST PUSH2 0x328 PUSH1 0x4 DUP1 CALLDATASIZE SUB DUP2 ADD SWAP1 PUSH2 0x323 SWAP2 SWAP1 PUSH2 0x1500 JUMP JUMPDEST PUSH2 0x115F JUMP JUMPDEST PUSH1 0x40 MLOAD PUSH2 0x335 SWAP2 SWAP1 PUSH2 0x153A JUMP JUMPDEST PUSH1 0x40 MLOAD DUP1 SWAP2 SUB SWAP1 RETURN JUMPDEST PUSH2 0x358 PUSH1 0x4 DUP1 CALLDATASIZE SUB DUP2 ADD SWAP1 PUSH2 0x353 SWAP2 SWAP1 PUSH2 0x15AF JUMP JUMPDEST PUSH2 0x134F JUMP JUMPDEST STOP JUMPDEST PUSH0 DUP1 PUSH0 SLOAD GT PUSH2 0x39E JUMPI PUSH1 0x40 MLOAD PUSH32 0x8C379A000000000000000000000000000000000000000000000000000000000 DUP2 MSTORE PUSH1 0x4 ADD PUSH2 0x395 SWAP1 PUSH2 0x1647 JUMP JUMPDEST PUSH1 0x40 MLOAD DUP1 SWAP2 SUB SWAP1 REVERT JUMPDEST PUSH2 0x3C7 PUSH1 0x2 SLOAD PUSH2 0x3B9 DUP5 PUSH1 0x1 SLOAD PUSH2 0x1475 SWAP1 SWAP2 SWAP1 PUSH4 0xFFFFFFFF AND JUMP JUMPDEST PUSH2 0x148A SWAP1 SWAP2 SWAP1 PUSH4 0xFFFFFFFF AND JUMP JUMPDEST SWAP1 POP SWAP2 SWAP1 POP JUMP JUMPDEST PUSH0 DUP1 PUSH0 DUP1 SLOAD GT PUSH2 0x413 JUMPI PUSH1 0x40 MLOAD PUSH32 0x8C379A000000000000000000000000000000000000000000000000000000000 DUP2 MSTORE PUSH1 0x4 ADD PUSH2 0x40A SWAP1 PUSH2 0x1647 JUMP JUMPDEST PUSH1 0x40 MLOAD DUP1 SWAP2 SUB SWAP1 REVERT JUMPDEST PUSH1 0x4 DUP4 PUSH0 DUP2 GT PUSH2 0x458 JUMPI PUSH1 0x40 MLOAD PUSH32 0x8C379A000000000000000000000000000000000000000000000000000000000 DUP2 MSTORE PUSH1 0x4 ADD PUSH2 0x44F SWAP1 PUSH2 0x16AF JUMP JUMPDEST PUSH1 0x40 MLOAD DUP1 SWAP2 SUB SWAP1 REVERT JUMPDEST DUP2 PUSH0 CALLER PUSH20 0xFFFFFFFFFFFFFFFFFFFFFFFFFFFFFFFFFFFFFFFF AND PUSH20 0xFFFFFFFFFFFFFFFFFFFFFFFFFFFFFFFFFFFFFFFF AND DUP2 MSTORE PUSH1 0x20 ADD SWAP1 DUP2 MSTORE PUSH1 0x20 ADD PUSH0 KECCAK256 SLOAD DUP2 GT ISZERO PUSH2 0x4D7 JUMPI PUSH1 0x40 MLOAD PUSH32 0x8C379A000000000000000000000000000000000000000000000000000000000 DUP2 MSTORE PUSH1 0x4 ADD PUSH2 0x4CE SWAP1 PUSH2 0x1717 JUMP JUMPDEST PUSH1 0x40 MLOAD DUP1 SWAP2 SUB SWAP1 REVERT JUMPDEST PUSH2 0x4E0 DUP6 PUSH2 0xB0E JUMP JUMPDEST DUP1 SWAP5 POP DUP2 SWAP6 POP POP POP DUP5 PUSH1 0x4 PUSH0 CALLER PUSH20 0xFFFFFFFFFFFFFFFFFFFFFFFFFFFFFFFFFFFFFFFF AND PUSH20 0xFFFFFFFFFFFFFFFFFFFFFFFFFFFFFFFFFFFFFFFF AND DUP2 MSTORE PUSH1 0x20 ADD SWAP1 DUP2 MSTORE PUSH1 0x20 ADD PUSH0 KECCAK256 PUSH0 DUP3 DUP3 SLOAD PUSH2 0x534 SWAP2 SWAP1 PUSH2 0x1762 JUMP JUMPDEST SWAP3 POP POP DUP2 SWAP1 SSTORE POP DUP5 PUSH0 DUP1 DUP3 DUP3 SLOAD PUSH2 0x54B SWAP2 SWAP1 PUSH2 0x1762 JUMP JUMPDEST SWAP3 POP POP DUP2 SWAP1 SSTORE POP DUP4 PUSH1 0x1 PUSH0 DUP3 DUP3 SLOAD PUSH2 0x563 SWAP2 SWAP1 PUSH2 0x1762 JUMP JUMPDEST SWAP3 POP POP DUP2 SWAP1 SSTORE POP DUP3 PUSH1 0x2 PUSH0 DUP3 DUP3 SLOAD PUSH2 0x57B SWAP2 SWAP1 PUSH2 0x1762 JUMP JUMPDEST SWAP3 POP POP DUP2 SWAP1 SSTORE POP PUSH2 0x599 PUSH1 0x2 SLOAD PUSH1 0x1 SLOAD PUSH2 0x1475 SWAP1 SWAP2 SWAP1 PUSH4 0xFFFFFFFF AND JUMP JUMPDEST PUSH1 0x3 DUP2 SWAP1 SSTORE POP DUP4 PUSH1 0x5 PUSH0 CALLER PUSH20 0xFFFFFFFFFFFFFFFFFFFFFFFFFFFFFFFFFFFFFFFF AND PUSH20 0xFFFFFFFFFFFFFFFFFFFFFFFFFFFFFFFFFFFFFFFF AND DUP2 MSTORE PUSH1 0x20 ADD SWAP1 DUP2 MSTORE PUSH1 0x20 ADD PUSH0 KECCAK256 PUSH0 DUP3 DUP3 SLOAD PUSH2 0x5EB SWAP2 SWAP1 PUSH2 0x1795 JUMP JUMPDEST SWAP3 POP POP DUP2 SWAP1 SSTORE POP DUP3 PUSH1 0x6 PUSH0 CALLER PUSH20 0xFFFFFFFFFFFFFFFFFFFFFFFFFFFFFFFFFFFFFFFF AND PUSH20 0xFFFFFFFFFFFFFFFFFFFFFFFFFFFFFFFFFFFFFFFF AND DUP2 MSTORE PUSH1 0x20 ADD SWAP1 DUP2 MSTORE PUSH1 0x20 ADD PUSH0 KECCAK256 PUSH0 DUP3 DUP3 SLOAD PUSH2 0x63E SWAP2 SWAP1 PUSH2 0x1795 JUMP JUMPDEST SWAP3 POP POP DUP2 SWAP1 SSTORE POP POP POP SWAP2 POP SWAP2 JUMP JUMPDEST PUSH0 DUP1 PUSH0 SLOAD GT PUSH2 0x690 JUMPI PUSH1 0x40 MLOAD PUSH32 0x8C379A000000000000000000000000000000000000000000000000000000000 DUP2 MSTORE PUSH1 0x4 ADD PUSH2 0x687 SWAP1 PUSH2 0x1647 JUMP JUMPDEST PUSH1 0x40 MLOAD DUP1 SWAP2 SUB SWAP1 REVERT JUMPDEST PUSH2 0x6B9 PUSH1 0x1 SLOAD PUSH2 0x6AB DUP5 PUSH1 0x2 SLOAD PUSH2 0x1475 SWAP1 SWAP2 SWAP1 PUSH4 0xFFFFFFFF AND JUMP JUMPDEST PUSH2 0x148A SWAP1 SWAP2 SWAP1 PUSH4 0xFFFFFFFF AND JUMP JUMPDEST SWAP1 POP SWAP2 SWAP1 POP JUMP JUMPDEST PUSH0 DUP1 PUSH0 SLOAD GT PUSH2 0x704 JUMPI PUSH1 0x40 MLOAD PUSH32 0x8C379A000000000000000000000000000000000000000000000000000000000 DUP2 MSTORE PUSH1 0x4 ADD PUSH2 0x6FB SWAP1 PUSH2 0x1647 JUMP JUMPDEST PUSH1 0x40 MLOAD DUP1 SWAP2 SUB SWAP1 REVERT JUMPDEST PUSH0 PUSH2 0x71A DUP4 PUSH1 0x1 SLOAD PUSH2 0x149F SWAP1 SWAP2 SWAP1 PUSH4 0xFFFFFFFF AND JUMP JUMPDEST SWAP1 POP PUSH0 PUSH2 0x732 DUP3 PUSH1 0x3 SLOAD PUSH2 0x148A SWAP1 SWAP2 SWAP1 PUSH4 0xFFFFFFFF AND JUMP JUMPDEST SWAP1 POP PUSH2 0x749 DUP2 PUSH1 0x2 SLOAD PUSH2 0x14B4 SWAP1 SWAP2 SWAP1 PUSH4 0xFFFFFFFF AND JUMP JUMPDEST SWAP3 POP PUSH1 0x2 SLOAD DUP4 SUB PUSH2 0x763 JUMPI DUP3 DUP1 PUSH2 0x75F SWAP1 PUSH2 0x17C8 JUMP JUMPDEST SWAP4 POP POP JUMPDEST POP POP SWAP2 SWAP1 POP JUMP JUMPDEST PUSH0 DUP1 PUSH0 SLOAD GT PUSH2 0x7AE JUMPI PUSH1 0x40 MLOAD PUSH32 0x8C379A000000000000000000000000000000000000000000000000000000000 DUP2 MSTORE PUSH1 0x4 ADD PUSH2 0x7A5 SWAP1 PUSH2 0x1647 JUMP JUMPDEST PUSH1 0x40 MLOAD DUP1 SWAP2 SUB SWAP1 REVERT JUMPDEST PUSH1 0x1 SLOAD DUP3 LT PUSH2 0x7F2 JUMPI PUSH1 0x40 MLOAD PUSH32 0x8C379A000000000000000000000000000000000000000000000000000000000 DUP2 MSTORE PUSH1 0x4 ADD PUSH2 0x7E9 SWAP1 PUSH2 0x1839 JUMP JUMPDEST PUSH1 0x40 MLOAD DUP1 SWAP2 SUB SWAP1 REVERT JUMPDEST PUSH0 PUSH2 0x808 DUP4 PUSH1 0x1 SLOAD PUSH2 0x14B4 SWAP1 SWAP2 SWAP1 PUSH4 0xFFFFFFFF AND JUMP JUMPDEST SWAP1 POP PUSH0 PUSH2 0x820 DUP3 PUSH1 0x3 SLOAD PUSH2 0x148A SWAP1 SWAP2 SWAP1 PUSH4 0xFFFFFFFF AND JUMP JUMPDEST SWAP1 POP PUSH2 0x837 PUSH1 0x2 SLOAD DUP3 PUSH2 0x14B4 SWAP1 SWAP2 SWAP1 PUSH4 0xFFFFFFFF AND JUMP JUMPDEST SWAP3 POP POP POP SWAP2 SWAP1 POP JUMP JUMPDEST PUSH0 DUP1 PUSH0 PUSH1 0x5 PUSH0 CALLER PUSH20 0xFFFFFFFFFFFFFFFFFFFFFFFFFFFFFFFFFFFFFFFF AND PUSH20 0xFFFFFFFFFFFFFFFFFFFFFFFFFFFFFFFFFFFFFFFF AND DUP2 MSTORE PUSH1 0x20 ADD SWAP1 DUP2 MSTORE PUSH1 0x20 ADD PUSH0 KECCAK256 SLOAD SWAP3 POP PUSH1 0x6 PUSH0 CALLER PUSH20 0xFFFFFFFFFFFFFFFFFFFFFFFFFFFFFFFFFFFFFFFF AND PUSH20 0xFFFFFFFFFFFFFFFFFFFFFFFFFFFFFFFFFFFFFFFF AND DUP2 MSTORE PUSH1 0x20 ADD SWAP1 DUP2 MSTORE PUSH1 0x20 ADD PUSH0 KECCAK256 SLOAD SWAP2 POP PUSH1 0x4 PUSH0 CALLER PUSH20 0xFFFFFFFFFFFFFFFFFFFFFFFFFFFFFFFFFFFFFFFF AND PUSH20 0xFFFFFFFFFFFFFFFFFFFFFFFFFFFFFFFFFFFFFFFF AND DUP2 MSTORE PUSH1 0x20 ADD SWAP1 DUP2 MSTORE PUSH1 0x20 ADD PUSH0 KECCAK256 SLOAD SWAP1 POP SWAP1 SWAP2 SWAP3 JUMP JUMPDEST PUSH0 DUP1 PUSH0 SLOAD GT PUSH2 0x94C JUMPI PUSH1 0x40 MLOAD PUSH32 0x8C379A000000000000000000000000000000000000000000000000000000000 DUP2 MSTORE PUSH1 0x4 ADD PUSH2 0x943 SWAP1 PUSH2 0x1647 JUMP JUMPDEST PUSH1 0x40 MLOAD DUP1 SWAP2 SUB SWAP1 REVERT JUMPDEST PUSH1 0x6 DUP3 PUSH0 DUP2 GT PUSH2 0x991 JUMPI PUSH1 0x40 MLOAD PUSH32 0x8C379A000000000000000000000000000000000000000000000000000000000 DUP2 MSTORE PUSH1 0x4 ADD PUSH2 0x988 SWAP1 PUSH2 0x16AF JUMP JUMPDEST PUSH1 0x40 MLOAD DUP1 SWAP2 SUB SWAP1 REVERT JUMPDEST DUP2 PUSH0 CALLER PUSH20 0xFFFFFFFFFFFFFFFFFFFFFFFFFFFFFFFFFFFFFFFF AND PUSH20 0xFFFFFFFFFFFFFFFFFFFFFFFFFFFFFFFFFFFFFFFF AND DUP2 MSTORE PUSH1 0x20 ADD SWAP1 DUP2 MSTORE PUSH1 0x20 ADD PUSH0 KECCAK256 SLOAD DUP2 GT ISZERO PUSH2 0xA10 JUMPI PUSH1 0x40 MLOAD PUSH32 0x8C379A000000000000000000000000000000000000000000000000000000000 DUP2 MSTORE PUSH1 0x4 ADD PUSH2 0xA07 SWAP1 PUSH2 0x1717 JUMP JUMPDEST PUSH1 0x40 MLOAD DUP1 SWAP2 SUB SWAP1 REVERT JUMPDEST PUSH2 0xA19 DUP5 PUSH2 0xCC6 JUMP JUMPDEST SWAP3 POP DUP4 PUSH1 0x6 PUSH0 CALLER PUSH20 0xFFFFFFFFFFFFFFFFFFFFFFFFFFFFFFFFFFFFFFFF AND PUSH20 0xFFFFFFFFFFFFFFFFFFFFFFFFFFFFFFFFFFFFFFFF AND DUP2 MSTORE PUSH1 0x20 ADD SWAP1 DUP2 MSTORE PUSH1 0x20 ADD PUSH0 KECCAK256 PUSH0 DUP3 DUP3 SLOAD PUSH2 0xA67 SWAP2 SWAP1 PUSH2 0x1762 JUMP JUMPDEST SWAP3 POP POP DUP2 SWAP1 SSTORE POP DUP4 PUSH1 0x2 PUSH0 DUP3 DUP3 SLOAD PUSH2 0xA7F SWAP2 SWAP1 PUSH2 0x1795 JUMP JUMPDEST SWAP3 POP POP DUP2 SWAP1 SSTORE POP DUP3 PUSH1 0x1 PUSH0 DUP3 DUP3 SLOAD PUSH2 0xA97 SWAP2 SWAP1 PUSH2 0x1762 JUMP JUMPDEST SWAP3 POP POP DUP2 SWAP1 SSTORE POP DUP3 PUSH1 0x5 PUSH0 CALLER PUSH20 0xFFFFFFFFFFFFFFFFFFFFFFFFFFFFFFFFFFFFFFFF AND PUSH20 0xFFFFFFFFFFFFFFFFFFFFFFFFFFFFFFFFFFFFFFFF AND DUP2 MSTORE PUSH1 0x20 ADD SWAP1 DUP2 MSTORE PUSH1 0x20 ADD PUSH0 KECCAK256 PUSH0 DUP3 DUP3 SLOAD PUSH2 0xAEA SWAP2 SWAP1 PUSH2 0x1795 JUMP JUMPDEST SWAP3 POP POP DUP2 SWAP1 SSTORE POP POP POP SWAP2 SWAP1 POP JUMP JUMPDEST PUSH0 DUP1 PUSH0 PUSH1 0x1 SLOAD PUSH1 0x2 SLOAD PUSH0 SLOAD SWAP3 POP SWAP3 POP SWAP3 POP SWAP1 SWAP2 SWAP3 JUMP JUMPDEST PUSH0 DUP1 PUSH0 DUP1 SLOAD GT PUSH2 0xB53 JUMPI PUSH1 0x40 MLOAD PUSH32 0x8C379A000000000000000000000000000000000000000000000000000000000 DUP2 MSTORE PUSH1 0x4 ADD PUSH2 0xB4A SWAP1 PUSH2 0x1647 JUMP JUMPDEST PUSH1 0x40 MLOAD DUP1 SWAP2 SUB SWAP1 REVERT JUMPDEST PUSH0 SLOAD DUP4 GT ISZERO PUSH2 0xB97 JUMPI PUSH1 0x40 MLOAD PUSH32 0x8C379A000000000000000000000000000000000000000000000000000000000 DUP2 MSTORE PUSH1 0x4 ADD PUSH2 0xB8E SWAP1 PUSH2 0x18C7 JUMP JUMPDEST PUSH1 0x40 MLOAD DUP1 SWAP2 SUB SWAP1 REVERT JUMPDEST PUSH2 0xBBF PUSH0 SLOAD PUSH2 0xBB1 PUSH1 0x1 SLOAD DUP7 PUSH2 0x1475 SWAP1 SWAP2 SWAP1 PUSH4 0xFFFFFFFF AND JUMP JUMPDEST PUSH2 0x148A SWAP1 SWAP2 SWAP1 PUSH4 0xFFFFFFFF AND JUMP JUMPDEST SWAP2 POP PUSH2 0xBE9 PUSH0 SLOAD PUSH2 0xBDB PUSH1 0x2 SLOAD DUP7 PUSH2 0x1475 SWAP1 SWAP2 SWAP1 PUSH4 0xFFFFFFFF AND JUMP JUMPDEST PUSH2 0x148A SWAP1 SWAP2 SWAP1 PUSH4 0xFFFFFFFF AND JUMP JUMPDEST SWAP1 POP SWAP2 POP SWAP2 JUMP JUMPDEST PUSH0 DUP1 PUSH0 SLOAD GT PUSH2 0xC34 JUMPI PUSH1 0x40 MLOAD PUSH32 0x8C379A000000000000000000000000000000000000000000000000000000000 DUP2 MSTORE PUSH1 0x4 ADD PUSH2 0xC2B SWAP1 PUSH2 0x1647 JUMP JUMPDEST PUSH1 0x40 MLOAD DUP1 SWAP2 SUB SWAP1 REVERT JUMPDEST PUSH1 0x2 SLOAD DUP3 LT PUSH2 0xC78 JUMPI PUSH1 0x40 MLOAD PUSH32 0x8C379A000000000000000000000000000000000000000000000000000000000 DUP2 MSTORE PUSH1 0x4 ADD PUSH2 0xC6F SWAP1 PUSH2 0x1839 JUMP JUMPDEST PUSH1 0x40 MLOAD DUP1 SWAP2 SUB SWAP1 REVERT JUMPDEST PUSH0 PUSH2 0xC8E DUP4 PUSH1 0x2 SLOAD PUSH2 0x14B4 SWAP1 SWAP2 SWAP1 PUSH4 0xFFFFFFFF AND JUMP JUMPDEST SWAP1 POP PUSH0 PUSH2 0xCA6 DUP3 PUSH1 0x3 SLOAD PUSH2 0x148A SWAP1 SWAP2 SWAP1 PUSH4 0xFFFFFFFF AND JUMP JUMPDEST SWAP1 POP PUSH2 0xCBD PUSH1 0x1 SLOAD DUP3 PUSH2 0x14B4 SWAP1 SWAP2 SWAP1 PUSH4 0xFFFFFFFF AND JUMP JUMPDEST SWAP3 POP POP POP SWAP2 SWAP1 POP JUMP JUMPDEST PUSH0 DUP1 PUSH0 SLOAD GT PUSH2 0xD0A JUMPI PUSH1 0x40 MLOAD PUSH32 0x8C379A000000000000000000000000000000000000000000000000000000000 DUP2 MSTORE PUSH1 0x4 ADD PUSH2 0xD01 SWAP1 PUSH2 0x1647 JUMP JUMPDEST PUSH1 0x40 MLOAD DUP1 SWAP2 SUB SWAP1 REVERT JUMPDEST PUSH0 PUSH2 0xD20 DUP4 PUSH1 0x2 SLOAD PUSH2 0x149F SWAP1 SWAP2 SWAP1 PUSH4 0xFFFFFFFF AND JUMP JUMPDEST SWAP1 POP PUSH0 PUSH2 0xD38 DUP3 PUSH1 0x3 SLOAD PUSH2 0x148A SWAP1 SWAP2 SWAP1 PUSH4 0xFFFFFFFF AND JUMP JUMPDEST SWAP1 POP PUSH2 0xD4F DUP2 PUSH1 0x1 SLOAD PUSH2 0x14B4 SWAP1 SWAP2 SWAP1 PUSH4 0xFFFFFFFF AND JUMP JUMPDEST SWAP3 POP PUSH1 0x1 SLOAD DUP4 SUB PUSH2 0xD69 JUMPI DUP3 DUP1 PUSH2 0xD65 SWAP1 PUSH2 0x17C8 JUMP JUMPDEST SWAP4 POP POP JUMPDEST POP POP SWAP2 SWAP1 POP JUMP JUMPDEST PUSH0 PUSH1 0x5 DUP4 PUSH0 DUP2 GT PUSH2 0xDB6 JUMPI PUSH1 0x40 MLOAD PUSH32 0x8C379A000000000000000000000000000000000000000000000000000000000 DUP2 MSTORE PUSH1 0x4 ADD PUSH2 0xDAD SWAP1 PUSH2 0x16AF JUMP JUMPDEST PUSH1 0x40 MLOAD DUP1 SWAP2 SUB SWAP1 REVERT JUMPDEST DUP2 PUSH0 CALLER PUSH20 0xFFFFFFFFFFFFFFFFFFFFFFFFFFFFFFFFFFFFFFFF AND PUSH20 0xFFFFFFFFFFFFFFFFFFFFFFFFFFFFFFFFFFFFFFFF AND DUP2 MSTORE PUSH1 0x20 ADD SWAP1 DUP2 MSTORE PUSH1 0x20 ADD PUSH0 KECCAK256 SLOAD DUP2 GT ISZERO PUSH2 0xE35 JUMPI PUSH1 0x40 MLOAD PUSH32 0x8C379A000000000000000000000000000000000000000000000000000000000 DUP2 MSTORE PUSH1 0x4 ADD PUSH2 0xE2C SWAP1 PUSH2 0x1717 JUMP JUMPDEST PUSH1 0x40 MLOAD DUP1 SWAP2 SUB SWAP1 REVERT JUMPDEST PUSH1 0x6 DUP5 PUSH0 DUP2 GT PUSH2 0xE7A JUMPI PUSH1 0x40 MLOAD PUSH32 0x8C379A000000000000000000000000000000000000000000000000000000000 DUP2 MSTORE PUSH1 0x4 ADD PUSH2 0xE71 SWAP1 PUSH2 0x16AF JUMP JUMPDEST PUSH1 0x40 MLOAD DUP1 SWAP2 SUB SWAP1 REVERT JUMPDEST DUP2 PUSH0 CALLER PUSH20 0xFFFFFFFFFFFFFFFFFFFFFFFFFFFFFFFFFFFFFFFF AND PUSH20 0xFFFFFFFFFFFFFFFFFFFFFFFFFFFFFFFFFFFFFFFF AND DUP2 MSTORE PUSH1 0x20 ADD SWAP1 DUP2 MSTORE PUSH1 0x20 ADD PUSH0 KECCAK256 SLOAD DUP2 GT ISZERO PUSH2 0xEF9 JUMPI PUSH1 0x40 MLOAD PUSH32 0x8C379A000000000000000000000000000000000000000000000000000000000 DUP2 MSTORE PUSH1 0x4 ADD PUSH2 0xEF0 SWAP1 PUSH2 0x1717 JUMP JUMPDEST PUSH1 0x40 MLOAD DUP1 SWAP2 SUB SWAP1 REVERT JUMPDEST PUSH0 DUP1 SLOAD SUB PUSH2 0xF18 JUMPI PUSH3 0xF4240 PUSH1 0x64 PUSH2 0xF11 SWAP2 SWAP1 PUSH2 0x18E5 JUMP JUMPDEST SWAP5 POP PUSH2 0xFB6 JUMP JUMPDEST PUSH0 PUSH2 0xF41 PUSH1 0x1 SLOAD PUSH2 0xF33 DUP11 PUSH0 SLOAD PUSH2 0x1475 SWAP1 SWAP2 SWAP1 PUSH4 0xFFFFFFFF AND JUMP JUMPDEST PUSH2 0x148A SWAP1 SWAP2 SWAP1 PUSH4 0xFFFFFFFF AND JUMP JUMPDEST SWAP1 POP PUSH0 PUSH2 0xF6C PUSH1 0x2 SLOAD PUSH2 0xF5E DUP11 PUSH0 SLOAD PUSH2 0x1475 SWAP1 SWAP2 SWAP1 PUSH4 0xFFFFFFFF AND JUMP JUMPDEST PUSH2 0x148A SWAP1 SWAP2 SWAP1 PUSH4 0xFFFFFFFF AND JUMP JUMPDEST SWAP1 POP DUP1 DUP3 EQ PUSH2 0xFB0 JUMPI PUSH1 0x40 MLOAD PUSH32 0x8C379A000000000000000000000000000000000000000000000000000000000 DUP2 MSTORE PUSH1 0x4 ADD PUSH2 0xFA7 SWAP1 PUSH2 0x1996 JUMP JUMPDEST PUSH1 0x40 MLOAD DUP1 SWAP2 SUB SWAP1 REVERT JUMPDEST DUP2 SWAP7 POP POP POP JUMPDEST PUSH0 DUP6 GT PUSH2 0xFF8 JUMPI PUSH1 0x40 MLOAD PUSH32 0x8C379A000000000000000000000000000000000000000000000000000000000 DUP2 MSTORE PUSH1 0x4 ADD PUSH2 0xFEF SWAP1 PUSH2 0x1A24 JUMP JUMPDEST PUSH1 0x40 MLOAD DUP1 SWAP2 SUB SWAP1 REVERT JUMPDEST DUP7 PUSH1 0x5 PUSH0 CALLER PUSH20 0xFFFFFFFFFFFFFFFFFFFFFFFFFFFFFFFFFFFFFFFF AND PUSH20 0xFFFFFFFFFFFFFFFFFFFFFFFFFFFFFFFFFFFFFFFF AND DUP2 MSTORE PUSH1 0x20 ADD SWAP1 DUP2 MSTORE PUSH1 0x20 ADD PUSH0 KECCAK256 PUSH0 DUP3 DUP3 SLOAD PUSH2 0x1044 SWAP2 SWAP1 PUSH2 0x1762 JUMP JUMPDEST SWAP3 POP POP DUP2 SWAP1 SSTORE POP DUP6 PUSH1 0x6 PUSH0 CALLER PUSH20 0xFFFFFFFFFFFFFFFFFFFFFFFFFFFFFFFFFFFFFFFF AND PUSH20 0xFFFFFFFFFFFFFFFFFFFFFFFFFFFFFFFFFFFFFFFF AND DUP2 MSTORE PUSH1 0x20 ADD SWAP1 DUP2 MSTORE PUSH1 0x20 ADD PUSH0 KECCAK256 PUSH0 DUP3 DUP3 SLOAD PUSH2 0x1097 SWAP2 SWAP1 PUSH2 0x1762 JUMP JUMPDEST SWAP3 POP POP DUP2 SWAP1 SSTORE POP DUP7 PUSH1 0x1 PUSH0 DUP3 DUP3 SLOAD PUSH2 0x10AF SWAP2 SWAP1 PUSH2 0x1795 JUMP JUMPDEST SWAP3 POP POP DUP2 SWAP1 SSTORE POP DUP6 PUSH1 0x2 PUSH0 DUP3 DUP3 SLOAD PUSH2 0x10C7 SWAP2 SWAP1 PUSH2 0x1795 JUMP JUMPDEST SWAP3 POP POP DUP2 SWAP1 SSTORE POP PUSH2 0x10E5 PUSH1 0x2 SLOAD PUSH1 0x1 SLOAD PUSH2 0x1475 SWAP1 SWAP2 SWAP1 PUSH4 0xFFFFFFFF AND JUMP JUMPDEST PUSH1 0x3 DUP2 SWAP1 SSTORE POP DUP5 PUSH0 DUP1 DUP3 DUP3 SLOAD PUSH2 0x10FB SWAP2 SWAP1 PUSH2 0x1795 JUMP JUMPDEST SWAP3 POP POP DUP2 SWAP1 SSTORE POP DUP5 PUSH1 0x4 PUSH0 CALLER PUSH20 0xFFFFFFFFFFFFFFFFFFFFFFFFFFFFFFFFFFFFFFFF AND PUSH20 0xFFFFFFFFFFFFFFFFFFFFFFFFFFFFFFFFFFFFFFFF AND DUP2 MSTORE PUSH1 0x20 ADD SWAP1 DUP2 MSTORE PUSH1 0x20 ADD PUSH0 KECCAK256 PUSH0 DUP3 DUP3 SLOAD PUSH2 0x114E SWAP2 SWAP1 PUSH2 0x1795 JUMP JUMPDEST SWAP3 POP POP DUP2 SWAP1 SSTORE POP POP POP POP POP SWAP3 SWAP2 POP POP JUMP JUMPDEST PUSH0 DUP1 PUSH0 SLOAD GT PUSH2 0x11A3 JUMPI PUSH1 0x40 MLOAD PUSH32 0x8C379A000000000000000000000000000000000000000000000000000000000 DUP2 MSTORE PUSH1 0x4 ADD PUSH2 0x119A SWAP1 PUSH2 0x1647 JUMP JUMPDEST PUSH1 0x40 MLOAD DUP1 SWAP2 SUB SWAP1 REVERT JUMPDEST PUSH1 0x5 DUP3 PUSH0 DUP2 GT PUSH2 0x11E8 JUMPI PUSH1 0x40 MLOAD PUSH32 0x8C379A000000000000000000000000000000000000000000000000000000000 DUP2 MSTORE PUSH1 0x4 ADD PUSH2 0x11DF SWAP1 PUSH2 0x16AF JUMP JUMPDEST PUSH1 0x40 MLOAD DUP1 SWAP2 SUB SWAP1 REVERT JUMPDEST DUP2 PUSH0 CALLER PUSH20 0xFFFFFFFFFFFFFFFFFFFFFFFFFFFFFFFFFFFFFFFF AND PUSH20 0xFFFFFFFFFFFFFFFFFFFFFFFFFFFFFFFFFFFFFFFF AND DUP2 MSTORE PUSH1 0x20 ADD SWAP1 DUP2 MSTORE PUSH1 0x20 ADD PUSH0 KECCAK256 SLOAD DUP2 GT ISZERO PUSH2 0x1267 JUMPI PUSH1 0x40 MLOAD PUSH32 0x8C379A000000000000000000000000000000000000000000000000000000000 DUP2 MSTORE PUSH1 0x4 ADD PUSH2 0x125E SWAP1 PUSH2 0x1717 JUMP JUMPDEST PUSH1 0x40 MLOAD DUP1 SWAP2 SUB SWAP1 REVERT JUMPDEST PUSH2 0x1270 DUP5 PUSH2 0x6C0 JUMP JUMPDEST SWAP3 POP DUP4 PUSH1 0x5 PUSH0 CALLER PUSH20 0xFFFFFFFFFFFFFFFFFFFFFFFFFFFFFFFFFFFFFFFF AND PUSH20 0xFFFFFFFFFFFFFFFFFFFFFFFFFFFFFFFFFFFFFFFF AND DUP2 MSTORE PUSH1 0x20 ADD SWAP1 DUP2 MSTORE PUSH1 0x20 ADD PUSH0 KECCAK256 PUSH0 DUP3 DUP3 SLOAD PUSH2 0x12BE SWAP2 SWAP1 PUSH2 0x1762 JUMP JUMPDEST SWAP3 POP POP DUP2 SWAP1 SSTORE POP DUP4 PUSH1 0x1 PUSH0 DUP3 DUP3 SLOAD PUSH2 0x12D6 SWAP2 SWAP1 PUSH2 0x1795 JUMP JUMPDEST SWAP3 POP POP DUP2 SWAP1 SSTORE POP DUP3 PUSH1 0x2 PUSH0 DUP3 DUP3 SLOAD PUSH2 0x12EE SWAP2 SWAP1 PUSH2 0x1762 JUMP JUMPDEST SWAP3 POP POP DUP2 SWAP1 SSTORE POP DUP3 PUSH1 0x6 PUSH0 CALLER PUSH20 0xFFFFFFFFFFFFFFFFFFFFFFFFFFFFFFFFFFFFFFFF AND PUSH20 0xFFFFFFFFFFFFFFFFFFFFFFFFFFFFFFFFFFFFFFFF AND DUP2 MSTORE PUSH1 0x20 ADD SWAP1 DUP2 MSTORE PUSH1 0x20 ADD PUSH0 KECCAK256 PUSH0 DUP3 DUP3 SLOAD PUSH2 0x1341 SWAP2 SWAP1 PUSH2 0x1795 JUMP JUMPDEST SWAP3 POP POP DUP2 SWAP1 SSTORE POP POP POP SWAP2 SWAP1 POP JUMP JUMPDEST PUSH2 0x139F DUP3 PUSH1 0x5 PUSH0 CALLER PUSH20 0xFFFFFFFFFFFFFFFFFFFFFFFFFFFFFFFFFFFFFFFF AND PUSH20 0xFFFFFFFFFFFFFFFFFFFFFFFFFFFFFFFFFFFFFFFF AND DUP2 MSTORE PUSH1 0x20 ADD SWAP1 DUP2 MSTORE PUSH1 0x20 ADD PUSH0 KECCAK256 SLOAD PUSH2 0x149F SWAP1 SWAP2 SWAP1 PUSH4 0xFFFFFFFF AND JUMP JUMPDEST PUSH1 0x5 PUSH0 CALLER PUSH20 0xFFFFFFFFFFFFFFFFFFFFFFFFFFFFFFFFFFFFFFFF AND PUSH20 0xFFFFFFFFFFFFFFFFFFFFFFFFFFFFFFFFFFFFFFFF AND DUP2 MSTORE PUSH1 0x20 ADD SWAP1 DUP2 MSTORE PUSH1 0x20 ADD PUSH0 KECCAK256 DUP2 SWAP1 SSTORE POP PUSH2 0x1430 DUP2 PUSH1 0x6 PUSH0 CALLER PUSH20 0xFFFFFFFFFFFFFFFFFFFFFFFFFFFFFFFFFFFFFFFF AND PUSH20 0xFFFFFFFFFFFFFFFFFFFFFFFFFFFFFFFFFFFFFFFF AND DUP2 MSTORE PUSH1 0x20 ADD SWAP1 DUP2 MSTORE PUSH1 0x20 ADD PUSH0 KECCAK256 SLOAD PUSH2 0x149F SWAP1 SWAP2 SWAP1 PUSH4 0xFFFFFFFF AND JUMP JUMPDEST PUSH1 0x6 PUSH0 CALLER PUSH20 0xFFFFFFFFFFFFFFFFFFFFFFFFFFFFFFFFFFFFFFFF AND PUSH20 0xFFFFFFFFFFFFFFFFFFFFFFFFFFFFFFFFFFFFFFFF AND DUP2 MSTORE PUSH1 0x20 ADD SWAP1 DUP2 MSTORE PUSH1 0x20 ADD PUSH0 KECCAK256 DUP2 SWAP1 SSTORE POP POP POP JUMP JUMPDEST PUSH0 DUP2 DUP4 PUSH2 0x1482 SWAP2 SWAP1 PUSH2 0x18E5 JUMP JUMPDEST SWAP1 POP SWAP3 SWAP2 POP POP JUMP JUMPDEST PUSH0 DUP2 DUP4 PUSH2 0x1497 SWAP2 SWAP1 PUSH2 0x1A6F JUMP JUMPDEST SWAP1 POP SWAP3 SWAP2 POP POP JUMP JUMPDEST PUSH0 DUP2 DUP4 PUSH2 0x14AC SWAP2 SWAP1 PUSH2 0x1795 JUMP JUMPDEST SWAP1 POP SWAP3 SWAP2 POP POP JUMP JUMPDEST PUSH0 DUP2 DUP4 PUSH2 0x14C1 SWAP2 SWAP1 PUSH2 0x1762 JUMP JUMPDEST SWAP1 POP SWAP3 SWAP2 POP POP JUMP JUMPDEST PUSH0 DUP1 REVERT JUMPDEST PUSH0 DUP2 SWAP1 POP SWAP2 SWAP1 POP JUMP JUMPDEST PUSH2 0x14DF DUP2 PUSH2 0x14CD JUMP JUMPDEST DUP2 EQ PUSH2 0x14E9 JUMPI PUSH0 DUP1 REVERT JUMPDEST POP JUMP JUMPDEST PUSH0 DUP2 CALLDATALOAD SWAP1 POP PUSH2 0x14FA DUP2 PUSH2 0x14D6 JUMP JUMPDEST SWAP3 SWAP2 POP POP JUMP JUMPDEST PUSH0 PUSH1 0x20 DUP3 DUP5 SUB SLT ISZERO PUSH2 0x1515 JUMPI PUSH2 0x1514 PUSH2 0x14C9 JUMP JUMPDEST JUMPDEST PUSH0 PUSH2 0x1522 DUP5 DUP3 DUP6 ADD PUSH2 0x14EC JUMP JUMPDEST SWAP2 POP POP SWAP3 SWAP2 POP POP JUMP JUMPDEST PUSH2 0x1534 DUP2 PUSH2 0x14CD JUMP JUMPDEST DUP3 MSTORE POP POP JUMP JUMPDEST PUSH0 PUSH1 0x20 DUP3 ADD SWAP1 POP PUSH2 0x154D PUSH0 DUP4 ADD DUP5 PUSH2 0x152B JUMP JUMPDEST SWAP3 SWAP2 POP POP JUMP JUMPDEST PUSH0 PUSH1 0x40 DUP3 ADD SWAP1 POP PUSH2 0x1566 PUSH0 DUP4 ADD DUP6 PUSH2 0x152B JUMP JUMPDEST PUSH2 0x1573 PUSH1 0x20 DUP4 ADD DUP5 PUSH2 0x152B JUMP JUMPDEST SWAP4 SWAP3 POP POP POP JUMP JUMPDEST PUSH0 PUSH1 0x60 DUP3 ADD SWAP1 POP PUSH2 0x158D PUSH0 DUP4 ADD DUP7 PUSH2 0x152B JUMP JUMPDEST PUSH2 0x159A PUSH1 0x20 DUP4 ADD DUP6 PUSH2 0x152B JUMP JUMPDEST PUSH2 0x15A7 PUSH1 0x40 DUP4 ADD DUP5 PUSH2 0x152B JUMP JUMPDEST SWAP5 SWAP4 POP POP POP POP JUMP JUMPDEST PUSH0 DUP1 PUSH1 0x40 DUP4 DUP6 SUB SLT ISZERO PUSH2 0x15C5 JUMPI PUSH2 0x15C4 PUSH2 0x14C9 JUMP JUMPDEST JUMPDEST PUSH0 PUSH2 0x15D2 DUP6 DUP3 DUP7 ADD PUSH2 0x14EC JUMP JUMPDEST SWAP3 POP POP PUSH1 0x20 PUSH2 0x15E3 DUP6 DUP3 DUP7 ADD PUSH2 0x14EC JUMP JUMPDEST SWAP2 POP POP SWAP3 POP SWAP3 SWAP1 POP JUMP JUMPDEST PUSH0 DUP3 DUP3 MSTORE PUSH1 0x20 DUP3 ADD SWAP1 POP SWAP3 SWAP2 POP POP JUMP JUMPDEST PUSH32 0x5A65726F204C6971756964697479000000000000000000000000000000000000 PUSH0 DUP3 ADD MSTORE POP JUMP JUMPDEST PUSH0 PUSH2 0x1631 PUSH1 0xE DUP4 PUSH2 0x15ED JUMP JUMPDEST SWAP2 POP PUSH2 0x163C DUP3 PUSH2 0x15FD JUMP JUMPDEST PUSH1 0x20 DUP3 ADD SWAP1 POP SWAP2 SWAP1 POP JUMP JUMPDEST PUSH0 PUSH1 0x20 DUP3 ADD SWAP1 POP DUP2 DUP2 SUB PUSH0 DUP4 ADD MSTORE PUSH2 0x165E DUP2 PUSH2 0x1625 JUMP JUMPDEST SWAP1 POP SWAP2 SWAP1 POP JUMP JUMPDEST PUSH32 0x416D6F756E742063616E6E6F74206265207A65726F2100000000000000000000 PUSH0 DUP3 ADD MSTORE POP JUMP JUMPDEST PUSH0 PUSH2 0x1699 PUSH1 0x16 DUP4 PUSH2 0x15ED JUMP JUMPDEST SWAP2 POP PUSH2 0x16A4 DUP3 PUSH2 0x1665 JUMP JUMPDEST PUSH1 0x20 DUP3 ADD SWAP1 POP SWAP2 SWAP1 POP JUMP JUMPDEST PUSH0 PUSH1 0x20 DUP3 ADD SWAP1 POP DUP2 DUP2 SUB PUSH0 DUP4 ADD MSTORE PUSH2 0x16C6 DUP2 PUSH2 0x168D JUMP JUMPDEST SWAP1 POP SWAP2 SWAP1 POP JUMP JUMPDEST PUSH32 0x496E73756666696369656E7420616D6F756E7400000000000000000000000000 PUSH0 DUP3 ADD MSTORE POP JUMP JUMPDEST PUSH0 PUSH2 0x1701 PUSH1 0x13 DUP4 PUSH2 0x15ED JUMP JUMPDEST SWAP2 POP PUSH2 0x170C DUP3 PUSH2 0x16CD JUMP JUMPDEST PUSH1 0x20 DUP3 ADD SWAP1 POP SWAP2 SWAP1 POP JUMP JUMPDEST PUSH0 PUSH1 0x20 DUP3 ADD SWAP1 POP DUP2 DUP2 SUB PUSH0 DUP4 ADD MSTORE PUSH2 0x172E DUP2 PUSH2 0x16F5 JUMP JUMPDEST SWAP1 POP SWAP2 SWAP1 POP JUMP JUMPDEST PUSH32 0x4E487B7100000000000000000000000000000000000000000000000000000000 PUSH0 MSTORE PUSH1 0x11 PUSH1 0x4 MSTORE PUSH1 0x24 PUSH0 REVERT JUMPDEST PUSH0 PUSH2 0x176C DUP3 PUSH2 0x14CD JUMP JUMPDEST SWAP2 POP PUSH2 0x1777 DUP4 PUSH2 0x14CD JUMP JUMPDEST SWAP3 POP DUP3 DUP3 SUB SWAP1 POP DUP2 DUP2 GT ISZERO PUSH2 0x178F JUMPI PUSH2 0x178E PUSH2 0x1735 JUMP JUMPDEST JUMPDEST SWAP3 SWAP2 POP POP JUMP JUMPDEST PUSH0 PUSH2 0x179F DUP3 PUSH2 0x14CD JUMP JUMPDEST SWAP2 POP PUSH2 0x17AA DUP4 PUSH2 0x14CD JUMP JUMPDEST SWAP3 POP DUP3 DUP3 ADD SWAP1 POP DUP1 DUP3 GT ISZERO PUSH2 0x17C2 JUMPI PUSH2 0x17C1 PUSH2 0x1735 JUMP JUMPDEST JUMPDEST SWAP3 SWAP2 POP POP JUMP JUMPDEST PUSH0 PUSH2 0x17D2 DUP3 PUSH2 0x14CD JUMP JUMPDEST SWAP2 POP PUSH0 DUP3 SUB PUSH2 0x17E4 JUMPI PUSH2 0x17E3 PUSH2 0x1735 JUMP JUMPDEST JUMPDEST PUSH1 0x1 DUP3 SUB SWAP1 POP SWAP2 SWAP1 POP JUMP JUMPDEST PUSH32 0x496E73756666696369656E7420706F6F6C2062616C616E636500000000000000 PUSH0 DUP3 ADD MSTORE POP JUMP JUMPDEST PUSH0 PUSH2 0x1823 PUSH1 0x19 DUP4 PUSH2 0x15ED JUMP JUMPDEST SWAP2 POP PUSH2 0x182E DUP3 PUSH2 0x17EF JUMP JUMPDEST PUSH1 0x20 DUP3 ADD SWAP1 POP SWAP2 SWAP1 POP JUMP JUMPDEST PUSH0 PUSH1 0x20 DUP3 ADD SWAP1 POP DUP2 DUP2 SUB PUSH0 DUP4 ADD MSTORE PUSH2 0x1850 DUP2 PUSH2 0x1817 JUMP JUMPDEST SWAP1 POP SWAP2 SWAP1 POP JUMP JUMPDEST PUSH32 0x53686172652073686F756C64206265206C657373207468616E20746F74616C53 PUSH0 DUP3 ADD MSTORE PUSH32 0x6861726500000000000000000000000000000000000000000000000000000000 PUSH1 0x20 DUP3 ADD MSTORE POP JUMP JUMPDEST PUSH0 PUSH2 0x18B1 PUSH1 0x24 DUP4 PUSH2 0x15ED JUMP JUMPDEST SWAP2 POP PUSH2 0x18BC DUP3 PUSH2 0x1857 JUMP JUMPDEST PUSH1 0x40 DUP3 ADD SWAP1 POP SWAP2 SWAP1 POP JUMP JUMPDEST PUSH0 PUSH1 0x20 DUP3 ADD SWAP1 POP DUP2 DUP2 SUB PUSH0 DUP4 ADD MSTORE PUSH2 0x18DE DUP2 PUSH2 0x18A5 JUMP JUMPDEST SWAP1 POP SWAP2 SWAP1 POP JUMP JUMPDEST PUSH0 PUSH2 0x18EF DUP3 PUSH2 0x14CD JUMP JUMPDEST SWAP2 POP PUSH2 0x18FA DUP4 PUSH2 0x14CD JUMP JUMPDEST SWAP3 POP DUP3 DUP3 MUL PUSH2 0x1908 DUP2 PUSH2 0x14CD JUMP JUMPDEST SWAP2 POP DUP3 DUP3 DIV DUP5 EQ DUP4 ISZERO OR PUSH2 0x191F JUMPI PUSH2 0x191E PUSH2 0x1735 JUMP JUMPDEST JUMPDEST POP SWAP3 SWAP2 POP POP JUMP JUMPDEST PUSH32 0x4571756976616C656E742076616C7565206F6620746F6B656E73206E6F742070 PUSH0 DUP3 ADD MSTORE PUSH32 0x726F76696465642E2E2E00000000000000000000000000000000000000000000 PUSH1 0x20 DUP3 ADD MSTORE POP JUMP JUMPDEST PUSH0 PUSH2 0x1980 PUSH1 0x2A DUP4 PUSH2 0x15ED JUMP JUMPDEST SWAP2 POP PUSH2 0x198B DUP3 PUSH2 0x1926 JUMP JUMPDEST PUSH1 0x40 DUP3 ADD SWAP1 POP SWAP2 SWAP1 POP JUMP JUMPDEST PUSH0 PUSH1 0x20 DUP3 ADD SWAP1 POP DUP2 DUP2 SUB PUSH0 DUP4 ADD MSTORE PUSH2 0x19AD DUP2 PUSH2 0x1974 JUMP JUMPDEST SWAP1 POP SWAP2 SWAP1 POP JUMP JUMPDEST PUSH32 0x41737365742076616C7565206C657373207468616E207468726573686F6C6420 PUSH0 DUP3 ADD MSTORE PUSH32 0x666F7220636F6E747269627574696F6E21000000000000000000000000000000 PUSH1 0x20 DUP3 ADD MSTORE POP JUMP JUMPDEST PUSH0 PUSH2 0x1A0E PUSH1 0x31 DUP4 PUSH2 0x15ED JUMP JUMPDEST SWAP2 POP PUSH2 0x1A19 DUP3 PUSH2 0x19B4 JUMP JUMPDEST PUSH1 0x40 DUP3 ADD SWAP1 POP SWAP2 SWAP1 POP JUMP JUMPDEST PUSH0 PUSH1 0x20 DUP3 ADD SWAP1 POP DUP2 DUP2 SUB PUSH0 DUP4 ADD MSTORE PUSH2 0x1A3B DUP2 PUSH2 0x1A02 JUMP JUMPDEST SWAP1 POP SWAP2 SWAP1 POP JUMP JUMPDEST PUSH32 0x4E487B7100000000000000000000000000000000000000000000000000000000 PUSH0 MSTORE PUSH1 0x12 PUSH1 0x4 MSTORE PUSH1 0x24 PUSH0 REVERT JUMPDEST PUSH0 PUSH2 0x1A79 DUP3 PUSH2 0x14CD JUMP JUMPDEST SWAP2 POP PUSH2 0x1A84 DUP4 PUSH2 0x14CD JUMP JUMPDEST SWAP3 POP DUP3 PUSH2 0x1A94 JUMPI PUSH2 0x1A93 PUSH2 0x1A42 JUMP JUMPDEST JUMPDEST DUP3 DUP3 DIV SWAP1 POP SWAP3 SWAP2 POP POP JUMP INVALID LOG2 PUSH5 0x6970667358 0x22 SLT KECCAK256 PREVRANDAO 0xBA SWAP10 CALLCODE 0xE1 0xD9 SHR 0xB4 0xB2 0xC4 PUSH15 0x533F130F62692345C49E8DE72F4D21 SWAP10 EXTCODESIZE DUP2 EXP CODESIZE 0xE9 PUSH5 0x736F6C6343 STOP ADDMOD AND STOP CALLER "
		},
		"gasEstimates": {
			"creation": {
				"codeDepositCost": "1373800",
				"executionCost": "1429",
				"totalCost": "1375229"
			},
			"external": {
				"faucet(uint256,uint256)": "infinite",
				"getEquivalentToken1Estimate(uint256)": "infinite",
				"getEquivalentToken2Estimate(uint256)": "infinite",
				"getMyHoldings()": "infinite",
				"getPoolDetails()": "infinite",
				"getSwapToken1Estimate(uint256)": "infinite",
				"getSwapToken1EstimateGivenToken2(uint256)": "infinite",
				"getSwapToken2Estimate(uint256)": "infinite",
				"getSwapToken2EstimateGivenToken1(uint256)": "infinite",
				"getWithdrawEstimate(uint256)": "infinite",
				"provide(uint256,uint256)": "infinite",
				"swapToken1(uint256)": "infinite",
				"swapToken2(uint256)": "infinite",
				"withdraw(uint256)": "infinite"
			}
		},
		"methodIdentifiers": {
			"faucet(uint256,uint256)": "f9813798",
			"getEquivalentToken1Estimate(uint256)": "078b7fdc",
			"getEquivalentToken2Estimate(uint256)": "319bb38f",
			"getMyHoldings()": "91e0dbb8",
			"getPoolDetails()": "aca34c11",
			"getSwapToken1Estimate(uint256)": "450177c6",
			"getSwapToken1EstimateGivenToken2(uint256)": "d212b440",
			"getSwapToken2Estimate(uint256)": "d3817b4a",
			"getSwapToken2EstimateGivenToken1(uint256)": "7565a92b",
			"getWithdrawEstimate(uint256)": "b3244041",
			"provide(uint256,uint256)": "e8c3c54f",
			"swapToken1(uint256)": "f4cb34d4",
			"swapToken2(uint256)": "980d69d3",
			"withdraw(uint256)": "2e1a7d4d"
		}
	},
	"abi": [
		{
			"inputs": [
				{
					"internalType": "uint256",
					"name": "_amountToken1",
					"type": "uint256"
				},
				{
					"internalType": "uint256",
					"name": "_amountToken2",
					"type": "uint256"
				}
			],
			"name": "faucet",
			"outputs": [],
			"stateMutability": "nonpayable",
			"type": "function"
		},
		{
			"inputs": [
				{
					"internalType": "uint256",
					"name": "_amountToken2",
					"type": "uint256"
				}
			],
			"name": "getEquivalentToken1Estimate",
			"outputs": [
				{
					"internalType": "uint256",
					"name": "reqToken1",
					"type": "uint256"
				}
			],
			"stateMutability": "view",
			"type": "function"
		},
		{
			"inputs": [
				{
					"internalType": "uint256",
					"name": "_amountToken1",
					"type": "uint256"
				}
			],
			"name": "getEquivalentToken2Estimate",
			"outputs": [
				{
					"internalType": "uint256",
					"name": "reqToken2",
					"type": "uint256"
				}
			],
			"stateMutability": "view",
			"type": "function"
		},
		{
			"inputs": [],
			"name": "getMyHoldings",
			"outputs": [
				{
					"internalType": "uint256",
					"name": "amountToken1",
					"type": "uint256"
				},
				{
					"internalType": "uint256",
					"name": "amountToken2",
					"type": "uint256"
				},
				{
					"internalType": "uint256",
					"name": "myShare",
					"type": "uint256"
				}
			],
			"stateMutability": "view",
			"type": "function"
		},
		{
			"inputs": [],
			"name": "getPoolDetails",
			"outputs": [
				{
					"internalType": "uint256",
					"name": "",
					"type": "uint256"
				},
				{
					"internalType": "uint256",
					"name": "",
					"type": "uint256"
				},
				{
					"internalType": "uint256",
					"name": "",
					"type": "uint256"
				}
			],
			"stateMutability": "view",
			"type": "function"
		},
		{
			"inputs": [
				{
					"internalType": "uint256",
					"name": "_amountToken1",
					"type": "uint256"
				}
			],
			"name": "getSwapToken1Estimate",
			"outputs": [
				{
					"internalType": "uint256",
					"name": "amountToken2",
					"type": "uint256"
				}
			],
			"stateMutability": "view",
			"type": "function"
		},
		{
			"inputs": [
				{
					"internalType": "uint256",
					"name": "_amountToken2",
					"type": "uint256"
				}
			],
			"name": "getSwapToken1EstimateGivenToken2",
			"outputs": [
				{
					"internalType": "uint256",
					"name": "amountToken1",
					"type": "uint256"
				}
			],
			"stateMutability": "view",
			"type": "function"
		},
		{
			"inputs": [
				{
					"internalType": "uint256",
					"name": "_amountToken2",
					"type": "uint256"
				}
			],
			"name": "getSwapToken2Estimate",
			"outputs": [
				{
					"internalType": "uint256",
					"name": "amountToken1",
					"type": "uint256"
				}
			],
			"stateMutability": "view",
			"type": "function"
		},
		{
			"inputs": [
				{
					"internalType": "uint256",
					"name": "_amountToken1",
					"type": "uint256"
				}
			],
			"name": "getSwapToken2EstimateGivenToken1",
			"outputs": [
				{
					"internalType": "uint256",
					"name": "amountToken2",
					"type": "uint256"
				}
			],
			"stateMutability": "view",
			"type": "function"
		},
		{
			"inputs": [
				{
					"internalType": "uint256",
					"name": "_share",
					"type": "uint256"
				}
			],
			"name": "getWithdrawEstimate",
			"outputs": [
				{
					"internalType": "uint256",
					"name": "amountToken1",
					"type": "uint256"
				},
				{
					"internalType": "uint256",
					"name": "amountToken2",
					"type": "uint256"
				}
			],
			"stateMutability": "view",
			"type": "function"
		},
		{
			"inputs": [
				{
					"internalType": "uint256",
					"name": "_amountToken1",
					"type": "uint256"
				},
				{
					"internalType": "uint256",
					"name": "_amountToken2",
					"type": "uint256"
				}
			],
			"name": "provide",
			"outputs": [
				{
					"internalType": "uint256",
					"name": "share",
					"type": "uint256"
				}
			],
			"stateMutability": "nonpayable",
			"type": "function"
		},
		{
			"inputs": [
				{
					"internalType": "uint256",
					"name": "_amountToken1",
					"type": "uint256"
				}
			],
			"name": "swapToken1",
			"outputs": [
				{
					"internalType": "uint256",
					"name": "amountToken2",
					"type": "uint256"
				}
			],
			"stateMutability": "nonpayable",
			"type": "function"
		},
		{
			"inputs": [
				{
					"internalType": "uint256",
					"name": "_amountToken2",
					"type": "uint256"
				}
			],
			"name": "swapToken2",
			"outputs": [
				{
					"internalType": "uint256",
					"name": "amountToken1",
					"type": "uint256"
				}
			],
			"stateMutability": "nonpayable",
			"type": "function"
		},
		{
			"inputs": [
				{
					"internalType": "uint256",
					"name": "_share",
					"type": "uint256"
				}
			],
			"name": "withdraw",
			"outputs": [
				{
					"internalType": "uint256",
					"name": "amountToken1",
					"type": "uint256"
				},
				{
					"internalType": "uint256",
					"name": "amountToken2",
					"type": "uint256"
				}
			],
			"stateMutability": "nonpayable",
			"type": "function"
		}
	]
}